{
  "contracts/LucroPrediction.sol": {
    "LucroPrediction": {
      "abi": [
        {
          "inputs": [
            {
              "internalType": "contract IERC20",
              "name": "_token",
              "type": "address"
            },
            {
              "internalType": "address",
              "name": "_oracleAddress",
              "type": "address"
            },
            {
              "internalType": "address",
              "name": "_adminAddress",
              "type": "address"
            },
            {
              "internalType": "address",
              "name": "_operatorAddress",
              "type": "address"
            },
            {
              "internalType": "uint256",
              "name": "_intervalSeconds",
              "type": "uint256"
            },
            {
              "internalType": "uint256",
              "name": "_bufferSeconds",
              "type": "uint256"
            },
            {
              "internalType": "uint256",
              "name": "_minBetAmount",
              "type": "uint256"
            },
            {
              "internalType": "uint256",
              "name": "_oracleUpdateAllowance",
              "type": "uint256"
            },
            {
              "internalType": "uint256",
              "name": "_treasuryFee",
              "type": "uint256"
            }
          ],
          "stateMutability": "nonpayable",
          "type": "constructor"
        },
        {
          "anonymous": false,
          "inputs": [
            {
              "indexed": true,
              "internalType": "address",
              "name": "sender",
              "type": "address"
            },
            {
              "indexed": true,
              "internalType": "uint256",
              "name": "epoch",
              "type": "uint256"
            },
            {
              "indexed": false,
              "internalType": "uint256",
              "name": "amount",
              "type": "uint256"
            }
          ],
          "name": "BetBear",
          "type": "event"
        },
        {
          "anonymous": false,
          "inputs": [
            {
              "indexed": true,
              "internalType": "address",
              "name": "sender",
              "type": "address"
            },
            {
              "indexed": true,
              "internalType": "uint256",
              "name": "epoch",
              "type": "uint256"
            },
            {
              "indexed": false,
              "internalType": "uint256",
              "name": "amount",
              "type": "uint256"
            }
          ],
          "name": "BetBull",
          "type": "event"
        },
        {
          "anonymous": false,
          "inputs": [
            {
              "indexed": true,
              "internalType": "address",
              "name": "sender",
              "type": "address"
            },
            {
              "indexed": true,
              "internalType": "uint256",
              "name": "epoch",
              "type": "uint256"
            },
            {
              "indexed": false,
              "internalType": "uint256",
              "name": "amount",
              "type": "uint256"
            }
          ],
          "name": "Claim",
          "type": "event"
        },
        {
          "anonymous": false,
          "inputs": [
            {
              "indexed": true,
              "internalType": "uint256",
              "name": "epoch",
              "type": "uint256"
            },
            {
              "indexed": true,
              "internalType": "uint256",
              "name": "roundId",
              "type": "uint256"
            },
            {
              "indexed": false,
              "internalType": "int256",
              "name": "price",
              "type": "int256"
            }
          ],
          "name": "EndRound",
          "type": "event"
        },
        {
          "anonymous": false,
          "inputs": [
            {
              "indexed": true,
              "internalType": "uint256",
              "name": "epoch",
              "type": "uint256"
            },
            {
              "indexed": true,
              "internalType": "uint256",
              "name": "roundId",
              "type": "uint256"
            },
            {
              "indexed": false,
              "internalType": "int256",
              "name": "price",
              "type": "int256"
            }
          ],
          "name": "LockRound",
          "type": "event"
        },
        {
          "anonymous": false,
          "inputs": [
            {
              "indexed": false,
              "internalType": "address",
              "name": "admin",
              "type": "address"
            }
          ],
          "name": "NewAdminAddress",
          "type": "event"
        },
        {
          "anonymous": false,
          "inputs": [
            {
              "indexed": false,
              "internalType": "uint256",
              "name": "bufferSeconds",
              "type": "uint256"
            },
            {
              "indexed": false,
              "internalType": "uint256",
              "name": "intervalSeconds",
              "type": "uint256"
            }
          ],
          "name": "NewBufferAndIntervalSeconds",
          "type": "event"
        },
        {
          "anonymous": false,
          "inputs": [
            {
              "indexed": true,
              "internalType": "uint256",
              "name": "epoch",
              "type": "uint256"
            },
            {
              "indexed": false,
              "internalType": "uint256",
              "name": "minBetAmount",
              "type": "uint256"
            }
          ],
          "name": "NewMinBetAmount",
          "type": "event"
        },
        {
          "anonymous": false,
          "inputs": [
            {
              "indexed": false,
              "internalType": "address",
              "name": "operator",
              "type": "address"
            }
          ],
          "name": "NewOperatorAddress",
          "type": "event"
        },
        {
          "anonymous": false,
          "inputs": [
            {
              "indexed": false,
              "internalType": "address",
              "name": "oracle",
              "type": "address"
            }
          ],
          "name": "NewOracle",
          "type": "event"
        },
        {
          "anonymous": false,
          "inputs": [
            {
              "indexed": false,
              "internalType": "uint256",
              "name": "oracleUpdateAllowance",
              "type": "uint256"
            }
          ],
          "name": "NewOracleUpdateAllowance",
          "type": "event"
        },
        {
          "anonymous": false,
          "inputs": [
            {
              "indexed": true,
              "internalType": "uint256",
              "name": "epoch",
              "type": "uint256"
            },
            {
              "indexed": false,
              "internalType": "uint256",
              "name": "treasuryFee",
              "type": "uint256"
            }
          ],
          "name": "NewTreasuryFee",
          "type": "event"
        },
        {
          "anonymous": false,
          "inputs": [
            {
              "indexed": true,
              "internalType": "address",
              "name": "previousOwner",
              "type": "address"
            },
            {
              "indexed": true,
              "internalType": "address",
              "name": "newOwner",
              "type": "address"
            }
          ],
          "name": "OwnershipTransferred",
          "type": "event"
        },
        {
          "anonymous": false,
          "inputs": [
            {
              "indexed": true,
              "internalType": "uint256",
              "name": "epoch",
              "type": "uint256"
            }
          ],
          "name": "Pause",
          "type": "event"
        },
        {
          "anonymous": false,
          "inputs": [
            {
              "indexed": false,
              "internalType": "address",
              "name": "account",
              "type": "address"
            }
          ],
          "name": "Paused",
          "type": "event"
        },
        {
          "anonymous": false,
          "inputs": [
            {
              "indexed": true,
              "internalType": "uint256",
              "name": "epoch",
              "type": "uint256"
            },
            {
              "indexed": false,
              "internalType": "uint256",
              "name": "rewardBaseCalAmount",
              "type": "uint256"
            },
            {
              "indexed": false,
              "internalType": "uint256",
              "name": "rewardAmount",
              "type": "uint256"
            },
            {
              "indexed": false,
              "internalType": "uint256",
              "name": "treasuryAmount",
              "type": "uint256"
            }
          ],
          "name": "RewardsCalculated",
          "type": "event"
        },
        {
          "anonymous": false,
          "inputs": [
            {
              "indexed": true,
              "internalType": "uint256",
              "name": "epoch",
              "type": "uint256"
            }
          ],
          "name": "StartRound",
          "type": "event"
        },
        {
          "anonymous": false,
          "inputs": [
            {
              "indexed": true,
              "internalType": "address",
              "name": "token",
              "type": "address"
            },
            {
              "indexed": false,
              "internalType": "uint256",
              "name": "amount",
              "type": "uint256"
            }
          ],
          "name": "TokenRecovery",
          "type": "event"
        },
        {
          "anonymous": false,
          "inputs": [
            {
              "indexed": false,
              "internalType": "uint256",
              "name": "amount",
              "type": "uint256"
            }
          ],
          "name": "TreasuryClaim",
          "type": "event"
        },
        {
          "anonymous": false,
          "inputs": [
            {
              "indexed": true,
              "internalType": "uint256",
              "name": "epoch",
              "type": "uint256"
            }
          ],
          "name": "Unpause",
          "type": "event"
        },
        {
          "anonymous": false,
          "inputs": [
            {
              "indexed": false,
              "internalType": "address",
              "name": "account",
              "type": "address"
            }
          ],
          "name": "Unpaused",
          "type": "event"
        },
        {
          "inputs": [],
          "name": "MAX_TREASURY_FEE",
          "outputs": [
            {
              "internalType": "uint256",
              "name": "",
              "type": "uint256"
            }
          ],
          "stateMutability": "view",
          "type": "function"
        },
        {
          "inputs": [],
          "name": "adminAddress",
          "outputs": [
            {
              "internalType": "address",
              "name": "",
              "type": "address"
            }
          ],
          "stateMutability": "view",
          "type": "function"
        },
        {
          "inputs": [
            {
              "internalType": "uint256",
              "name": "epoch",
              "type": "uint256"
            },
            {
              "internalType": "uint256",
              "name": "_amount",
              "type": "uint256"
            }
          ],
          "name": "betBear",
          "outputs": [],
          "stateMutability": "nonpayable",
          "type": "function"
        },
        {
          "inputs": [
            {
              "internalType": "uint256",
              "name": "epoch",
              "type": "uint256"
            },
            {
              "internalType": "uint256",
              "name": "_amount",
              "type": "uint256"
            }
          ],
          "name": "betBull",
          "outputs": [],
          "stateMutability": "nonpayable",
          "type": "function"
        },
        {
          "inputs": [],
          "name": "bufferSeconds",
          "outputs": [
            {
              "internalType": "uint256",
              "name": "",
              "type": "uint256"
            }
          ],
          "stateMutability": "view",
          "type": "function"
        },
        {
          "inputs": [
            {
              "internalType": "uint256[]",
              "name": "epochs",
              "type": "uint256[]"
            }
          ],
          "name": "claim",
          "outputs": [],
          "stateMutability": "nonpayable",
          "type": "function"
        },
        {
          "inputs": [],
          "name": "claimTreasury",
          "outputs": [],
          "stateMutability": "nonpayable",
          "type": "function"
        },
        {
          "inputs": [
            {
              "internalType": "uint256",
              "name": "epoch",
              "type": "uint256"
            },
            {
              "internalType": "address",
              "name": "user",
              "type": "address"
            }
          ],
          "name": "claimable",
          "outputs": [
            {
              "internalType": "bool",
              "name": "",
              "type": "bool"
            }
          ],
          "stateMutability": "view",
          "type": "function"
        },
        {
          "inputs": [],
          "name": "currentEpoch",
          "outputs": [
            {
              "internalType": "uint256",
              "name": "",
              "type": "uint256"
            }
          ],
          "stateMutability": "view",
          "type": "function"
        },
        {
          "inputs": [],
          "name": "executeRound",
          "outputs": [],
          "stateMutability": "nonpayable",
          "type": "function"
        },
        {
          "inputs": [],
          "name": "genesisLockOnce",
          "outputs": [
            {
              "internalType": "bool",
              "name": "",
              "type": "bool"
            }
          ],
          "stateMutability": "view",
          "type": "function"
        },
        {
          "inputs": [],
          "name": "genesisLockRound",
          "outputs": [],
          "stateMutability": "nonpayable",
          "type": "function"
        },
        {
          "inputs": [],
          "name": "genesisStartOnce",
          "outputs": [
            {
              "internalType": "bool",
              "name": "",
              "type": "bool"
            }
          ],
          "stateMutability": "view",
          "type": "function"
        },
        {
          "inputs": [],
          "name": "genesisStartRound",
          "outputs": [],
          "stateMutability": "nonpayable",
          "type": "function"
        },
        {
          "inputs": [
            {
              "internalType": "address",
              "name": "user",
              "type": "address"
            },
            {
              "internalType": "uint256",
              "name": "cursor",
              "type": "uint256"
            },
            {
              "internalType": "uint256",
              "name": "size",
              "type": "uint256"
            }
          ],
          "name": "getUserRounds",
          "outputs": [
            {
              "internalType": "uint256[]",
              "name": "",
              "type": "uint256[]"
            },
            {
              "components": [
                {
                  "internalType": "enum LucroPrediction.Position",
                  "name": "position",
                  "type": "uint8"
                },
                {
                  "internalType": "uint256",
                  "name": "amount",
                  "type": "uint256"
                },
                {
                  "internalType": "bool",
                  "name": "claimed",
                  "type": "bool"
                }
              ],
              "internalType": "struct LucroPrediction.BetInfo[]",
              "name": "",
              "type": "tuple[]"
            },
            {
              "internalType": "uint256",
              "name": "",
              "type": "uint256"
            }
          ],
          "stateMutability": "view",
          "type": "function"
        },
        {
          "inputs": [
            {
              "internalType": "address",
              "name": "user",
              "type": "address"
            }
          ],
          "name": "getUserRoundsLength",
          "outputs": [
            {
              "internalType": "uint256",
              "name": "",
              "type": "uint256"
            }
          ],
          "stateMutability": "view",
          "type": "function"
        },
        {
          "inputs": [],
          "name": "intervalSeconds",
          "outputs": [
            {
              "internalType": "uint256",
              "name": "",
              "type": "uint256"
            }
          ],
          "stateMutability": "view",
          "type": "function"
        },
        {
          "inputs": [
            {
              "internalType": "uint256",
              "name": "",
              "type": "uint256"
            },
            {
              "internalType": "address",
              "name": "",
              "type": "address"
            }
          ],
          "name": "ledger",
          "outputs": [
            {
              "internalType": "enum LucroPrediction.Position",
              "name": "position",
              "type": "uint8"
            },
            {
              "internalType": "uint256",
              "name": "amount",
              "type": "uint256"
            },
            {
              "internalType": "bool",
              "name": "claimed",
              "type": "bool"
            }
          ],
          "stateMutability": "view",
          "type": "function"
        },
        {
          "inputs": [],
          "name": "minBetAmount",
          "outputs": [
            {
              "internalType": "uint256",
              "name": "",
              "type": "uint256"
            }
          ],
          "stateMutability": "view",
          "type": "function"
        },
        {
          "inputs": [],
          "name": "operatorAddress",
          "outputs": [
            {
              "internalType": "address",
              "name": "",
              "type": "address"
            }
          ],
          "stateMutability": "view",
          "type": "function"
        },
        {
          "inputs": [],
          "name": "oracle",
          "outputs": [
            {
              "internalType": "contract AggregatorV3Interface",
              "name": "",
              "type": "address"
            }
          ],
          "stateMutability": "view",
          "type": "function"
        },
        {
          "inputs": [],
          "name": "oracleLatestRoundId",
          "outputs": [
            {
              "internalType": "uint256",
              "name": "",
              "type": "uint256"
            }
          ],
          "stateMutability": "view",
          "type": "function"
        },
        {
          "inputs": [],
          "name": "oracleUpdateAllowance",
          "outputs": [
            {
              "internalType": "uint256",
              "name": "",
              "type": "uint256"
            }
          ],
          "stateMutability": "view",
          "type": "function"
        },
        {
          "inputs": [],
          "name": "owner",
          "outputs": [
            {
              "internalType": "address",
              "name": "",
              "type": "address"
            }
          ],
          "stateMutability": "view",
          "type": "function"
        },
        {
          "inputs": [],
          "name": "pause",
          "outputs": [],
          "stateMutability": "nonpayable",
          "type": "function"
        },
        {
          "inputs": [],
          "name": "paused",
          "outputs": [
            {
              "internalType": "bool",
              "name": "",
              "type": "bool"
            }
          ],
          "stateMutability": "view",
          "type": "function"
        },
        {
          "inputs": [
            {
              "internalType": "address",
              "name": "_token",
              "type": "address"
            },
            {
              "internalType": "uint256",
              "name": "_amount",
              "type": "uint256"
            }
          ],
          "name": "recoverToken",
          "outputs": [],
          "stateMutability": "nonpayable",
          "type": "function"
        },
        {
          "inputs": [
            {
              "internalType": "uint256",
              "name": "epoch",
              "type": "uint256"
            },
            {
              "internalType": "address",
              "name": "user",
              "type": "address"
            }
          ],
          "name": "refundable",
          "outputs": [
            {
              "internalType": "bool",
              "name": "",
              "type": "bool"
            }
          ],
          "stateMutability": "view",
          "type": "function"
        },
        {
          "inputs": [],
          "name": "renounceOwnership",
          "outputs": [],
          "stateMutability": "nonpayable",
          "type": "function"
        },
        {
          "inputs": [
            {
              "internalType": "uint256",
              "name": "",
              "type": "uint256"
            }
          ],
          "name": "rounds",
          "outputs": [
            {
              "internalType": "uint256",
              "name": "epoch",
              "type": "uint256"
            },
            {
              "internalType": "uint256",
              "name": "startTimestamp",
              "type": "uint256"
            },
            {
              "internalType": "uint256",
              "name": "lockTimestamp",
              "type": "uint256"
            },
            {
              "internalType": "uint256",
              "name": "closeTimestamp",
              "type": "uint256"
            },
            {
              "internalType": "int256",
              "name": "lockPrice",
              "type": "int256"
            },
            {
              "internalType": "int256",
              "name": "closePrice",
              "type": "int256"
            },
            {
              "internalType": "uint256",
              "name": "lockOracleId",
              "type": "uint256"
            },
            {
              "internalType": "uint256",
              "name": "closeOracleId",
              "type": "uint256"
            },
            {
              "internalType": "uint256",
              "name": "totalAmount",
              "type": "uint256"
            },
            {
              "internalType": "uint256",
              "name": "bullAmount",
              "type": "uint256"
            },
            {
              "internalType": "uint256",
              "name": "bearAmount",
              "type": "uint256"
            },
            {
              "internalType": "uint256",
              "name": "rewardBaseCalAmount",
              "type": "uint256"
            },
            {
              "internalType": "uint256",
              "name": "rewardAmount",
              "type": "uint256"
            },
            {
              "internalType": "bool",
              "name": "oracleCalled",
              "type": "bool"
            }
          ],
          "stateMutability": "view",
          "type": "function"
        },
        {
          "inputs": [
            {
              "internalType": "address",
              "name": "_adminAddress",
              "type": "address"
            }
          ],
          "name": "setAdmin",
          "outputs": [],
          "stateMutability": "nonpayable",
          "type": "function"
        },
        {
          "inputs": [
            {
              "internalType": "uint256",
              "name": "_bufferSeconds",
              "type": "uint256"
            },
            {
              "internalType": "uint256",
              "name": "_intervalSeconds",
              "type": "uint256"
            }
          ],
          "name": "setBufferAndIntervalSeconds",
          "outputs": [],
          "stateMutability": "nonpayable",
          "type": "function"
        },
        {
          "inputs": [
            {
              "internalType": "uint256",
              "name": "_minBetAmount",
              "type": "uint256"
            }
          ],
          "name": "setMinBetAmount",
          "outputs": [],
          "stateMutability": "nonpayable",
          "type": "function"
        },
        {
          "inputs": [
            {
              "internalType": "address",
              "name": "_operatorAddress",
              "type": "address"
            }
          ],
          "name": "setOperator",
          "outputs": [],
          "stateMutability": "nonpayable",
          "type": "function"
        },
        {
          "inputs": [
            {
              "internalType": "address",
              "name": "_oracle",
              "type": "address"
            }
          ],
          "name": "setOracle",
          "outputs": [],
          "stateMutability": "nonpayable",
          "type": "function"
        },
        {
          "inputs": [
            {
              "internalType": "uint256",
              "name": "_oracleUpdateAllowance",
              "type": "uint256"
            }
          ],
          "name": "setOracleUpdateAllowance",
          "outputs": [],
          "stateMutability": "nonpayable",
          "type": "function"
        },
        {
          "inputs": [
            {
              "internalType": "uint256",
              "name": "_treasuryFee",
              "type": "uint256"
            }
          ],
          "name": "setTreasuryFee",
          "outputs": [],
          "stateMutability": "nonpayable",
          "type": "function"
        },
        {
          "inputs": [],
          "name": "token",
          "outputs": [
            {
              "internalType": "contract IERC20",
              "name": "",
              "type": "address"
            }
          ],
          "stateMutability": "view",
          "type": "function"
        },
        {
          "inputs": [
            {
              "internalType": "address",
              "name": "newOwner",
              "type": "address"
            }
          ],
          "name": "transferOwnership",
          "outputs": [],
          "stateMutability": "nonpayable",
          "type": "function"
        },
        {
          "inputs": [],
          "name": "treasuryAmount",
          "outputs": [
            {
              "internalType": "uint256",
              "name": "",
              "type": "uint256"
            }
          ],
          "stateMutability": "view",
          "type": "function"
        },
        {
          "inputs": [],
          "name": "treasuryFee",
          "outputs": [
            {
              "internalType": "uint256",
              "name": "",
              "type": "uint256"
            }
          ],
          "stateMutability": "view",
          "type": "function"
        },
        {
          "inputs": [],
          "name": "unpause",
          "outputs": [],
          "stateMutability": "nonpayable",
          "type": "function"
        },
        {
          "inputs": [
            {
              "internalType": "address",
              "name": "",
              "type": "address"
            },
            {
              "internalType": "uint256",
              "name": "",
              "type": "uint256"
            }
          ],
          "name": "userRounds",
          "outputs": [
            {
              "internalType": "uint256",
              "name": "",
              "type": "uint256"
            }
          ],
          "stateMutability": "view",
          "type": "function"
        }
      ],
      "evm": {
        "bytecode": {
          "linkReferences": {},
          "object": "60a06040526002805461ffff60a01b191690553480156200001f57600080fd5b5060405162004e6138038062004e61833981016040819052620000429162000171565b6200004d3362000121565b6000805460ff60a01b19169055600180556103e8811115620000b55760405162461bcd60e51b815260206004820152601560248201527f54726561737572792066656520746f6f20686967680000000000000000000000604482015260640160405180910390fd5b60609890981b6001600160601b031916608052600280546001600160a01b03199081166001600160a01b03998a161790915560038054821697891697909717909655600480549096169490961693909317909355600655600591909155600755600c5560085562000224565b600080546001600160a01b038381166001600160a01b0319831681178455604051919092169283917f8be0079c531659141344cd1fd0a4f28419497f9722a3daafe3b4186f6b6457e09190a35050565b60008060008060008060008060006101208a8c03121562000190578485fd5b89516200019d816200020b565b60208b0151909950620001b0816200020b565b60408b0151909850620001c3816200020b565b60608b0151909750620001d6816200020b565b8096505060808a0151945060a08a0151935060c08a0151925060e08a015191506101008a015190509295985092959850929598565b6001600160a01b03811681146200022157600080fd5b50565b60805160601c614bfb620002666000396000818161073c0152818161083301528181610b8701528181610f7f01528181611aeb0152612d250152614bfb6000f3fe608060405234801561001057600080fd5b50600436106102e85760003560e01c80637d1cd04f11610191578063cf2f5039116100e3578063f2b3c80911610097578063fa968eea11610071578063fa968eea1461072e578063fc0c546a14610737578063fc6f94681461075e57600080fd5b8063f2b3c809146106ec578063f2fde38b146106f5578063f7fdec281461070857600080fd5b8063dd1f7596116100c8578063dd1f7596146106c7578063eaba2361146106da578063ec324703146106e357600080fd5b8063cf2f5039146106ac578063d9d55eac146106bf57600080fd5b80638da5cb5b11610145578063b29a81401161011f578063b29a81401461067d578063b3ab15fb14610690578063cc32d176146106a357600080fd5b80638da5cb5b1461062a578063951fd60014610648578063a0c7f71c1461066a57600080fd5b80638456cb59116101765780638456cb5914610527578063890dc7661461052f5780638c65c81f1461054257600080fd5b80637d1cd04f146104fe5780637dc0d1d01461050757600080fd5b8063605540111161024a5780637285c58b116101fe5780637adbf973116101d85780637adbf973146104d05780637b3205f5146104e35780637bf41254146104eb57600080fd5b80637285c58b1461046657806376671808146104b457806377e741c7146104bd57600080fd5b80636c1885931161022f5780636c18859314610438578063704b6c021461044b578063715018a61461045e57600080fd5b8063605540111461041c5780636ba4c1381461042557600080fd5b8063368acb09116102a15780633f4ba83a116102865780633f4ba83a146103e9578063452fd75a146103f15780635c975abb146103f957600080fd5b8063368acb09146103cd5780633923e1b4146103d657600080fd5b80630f74174f116102d25780630f74174f1461030a578063127effb214610344578063273867d41461038957600080fd5b80623bdc74146102ed5780630e89e5a4146102f7575b600080fd5b6102f561077e565b005b6102f56103053660046148ae565b61089b565b60025461032f9074010000000000000000000000000000000000000000900460ff1681565b60405190151581526020015b60405180910390f35b6004546103649073ffffffffffffffffffffffffffffffffffffffff1681565b60405173ffffffffffffffffffffffffffffffffffffffff909116815260200161033b565b6103bf61039736600461475f565b73ffffffffffffffffffffffffffffffffffffffff166000908152600f602052604090205490565b60405190815260200161033b565b6103bf60095481565b6102f56103e43660046148ae565b610c93565b6102f5611074565b6102f561117d565b60005474010000000000000000000000000000000000000000900460ff1661032f565b6103bf600c5481565b6102f56104333660046147db565b611310565b6102f561044636600461486b565b611b1c565b6102f561045936600461475f565b611c4b565b6102f5611d4a565b6104a5610474366004614883565b600d60209081526000928352604080842090915290825290208054600182015460029092015460ff91821692911683565b60405161033b93929190614a17565b6103bf600a5481565b6102f56104cb36600461486b565b611d5c565b6102f56104de36600461475f565b611e89565b6102f56120ab565b61032f6104f9366004614883565b6122be565b6103bf60065481565b6002546103649073ffffffffffffffffffffffffffffffffffffffff1681565b6102f5612489565b6102f561053d3660046148ae565b61256a565b6105c061055036600461486b565b600e60205260009081526040902080546001820154600283015460038401546004850154600586015460068701546007880154600889015460098a0154600a8b0154600b8c0154600c8d0154600d909d01549b9c9a9b999a98999798969795969495939492939192909160ff168e565b604080519e8f5260208f019d909d529b8d019a909a5260608c019890985260808b019690965260a08a019490945260c089019290925260e088015261010087015261012086015261014085015261016084015261018083015215156101a08201526101c00161033b565b60005473ffffffffffffffffffffffffffffffffffffffff16610364565b61065b6106563660046147a9565b6126c9565b60405161033b93929190614975565b61032f610678366004614883565b612aaa565b6102f561068b366004614780565b612d1b565b6102f561069e36600461475f565b612e74565b6103bf60085481565b6102f56106ba36600461486b565b612fe5565b6102f56130a3565b6103bf6106d5366004614780565b61331c565b6103bf60055481565b6103bf600b5481565b6103bf6103e881565b6102f561070336600461475f565b61334d565b60025461032f907501000000000000000000000000000000000000000000900460ff1681565b6103bf60075481565b6103647f000000000000000000000000000000000000000000000000000000000000000081565b6003546103649073ffffffffffffffffffffffffffffffffffffffff1681565b610786613404565b60035473ffffffffffffffffffffffffffffffffffffffff16331461080c576040517f08c379a000000000000000000000000000000000000000000000000000000000815260206004820152600960248201527f4e6f742061646d696e000000000000000000000000000000000000000000000060448201526064015b60405180910390fd5b60098054600090915560035461085c9073ffffffffffffffffffffffffffffffffffffffff7f00000000000000000000000000000000000000000000000000000000000000008116911683613478565b6040518181527fb9197c6b8e21274bd1e2d9c956a88af5cfee510f630fab3f046300f88b4223619060200160405180910390a15061089960018055565b565b6108a3613551565b6108ab613404565b333b15610914576040517f08c379a000000000000000000000000000000000000000000000000000000000815260206004820152601460248201527f436f6e7472616374206e6f7420616c6c6f7765640000000000000000000000006044820152606401610803565b33321461097d576040517f08c379a000000000000000000000000000000000000000000000000000000000815260206004820152601a60248201527f50726f787920636f6e7472616374206e6f7420616c6c6f7765640000000000006044820152606401610803565b600a5482146109e8576040517f08c379a000000000000000000000000000000000000000000000000000000000815260206004820152601560248201527f42657420697320746f6f206561726c792f6c61746500000000000000000000006044820152606401610803565b6109f1826135d6565b610a57576040517f08c379a000000000000000000000000000000000000000000000000000000000815260206004820152601260248201527f526f756e64206e6f74206265747461626c6500000000000000000000000000006044820152606401610803565b600754811015610ae9576040517f08c379a000000000000000000000000000000000000000000000000000000000815260206004820152602c60248201527f42657420616d6f756e74206d7573742062652067726561746572207468616e2060448201527f6d696e426574416d6f756e7400000000000000000000000000000000000000006064820152608401610803565b6000828152600d6020908152604080832033845290915290206001015415610b6d576040517f08c379a000000000000000000000000000000000000000000000000000000000815260206004820152601b60248201527f43616e206f6e6c7920626574206f6e63652070657220726f756e6400000000006044820152606401610803565b610baf73ffffffffffffffffffffffffffffffffffffffff7f000000000000000000000000000000000000000000000000000000000000000016333084613641565b6000828152600e602052604090206008810154829190610bd0908390614a8c565b6008820155600a810154610be5908390614a8c565b600a8201556000848152600d602090815260408083203380855290835281842080547fffffffffffffffffffffffffffffffffffffffffffffffffffffffffffffff001660019081178255808201889055600f855283862080549182018155865294849020909401889055905185815287927f0d8c1fe3e67ab767116a81f122b83c2557a8c2564019cb7c4f83de1aeb1f1f0d91015b60405180910390a3505050610c8f60018055565b5050565b610c9b613551565b610ca3613404565b333b15610d0c576040517f08c379a000000000000000000000000000000000000000000000000000000000815260206004820152601460248201527f436f6e7472616374206e6f7420616c6c6f7765640000000000000000000000006044820152606401610803565b333214610d75576040517f08c379a000000000000000000000000000000000000000000000000000000000815260206004820152601a60248201527f50726f787920636f6e7472616374206e6f7420616c6c6f7765640000000000006044820152606401610803565b600a548214610de0576040517f08c379a000000000000000000000000000000000000000000000000000000000815260206004820152601560248201527f42657420697320746f6f206561726c792f6c61746500000000000000000000006044820152606401610803565b610de9826135d6565b610e4f576040517f08c379a000000000000000000000000000000000000000000000000000000000815260206004820152601260248201527f526f756e64206e6f74206265747461626c6500000000000000000000000000006044820152606401610803565b600754811015610ee1576040517f08c379a000000000000000000000000000000000000000000000000000000000815260206004820152602c60248201527f42657420616d6f756e74206d7573742062652067726561746572207468616e2060448201527f6d696e426574416d6f756e7400000000000000000000000000000000000000006064820152608401610803565b6000828152600d6020908152604080832033845290915290206001015415610f65576040517f08c379a000000000000000000000000000000000000000000000000000000000815260206004820152601b60248201527f43616e206f6e6c7920626574206f6e63652070657220726f756e6400000000006044820152606401610803565b610fa773ffffffffffffffffffffffffffffffffffffffff7f000000000000000000000000000000000000000000000000000000000000000016333084613641565b6000828152600e602052604090206008810154829190610fc8908390614a8c565b60088201556009810154610fdd908390614a8c565b60098201556000848152600d602090815260408083203380855290835281842080547fffffffffffffffffffffffffffffffffffffffffffffffffffffffffffffff001681556001808201889055600f855283862080549182018155865294849020909401889055905185815287927f438122d8cff518d18388099a5181f0d17a12b4f1b55faedf6e4a6acee0060c129101610c7b565b61107c6136a5565b60035473ffffffffffffffffffffffffffffffffffffffff163314806110b9575060045473ffffffffffffffffffffffffffffffffffffffff1633145b61111f576040517f08c379a000000000000000000000000000000000000000000000000000000000815260206004820152601260248201527f4e6f74206f70657261746f722f61646d696e00000000000000000000000000006044820152606401610803565b600280547fffffffffffffffffffff0000ffffffffffffffffffffffffffffffffffffffff16905561114f613729565b600a546040517faaa520fdd7d2c83061d632fa017b0432407e798818af63ea908589fceda39ab790600090a2565b611185613551565b60045473ffffffffffffffffffffffffffffffffffffffff163314611206576040517f08c379a000000000000000000000000000000000000000000000000000000000815260206004820152600c60248201527f4e6f74206f70657261746f7200000000000000000000000000000000000000006044820152606401610803565b6002547501000000000000000000000000000000000000000000900460ff16156112b2576040517f08c379a000000000000000000000000000000000000000000000000000000000815260206004820152602360248201527f43616e206f6e6c792072756e2067656e657369735374617274526f756e64206f60448201527f6e636500000000000000000000000000000000000000000000000000000000006064820152608401610803565b600a546112c0906001614a8c565b600a8190556112ce906137a6565b600280547fffffffffffffffffffff00ffffffffffffffffffffffffffffffffffffffffff167501000000000000000000000000000000000000000000179055565b611318613404565b333b15611381576040517f08c379a000000000000000000000000000000000000000000000000000000000815260206004820152601460248201527f436f6e7472616374206e6f7420616c6c6f7765640000000000000000000000006044820152606401610803565b3332146113ea576040517f08c379a000000000000000000000000000000000000000000000000000000000815260206004820152601a60248201527f50726f787920636f6e7472616374206e6f7420616c6c6f7765640000000000006044820152606401610803565b6000805b82811015611aca57600e6000858584818110611433577f4e487b7100000000000000000000000000000000000000000000000000000000600052603260045260246000fd5b90506020020135815260200190815260200160002060010154600014156114b6576040517f08c379a000000000000000000000000000000000000000000000000000000000815260206004820152601560248201527f526f756e6420686173206e6f74207374617274656400000000000000000000006044820152606401610803565b600e60008585848181106114f3577f4e487b7100000000000000000000000000000000000000000000000000000000600052603260045260246000fd5b905060200201358152602001908152602001600020600301544211611574576040517f08c379a000000000000000000000000000000000000000000000000000000000815260206004820152601360248201527f526f756e6420686173206e6f7420656e646564000000000000000000000000006044820152606401610803565b6000600e60008686858181106115b3577f4e487b7100000000000000000000000000000000000000000000000000000000600052603260045260246000fd5b60209081029290920135835250810191909152604001600020600d015460ff161561184157611621858584818110611614577f4e487b7100000000000000000000000000000000000000000000000000000000600052603260045260246000fd5b9050602002013533612aaa565b611687576040517f08c379a000000000000000000000000000000000000000000000000000000000815260206004820152601660248201527f4e6f7420656c696769626c6520666f7220636c61696d000000000000000000006044820152606401610803565b6000600e60008787868181106116c6577f4e487b7100000000000000000000000000000000000000000000000000000000600052603260045260246000fd5b905060200201358152602001908152602001600020604051806101c001604052908160008201548152602001600182015481526020016002820154815260200160038201548152602001600482015481526020016005820154815260200160068201548152602001600782015481526020016008820154815260200160098201548152602001600a8201548152602001600b8201548152602001600c8201548152602001600d820160009054906101000a900460ff1615151515815250509050806101600151816101800151600d60008989888181106117cf577f4e487b7100000000000000000000000000000000000000000000000000000000600052603260045260246000fd5b90506020020135815260200190815260200160002060003373ffffffffffffffffffffffffffffffffffffffff1673ffffffffffffffffffffffffffffffffffffffff1681526020019081526020016000206001015461182f9190614add565b6118399190614aa4565b915050611986565b61188a85858481811061187d577f4e487b7100000000000000000000000000000000000000000000000000000000600052603260045260246000fd5b90506020020135336122be565b6118f0576040517f08c379a000000000000000000000000000000000000000000000000000000000815260206004820152601760248201527f4e6f7420656c696769626c6520666f7220726566756e640000000000000000006044820152606401610803565b600d600086868581811061192d577f4e487b7100000000000000000000000000000000000000000000000000000000600052603260045260246000fd5b90506020020135815260200190815260200160002060003373ffffffffffffffffffffffffffffffffffffffff1673ffffffffffffffffffffffffffffffffffffffff1681526020019081526020016000206001015490505b6001600d60008787868181106119c5577f4e487b7100000000000000000000000000000000000000000000000000000000600052603260045260246000fd5b602090810292909201358352508181019290925260409081016000908120338252909252902060020180547fffffffffffffffffffffffffffffffffffffffffffffffffffffffffffffff0016911515919091179055611a258184614a8c565b9250848483818110611a60577f4e487b7100000000000000000000000000000000000000000000000000000000600052603260045260246000fd5b905060200201353373ffffffffffffffffffffffffffffffffffffffff167f34fcbac0073d7c3d388e51312faf357774904998eeb8fca628b9e6f65ee1cbf783604051611aaf91815260200190565b60405180910390a35080611ac281614b5d565b9150506113ee565b508015611b1257611b1273ffffffffffffffffffffffffffffffffffffffff7f0000000000000000000000000000000000000000000000000000000000000000163383613478565b50610c8f60018055565b611b246136a5565b60035473ffffffffffffffffffffffffffffffffffffffff163314611ba5576040517f08c379a000000000000000000000000000000000000000000000000000000000815260206004820152600960248201527f4e6f742061646d696e00000000000000000000000000000000000000000000006044820152606401610803565b80611c0c576040517f08c379a000000000000000000000000000000000000000000000000000000000815260206004820152601560248201527f4d757374206265207375706572696f7220746f203000000000000000000000006044820152606401610803565b6007819055600a546040518281527f90eb87c560a0213754ceb3a7fa3012f01acab0a35602c1e1995adf69dabc9d50906020015b60405180910390a250565b611c53613824565b73ffffffffffffffffffffffffffffffffffffffff8116611cd0576040517f08c379a000000000000000000000000000000000000000000000000000000000815260206004820152601660248201527f43616e6e6f74206265207a65726f2061646472657373000000000000000000006044820152606401610803565b600380547fffffffffffffffffffffffff00000000000000000000000000000000000000001673ffffffffffffffffffffffffffffffffffffffff83169081179091556040519081527f137b621413925496477d46e5055ac0d56178bdd724ba8bf843afceef18268ba3906020015b60405180910390a150565b611d52613824565b61089960006138a5565b611d646136a5565b60035473ffffffffffffffffffffffffffffffffffffffff163314611de5576040517f08c379a000000000000000000000000000000000000000000000000000000000815260206004820152600960248201527f4e6f742061646d696e00000000000000000000000000000000000000000000006044820152606401610803565b6103e8811115611e51576040517f08c379a000000000000000000000000000000000000000000000000000000000815260206004820152601560248201527f54726561737572792066656520746f6f206869676800000000000000000000006044820152606401610803565b6008819055600a546040518281527fb1c4ee38d35556741133da7ff9b6f7ab0fa88d0406133126ff128f635490a85790602001611c40565b611e916136a5565b60035473ffffffffffffffffffffffffffffffffffffffff163314611f12576040517f08c379a000000000000000000000000000000000000000000000000000000000815260206004820152600960248201527f4e6f742061646d696e00000000000000000000000000000000000000000000006044820152606401610803565b73ffffffffffffffffffffffffffffffffffffffff8116611f8f576040517f08c379a000000000000000000000000000000000000000000000000000000000815260206004820152601660248201527f43616e6e6f74206265207a65726f2061646472657373000000000000000000006044820152606401610803565b6000600b55600280547fffffffffffffffffffffffff00000000000000000000000000000000000000001673ffffffffffffffffffffffffffffffffffffffff8316908117909155604080517ffeaf968c000000000000000000000000000000000000000000000000000000008152905163feaf968c9160048082019260a092909190829003018186803b15801561202657600080fd5b505afa15801561203a573d6000803e3d6000fd5b505050506040513d601f19601f8201168201806040525081019061205e91906148cf565b505060405173ffffffffffffffffffffffffffffffffffffffff851681527fb3eacd0e351fafdfefdec84e1cd19679b38dbcd63ea7c2c24da17fd2bc3b3c0e93506020019150611d3f9050565b6120b3613551565b60045473ffffffffffffffffffffffffffffffffffffffff163314612134576040517f08c379a000000000000000000000000000000000000000000000000000000000815260206004820152600c60248201527f4e6f74206f70657261746f7200000000000000000000000000000000000000006044820152606401610803565b6002547501000000000000000000000000000000000000000000900460ff168015612179575060025474010000000000000000000000000000000000000000900460ff165b61222b576040517f08c379a000000000000000000000000000000000000000000000000000000000815260206004820152604660248201527f43616e206f6e6c792072756e2061667465722067656e6573697353746172745260448201527f6f756e6420616e642067656e657369734c6f636b526f756e642069732074726960648201527f6767657265640000000000000000000000000000000000000000000000000000608482015260a401610803565b60008061223661391a565b915091508169ffffffffffffffffffff16600b81905550612266600a548369ffffffffffffffffffff1683613b14565b61228b6001600a546122789190614b1a565b8369ffffffffffffffffffff1683613d6d565b6122a26001600a5461229d9190614b1a565b613fda565b600a546122b0906001614a8c565b600a819055610c8f9061417d565b6000828152600d6020908152604080832073ffffffffffffffffffffffffffffffffffffffff85168452909152808220815160608101909252805483929190829060ff16600181111561233a577f4e487b7100000000000000000000000000000000000000000000000000000000600052602160045260246000fd5b6001811115612372577f4e487b7100000000000000000000000000000000000000000000000000000000600052602160045260246000fd5b815260018281015460208084019190915260029384015460ff908116151560409485015260008a8152600e835284902084516101c08101865281548152938101549284019290925293810154928201929092526003820154606082015260048201546080820152600582015460a0820152600682015460c0820152600782015460e082015260088201546101008201526009820154610120820152600a820154610140820152600b820154610160820152600c820154610180820152600d909101549091161580156101a08301819052929350909161245357508160400151155b801561246f5750600554816060015161246c9190614a8c565b42115b801561247e5750602082015115155b925050505b92915050565b612491613551565b60035473ffffffffffffffffffffffffffffffffffffffff163314806124ce575060045473ffffffffffffffffffffffffffffffffffffffff1633145b612534576040517f08c379a000000000000000000000000000000000000000000000000000000000815260206004820152601260248201527f4e6f74206f70657261746f722f61646d696e00000000000000000000000000006044820152606401610803565b61253c614392565b600a546040517f68b095021b1f40fe513109f513c66692f0b3219aee674a69f4efc57badb8201d90600090a2565b6125726136a5565b60035473ffffffffffffffffffffffffffffffffffffffff1633146125f3576040517f08c379a000000000000000000000000000000000000000000000000000000000815260206004820152600960248201527f4e6f742061646d696e00000000000000000000000000000000000000000000006044820152606401610803565b808210612682576040517f08c379a000000000000000000000000000000000000000000000000000000000815260206004820152603160248201527f6275666665725365636f6e6473206d75737420626520696e666572696f72207460448201527f6f20696e74657276616c5365636f6e64730000000000000000000000000000006064820152608401610803565b6005829055600681905560408051838152602081018390527fe60149e0431fec12df63dfab5fce2a9cefe9a4d3df5f41cb626f579ae1f2b91a910160405180910390a15050565b73ffffffffffffffffffffffffffffffffffffffff83166000908152600f602052604081205460609182918490612701908790614b1a565b81111561273c5773ffffffffffffffffffffffffffffffffffffffff87166000908152600f6020526040902054612739908790614b1a565b90505b60008167ffffffffffffffff81111561277e577f4e487b7100000000000000000000000000000000000000000000000000000000600052604160045260246000fd5b6040519080825280602002602001820160405280156127a7578160200160208202803683370190505b50905060008267ffffffffffffffff8111156127ec577f4e487b7100000000000000000000000000000000000000000000000000000000600052604160045260246000fd5b60405190808252806020026020018201604052801561285557816020015b60408051606081018252600080825260208083018290529282015282527fffffffffffffffffffffffffffffffffffffffffffffffffffffffffffffffff90920191018161280a5790505b50905060005b83811015612a8b5773ffffffffffffffffffffffffffffffffffffffff8a166000908152600f60205260409020612892828b614a8c565b815481106128c9577f4e487b7100000000000000000000000000000000000000000000000000000000600052603260045260246000fd5b906000526020600020015483828151811061290d577f4e487b7100000000000000000000000000000000000000000000000000000000600052603260045260246000fd5b602002602001018181525050600d6000848381518110612956577f4e487b7100000000000000000000000000000000000000000000000000000000600052603260045260246000fd5b6020908102919091018101518252818101929092526040908101600090812073ffffffffffffffffffffffffffffffffffffffff8e168252909252908190208151606081019092528054829060ff1660018111156129dd577f4e487b7100000000000000000000000000000000000000000000000000000000600052602160045260246000fd5b6001811115612a15577f4e487b7100000000000000000000000000000000000000000000000000000000600052602160045260246000fd5b81526001820154602082015260029091015460ff1615156040909101528251839083908110612a6d577f4e487b7100000000000000000000000000000000000000000000000000000000600052603260045260246000fd5b60200260200101819052508080612a8390614b5d565b91505061285b565b508181612a98858b614a8c565b95509550955050505093509350939050565b6000828152600d6020908152604080832073ffffffffffffffffffffffffffffffffffffffff85168452909152808220815160608101909252805483929190829060ff166001811115612b26577f4e487b7100000000000000000000000000000000000000000000000000000000600052602160045260246000fd5b6001811115612b5e577f4e487b7100000000000000000000000000000000000000000000000000000000600052602160045260246000fd5b815260018281015460208084019190915260029384015460ff908116151560409485015260008a8152600e835284902084516101c081018652815481529381015492840192909252938101549282019290925260038201546060820152600482015460808201819052600583015460a08301819052600684015460c0840152600784015460e084015260088401546101008401526009840154610120840152600a840154610140840152600b840154610160840152600c840154610180840152600d9093015490931615156101a08201529293501415612c4357600092505050612483565b806101a001518015612c585750602082015115155b8015612c6657508160400151155b801561247e575080608001518160a00151138015612cbd5750600082516001811115612cbb577f4e487b7100000000000000000000000000000000000000000000000000000000600052602160045260246000fd5b145b8061247e575080608001518160a0015112801561247e5750600182516001811115612d11577f4e487b7100000000000000000000000000000000000000000000000000000000600052602160045260246000fd5b1495945050505050565b612d23613824565b7f000000000000000000000000000000000000000000000000000000000000000073ffffffffffffffffffffffffffffffffffffffff168273ffffffffffffffffffffffffffffffffffffffff161415612dff576040517f08c379a000000000000000000000000000000000000000000000000000000000815260206004820152602260248201527f43616e6e6f742062652070726564696374696f6e20746f6b656e20616464726560448201527f73730000000000000000000000000000000000000000000000000000000000006064820152608401610803565b612e2073ffffffffffffffffffffffffffffffffffffffff83163383613478565b8173ffffffffffffffffffffffffffffffffffffffff167f14f11966a996e0629572e51064726d2057a80fbd34efc066682c06a71dbb6e9882604051612e6891815260200190565b60405180910390a25050565b60035473ffffffffffffffffffffffffffffffffffffffff163314612ef5576040517f08c379a000000000000000000000000000000000000000000000000000000000815260206004820152600960248201527f4e6f742061646d696e00000000000000000000000000000000000000000000006044820152606401610803565b73ffffffffffffffffffffffffffffffffffffffff8116612f72576040517f08c379a000000000000000000000000000000000000000000000000000000000815260206004820152601660248201527f43616e6e6f74206265207a65726f2061646472657373000000000000000000006044820152606401610803565b600480547fffffffffffffffffffffffff00000000000000000000000000000000000000001673ffffffffffffffffffffffffffffffffffffffff83169081179091556040519081527fc47d127c07bdd56c5ccba00463ce3bd3c1bca71b4670eea6e5d0c02e4aa156e290602001611d3f565b612fed6136a5565b60035473ffffffffffffffffffffffffffffffffffffffff16331461306e576040517f08c379a000000000000000000000000000000000000000000000000000000000815260206004820152600960248201527f4e6f742061646d696e00000000000000000000000000000000000000000000006044820152606401610803565b600c8190556040518181527f93ccaceac092ffb842c46b8718667a13a80e9058dcd0bd403d0b47215b30da0790602001611d3f565b6130ab613551565b60045473ffffffffffffffffffffffffffffffffffffffff16331461312c576040517f08c379a000000000000000000000000000000000000000000000000000000000815260206004820152600c60248201527f4e6f74206f70657261746f7200000000000000000000000000000000000000006044820152606401610803565b6002547501000000000000000000000000000000000000000000900460ff166131d7576040517f08c379a000000000000000000000000000000000000000000000000000000000815260206004820152603160248201527f43616e206f6e6c792072756e2061667465722067656e6573697353746172745260448201527f6f756e64206973207472696767657265640000000000000000000000000000006064820152608401610803565b60025474010000000000000000000000000000000000000000900460ff1615613282576040517f08c379a000000000000000000000000000000000000000000000000000000000815260206004820152602260248201527f43616e206f6e6c792072756e2067656e657369734c6f636b526f756e64206f6e60448201527f63650000000000000000000000000000000000000000000000000000000000006064820152608401610803565b60008061328d61391a565b915091508169ffffffffffffffffffff16600b819055506132bd600a548369ffffffffffffffffffff1683613b14565b600a546132cb906001614a8c565b600a8190556132d9906137a6565b5050600280547fffffffffffffffffffffff00ffffffffffffffffffffffffffffffffffffffff1674010000000000000000000000000000000000000000179055565b600f602052816000526040600020818154811061333857600080fd5b90600052602060002001600091509150505481565b613355613824565b73ffffffffffffffffffffffffffffffffffffffff81166133f8576040517f08c379a000000000000000000000000000000000000000000000000000000000815260206004820152602660248201527f4f776e61626c653a206e6577206f776e657220697320746865207a65726f206160448201527f64647265737300000000000000000000000000000000000000000000000000006064820152608401610803565b613401816138a5565b50565b60026001541415613471576040517f08c379a000000000000000000000000000000000000000000000000000000000815260206004820152601f60248201527f5265656e7472616e637947756172643a207265656e7472616e742063616c6c006044820152606401610803565b6002600155565b60405173ffffffffffffffffffffffffffffffffffffffff831660248201526044810182905261354c9084907fa9059cbb00000000000000000000000000000000000000000000000000000000906064015b604080517fffffffffffffffffffffffffffffffffffffffffffffffffffffffffffffffe08184030181529190526020810180517bffffffffffffffffffffffffffffffffffffffffffffffffffffffff167fffffffff0000000000000000000000000000000000000000000000000000000090931692909217909152614401565b505050565b60005474010000000000000000000000000000000000000000900460ff1615610899576040517f08c379a000000000000000000000000000000000000000000000000000000000815260206004820152601060248201527f5061757361626c653a20706175736564000000000000000000000000000000006044820152606401610803565b6000818152600e60205260408120600101541580159061360657506000828152600e602052604090206002015415155b801561362257506000828152600e602052604090206001015442115b80156124835750506000908152600e6020526040902060020154421090565b60405173ffffffffffffffffffffffffffffffffffffffff8085166024830152831660448201526064810182905261369f9085907f23b872dd00000000000000000000000000000000000000000000000000000000906084016134ca565b50505050565b60005474010000000000000000000000000000000000000000900460ff16610899576040517f08c379a000000000000000000000000000000000000000000000000000000000815260206004820152601460248201527f5061757361626c653a206e6f74207061757365640000000000000000000000006044820152606401610803565b6137316136a5565b600080547fffffffffffffffffffffff00ffffffffffffffffffffffffffffffffffffffff1690557f5db9ee0a495bf2e6ff9c91a7834c1ba4fdd244a5e8aa4e537bd38aeae4b073aa335b60405173ffffffffffffffffffffffffffffffffffffffff909116815260200160405180910390a1565b6000818152600e6020526040902042600182018190556006546137c891614a8c565b6002808301919091556006546137dd91614add565b6137e79042614a8c565b600382015581815560006008820181905560405183917f939f42374aa9bf1d8d8cd56d8a9110cb040cd8dfeae44080c6fcf2645e51b45291a25050565b60005473ffffffffffffffffffffffffffffffffffffffff163314610899576040517f08c379a000000000000000000000000000000000000000000000000000000000815260206004820181905260248201527f4f776e61626c653a2063616c6c6572206973206e6f7420746865206f776e65726044820152606401610803565b6000805473ffffffffffffffffffffffffffffffffffffffff8381167fffffffffffffffffffffffff0000000000000000000000000000000000000000831681178455604051919092169283917f8be0079c531659141344cd1fd0a4f28419497f9722a3daafe3b4186f6b6457e09190a35050565b6000806000600c544261392d9190614a8c565b90506000806000600260009054906101000a900473ffffffffffffffffffffffffffffffffffffffff1673ffffffffffffffffffffffffffffffffffffffff1663feaf968c6040518163ffffffff1660e01b815260040160a06040518083038186803b15801561399c57600080fd5b505afa1580156139b0573d6000803e3d6000fd5b505050506040513d601f19601f820116820180604052508101906139d491906148cf565b509350509250925083811115613a6c576040517f08c379a000000000000000000000000000000000000000000000000000000000815260206004820152602e60248201527f4f7261636c6520757064617465206578636565646564206d61782074696d657360448201527f74616d7020616c6c6f77616e63650000000000000000000000000000000000006064820152608401610803565b600b548369ffffffffffffffffffff1611613b09576040517f08c379a000000000000000000000000000000000000000000000000000000000815260206004820152603d60248201527f4f7261636c652075706461746520726f756e644964206d757374206265206c6160448201527f72676572207468616e206f7261636c654c6174657374526f756e6449640000006064820152608401610803565b509094909350915050565b6000838152600e6020526040902060010154613bb2576040517f08c379a000000000000000000000000000000000000000000000000000000000815260206004820152602b60248201527f43616e206f6e6c79206c6f636b20726f756e6420616674657220726f756e642060448201527f68617320737461727465640000000000000000000000000000000000000000006064820152608401610803565b6000838152600e6020526040902060020154421015613c53576040517f08c379a000000000000000000000000000000000000000000000000000000000815260206004820152602760248201527f43616e206f6e6c79206c6f636b20726f756e64206166746572206c6f636b546960448201527f6d657374616d70000000000000000000000000000000000000000000000000006064820152608401610803565b6005546000848152600e6020526040902060020154613c729190614a8c565b421115613d01576040517f08c379a000000000000000000000000000000000000000000000000000000000815260206004820152602860248201527f43616e206f6e6c79206c6f636b20726f756e642077697468696e20627566666560448201527f725365636f6e64730000000000000000000000000000000000000000000000006064820152608401610803565b6000838152600e60205260409020600654613d1c9042614a8c565b60038201556004810182905560068101839055604051828152839085907f482e76a65b448a42deef26e99e58fb20c85e26f075defff8df6aa80459b39006906020015b60405180910390a350505050565b6000838152600e6020526040902060020154613e0b576040517f08c379a000000000000000000000000000000000000000000000000000000000815260206004820152602960248201527f43616e206f6e6c7920656e6420726f756e6420616674657220726f756e64206860448201527f6173206c6f636b656400000000000000000000000000000000000000000000006064820152608401610803565b6000838152600e6020526040902060030154421015613eac576040517f08c379a000000000000000000000000000000000000000000000000000000000815260206004820152602760248201527f43616e206f6e6c7920656e6420726f756e6420616674657220636c6f7365546960448201527f6d657374616d70000000000000000000000000000000000000000000000000006064820152608401610803565b6005546000848152600e6020526040902060030154613ecb9190614a8c565b421115613f5a576040517f08c379a000000000000000000000000000000000000000000000000000000000815260206004820152602760248201527f43616e206f6e6c7920656e6420726f756e642077697468696e2062756666657260448201527f5365636f6e6473000000000000000000000000000000000000000000000000006064820152608401610803565b6000838152600e6020526040908190206005810183905560078101849055600d810180547fffffffffffffffffffffffffffffffffffffffffffffffffffffffffffffff001660011790559051839085907fb6ff1fe915db84788cbbbc017f0d2bef9485fad9fd0bd8ce9340fde0d8410dd890613d5f9086815260200190565b6000818152600e60205260409020600b015415801561400857506000818152600e60205260409020600c0154155b61406e576040517f08c379a000000000000000000000000000000000000000000000000000000000815260206004820152601260248201527f526577617264732063616c63756c6174656400000000000000000000000000006044820152606401610803565b6000818152600e60205260408120600481015460058201549192918291829113156140d2578360090154925061271060085485600801546140af9190614add565b6140b99190614aa4565b91508184600801546140cb9190614b1a565b905061410b565b8360040154846005015412156140fe5783600a0154925061271060085485600801546140af9190614add565b5050506008810154600090815b600b8401839055600c84018190556009805483919060009061412e908490614a8c565b9091555050604080518481526020810183905290810183905285907f6dfdfcb09c8804d0058826cd2539f1acfbe3cb887c9be03d928035bce0f1a58d9060600160405180910390a25050505050565b6002547501000000000000000000000000000000000000000000900460ff16614228576040517f08c379a000000000000000000000000000000000000000000000000000000000815260206004820152603160248201527f43616e206f6e6c792072756e2061667465722067656e6573697353746172745260448201527f6f756e64206973207472696767657265640000000000000000000000000000006064820152608401610803565b600e6000614237600284614b1a565b815260200190815260200160002060030154600014156142d9576040517f08c379a000000000000000000000000000000000000000000000000000000000815260206004820152602e60248201527f43616e206f6e6c7920737461727420726f756e6420616674657220726f756e6460448201527f206e2d322068617320656e6465640000000000000000000000000000000000006064820152608401610803565b600e60006142e8600284614b1a565b815260200190815260200160002060030154421015614389576040517f08c379a000000000000000000000000000000000000000000000000000000000815260206004820152603760248201527f43616e206f6e6c79207374617274206e657720726f756e64206166746572207260448201527f6f756e64206e2d3220636c6f736554696d657374616d700000000000000000006064820152608401610803565b613401816137a6565b61439a613551565b600080547fffffffffffffffffffffff00ffffffffffffffffffffffffffffffffffffffff16740100000000000000000000000000000000000000001790557f62e78cea01bee320cd4e420270b5ea74000d11b0c9f74754ebdbfc544b05a25861377c3390565b6000614463826040518060400160405280602081526020017f5361666545524332303a206c6f772d6c6576656c2063616c6c206661696c65648152508573ffffffffffffffffffffffffffffffffffffffff166145109092919063ffffffff16565b9050805160001480614484575080806020019051810190614484919061484b565b61354c576040517f08c379a000000000000000000000000000000000000000000000000000000000815260206004820152602a60248201527f5361666545524332303a204552433230206f7065726174696f6e20646964206e60448201527f6f742073756363656564000000000000000000000000000000000000000000006064820152608401610803565b606061451f8484600085614527565b949350505050565b6060824710156145b9576040517f08c379a000000000000000000000000000000000000000000000000000000000815260206004820152602660248201527f416464726573733a20696e73756666696369656e742062616c616e636520666f60448201527f722063616c6c00000000000000000000000000000000000000000000000000006064820152608401610803565b6000808673ffffffffffffffffffffffffffffffffffffffff1685876040516145e29190614959565b60006040518083038185875af1925050503d806000811461461f576040519150601f19603f3d011682016040523d82523d6000602084013e614624565b606091505b509150915061463587838387614640565b979650505050505050565b606083156146d35782516146cc5773ffffffffffffffffffffffffffffffffffffffff85163b6146cc576040517f08c379a000000000000000000000000000000000000000000000000000000000815260206004820152601d60248201527f416464726573733a2063616c6c20746f206e6f6e2d636f6e74726163740000006044820152606401610803565b508161451f565b61451f83838151156146e85781518083602001fd5b806040517f08c379a00000000000000000000000000000000000000000000000000000000081526004016108039190614a3b565b803573ffffffffffffffffffffffffffffffffffffffff8116811461474057600080fd5b919050565b805169ffffffffffffffffffff8116811461474057600080fd5b600060208284031215614770578081fd5b6147798261471c565b9392505050565b60008060408385031215614792578081fd5b61479b8361471c565b946020939093013593505050565b6000806000606084860312156147bd578081fd5b6147c68461471c565b95602085013595506040909401359392505050565b600080602083850312156147ed578182fd5b823567ffffffffffffffff80821115614804578384fd5b818501915085601f830112614817578384fd5b813581811115614825578485fd5b8660208260051b8501011115614839578485fd5b60209290920196919550909350505050565b60006020828403121561485c578081fd5b81518015158114614779578182fd5b60006020828403121561487c578081fd5b5035919050565b60008060408385031215614895578182fd5b823591506148a56020840161471c565b90509250929050565b600080604083850312156148c0578182fd5b50508035926020909101359150565b600080600080600060a086880312156148e6578081fd5b6148ef86614745565b945060208601519350604086015192506060860151915061491260808701614745565b90509295509295909350565b60028110614955577f4e487b7100000000000000000000000000000000000000000000000000000000600052602160045260246000fd5b9052565b6000825161496b818460208701614b31565b9190910192915050565b60608082528451828201819052600091906020906080850190828901855b828110156149af57815184529284019290840190600101614993565b50505084810382860152865180825287830191830190855b81811015614a005783516149dc84825161491e565b808601518487015260409081015115159084015292840192918501916001016149c7565b505080945050505050826040830152949350505050565b60608101614a25828661491e565b8360208301528215156040830152949350505050565b6020815260008251806020840152614a5a816040850160208701614b31565b601f017fffffffffffffffffffffffffffffffffffffffffffffffffffffffffffffffe0169190910160400192915050565b60008219821115614a9f57614a9f614b96565b500190565b600082614ad8577f4e487b710000000000000000000000000000000000000000000000000000000081526012600452602481fd5b500490565b6000817fffffffffffffffffffffffffffffffffffffffffffffffffffffffffffffffff0483118215151615614b1557614b15614b96565b500290565b600082821015614b2c57614b2c614b96565b500390565b60005b83811015614b4c578181015183820152602001614b34565b8381111561369f5750506000910152565b60007fffffffffffffffffffffffffffffffffffffffffffffffffffffffffffffffff821415614b8f57614b8f614b96565b5060010190565b7f4e487b7100000000000000000000000000000000000000000000000000000000600052601160045260246000fdfea26469706673582212205e54ef0d9c893cd6276109a852b83c5542140bc059c991c96e90f408158f665364736f6c63430008040033",
          "opcodes": "PUSH1 0xA0 PUSH1 0x40 MSTORE PUSH1 0x2 DUP1 SLOAD PUSH2 0xFFFF PUSH1 0xA0 SHL NOT AND SWAP1 SSTORE CALLVALUE DUP1 ISZERO PUSH3 0x1F JUMPI PUSH1 0x0 DUP1 REVERT JUMPDEST POP PUSH1 0x40 MLOAD PUSH3 0x4E61 CODESIZE SUB DUP1 PUSH3 0x4E61 DUP4 CODECOPY DUP2 ADD PUSH1 0x40 DUP2 SWAP1 MSTORE PUSH3 0x42 SWAP2 PUSH3 0x171 JUMP JUMPDEST PUSH3 0x4D CALLER PUSH3 0x121 JUMP JUMPDEST PUSH1 0x0 DUP1 SLOAD PUSH1 0xFF PUSH1 0xA0 SHL NOT AND SWAP1 SSTORE PUSH1 0x1 DUP1 SSTORE PUSH2 0x3E8 DUP2 GT ISZERO PUSH3 0xB5 JUMPI PUSH1 0x40 MLOAD PUSH3 0x461BCD PUSH1 0xE5 SHL DUP2 MSTORE PUSH1 0x20 PUSH1 0x4 DUP3 ADD MSTORE PUSH1 0x15 PUSH1 0x24 DUP3 ADD MSTORE PUSH32 0x54726561737572792066656520746F6F20686967680000000000000000000000 PUSH1 0x44 DUP3 ADD MSTORE PUSH1 0x64 ADD PUSH1 0x40 MLOAD DUP1 SWAP2 SUB SWAP1 REVERT JUMPDEST PUSH1 0x60 SWAP9 SWAP1 SWAP9 SHL PUSH1 0x1 PUSH1 0x1 PUSH1 0x60 SHL SUB NOT AND PUSH1 0x80 MSTORE PUSH1 0x2 DUP1 SLOAD PUSH1 0x1 PUSH1 0x1 PUSH1 0xA0 SHL SUB NOT SWAP1 DUP2 AND PUSH1 0x1 PUSH1 0x1 PUSH1 0xA0 SHL SUB SWAP10 DUP11 AND OR SWAP1 SWAP2 SSTORE PUSH1 0x3 DUP1 SLOAD DUP3 AND SWAP8 DUP10 AND SWAP8 SWAP1 SWAP8 OR SWAP1 SWAP7 SSTORE PUSH1 0x4 DUP1 SLOAD SWAP1 SWAP7 AND SWAP5 SWAP1 SWAP7 AND SWAP4 SWAP1 SWAP4 OR SWAP1 SWAP4 SSTORE PUSH1 0x6 SSTORE PUSH1 0x5 SWAP2 SWAP1 SWAP2 SSTORE PUSH1 0x7 SSTORE PUSH1 0xC SSTORE PUSH1 0x8 SSTORE PUSH3 0x224 JUMP JUMPDEST PUSH1 0x0 DUP1 SLOAD PUSH1 0x1 PUSH1 0x1 PUSH1 0xA0 SHL SUB DUP4 DUP2 AND PUSH1 0x1 PUSH1 0x1 PUSH1 0xA0 SHL SUB NOT DUP4 AND DUP2 OR DUP5 SSTORE PUSH1 0x40 MLOAD SWAP2 SWAP1 SWAP3 AND SWAP3 DUP4 SWAP2 PUSH32 0x8BE0079C531659141344CD1FD0A4F28419497F9722A3DAAFE3B4186F6B6457E0 SWAP2 SWAP1 LOG3 POP POP JUMP JUMPDEST PUSH1 0x0 DUP1 PUSH1 0x0 DUP1 PUSH1 0x0 DUP1 PUSH1 0x0 DUP1 PUSH1 0x0 PUSH2 0x120 DUP11 DUP13 SUB SLT ISZERO PUSH3 0x190 JUMPI DUP5 DUP6 REVERT JUMPDEST DUP10 MLOAD PUSH3 0x19D DUP2 PUSH3 0x20B JUMP JUMPDEST PUSH1 0x20 DUP12 ADD MLOAD SWAP1 SWAP10 POP PUSH3 0x1B0 DUP2 PUSH3 0x20B JUMP JUMPDEST PUSH1 0x40 DUP12 ADD MLOAD SWAP1 SWAP9 POP PUSH3 0x1C3 DUP2 PUSH3 0x20B JUMP JUMPDEST PUSH1 0x60 DUP12 ADD MLOAD SWAP1 SWAP8 POP PUSH3 0x1D6 DUP2 PUSH3 0x20B JUMP JUMPDEST DUP1 SWAP7 POP POP PUSH1 0x80 DUP11 ADD MLOAD SWAP5 POP PUSH1 0xA0 DUP11 ADD MLOAD SWAP4 POP PUSH1 0xC0 DUP11 ADD MLOAD SWAP3 POP PUSH1 0xE0 DUP11 ADD MLOAD SWAP2 POP PUSH2 0x100 DUP11 ADD MLOAD SWAP1 POP SWAP3 SWAP6 SWAP9 POP SWAP3 SWAP6 SWAP9 POP SWAP3 SWAP6 SWAP9 JUMP JUMPDEST PUSH1 0x1 PUSH1 0x1 PUSH1 0xA0 SHL SUB DUP2 AND DUP2 EQ PUSH3 0x221 JUMPI PUSH1 0x0 DUP1 REVERT JUMPDEST POP JUMP JUMPDEST PUSH1 0x80 MLOAD PUSH1 0x60 SHR PUSH2 0x4BFB PUSH3 0x266 PUSH1 0x0 CODECOPY PUSH1 0x0 DUP2 DUP2 PUSH2 0x73C ADD MSTORE DUP2 DUP2 PUSH2 0x833 ADD MSTORE DUP2 DUP2 PUSH2 0xB87 ADD MSTORE DUP2 DUP2 PUSH2 0xF7F ADD MSTORE DUP2 DUP2 PUSH2 0x1AEB ADD MSTORE PUSH2 0x2D25 ADD MSTORE PUSH2 0x4BFB PUSH1 0x0 RETURN INVALID PUSH1 0x80 PUSH1 0x40 MSTORE CALLVALUE DUP1 ISZERO PUSH2 0x10 JUMPI PUSH1 0x0 DUP1 REVERT JUMPDEST POP PUSH1 0x4 CALLDATASIZE LT PUSH2 0x2E8 JUMPI PUSH1 0x0 CALLDATALOAD PUSH1 0xE0 SHR DUP1 PUSH4 0x7D1CD04F GT PUSH2 0x191 JUMPI DUP1 PUSH4 0xCF2F5039 GT PUSH2 0xE3 JUMPI DUP1 PUSH4 0xF2B3C809 GT PUSH2 0x97 JUMPI DUP1 PUSH4 0xFA968EEA GT PUSH2 0x71 JUMPI DUP1 PUSH4 0xFA968EEA EQ PUSH2 0x72E JUMPI DUP1 PUSH4 0xFC0C546A EQ PUSH2 0x737 JUMPI DUP1 PUSH4 0xFC6F9468 EQ PUSH2 0x75E JUMPI PUSH1 0x0 DUP1 REVERT JUMPDEST DUP1 PUSH4 0xF2B3C809 EQ PUSH2 0x6EC JUMPI DUP1 PUSH4 0xF2FDE38B EQ PUSH2 0x6F5 JUMPI DUP1 PUSH4 0xF7FDEC28 EQ PUSH2 0x708 JUMPI PUSH1 0x0 DUP1 REVERT JUMPDEST DUP1 PUSH4 0xDD1F7596 GT PUSH2 0xC8 JUMPI DUP1 PUSH4 0xDD1F7596 EQ PUSH2 0x6C7 JUMPI DUP1 PUSH4 0xEABA2361 EQ PUSH2 0x6DA JUMPI DUP1 PUSH4 0xEC324703 EQ PUSH2 0x6E3 JUMPI PUSH1 0x0 DUP1 REVERT JUMPDEST DUP1 PUSH4 0xCF2F5039 EQ PUSH2 0x6AC JUMPI DUP1 PUSH4 0xD9D55EAC EQ PUSH2 0x6BF JUMPI PUSH1 0x0 DUP1 REVERT JUMPDEST DUP1 PUSH4 0x8DA5CB5B GT PUSH2 0x145 JUMPI DUP1 PUSH4 0xB29A8140 GT PUSH2 0x11F JUMPI DUP1 PUSH4 0xB29A8140 EQ PUSH2 0x67D JUMPI DUP1 PUSH4 0xB3AB15FB EQ PUSH2 0x690 JUMPI DUP1 PUSH4 0xCC32D176 EQ PUSH2 0x6A3 JUMPI PUSH1 0x0 DUP1 REVERT JUMPDEST DUP1 PUSH4 0x8DA5CB5B EQ PUSH2 0x62A JUMPI DUP1 PUSH4 0x951FD600 EQ PUSH2 0x648 JUMPI DUP1 PUSH4 0xA0C7F71C EQ PUSH2 0x66A JUMPI PUSH1 0x0 DUP1 REVERT JUMPDEST DUP1 PUSH4 0x8456CB59 GT PUSH2 0x176 JUMPI DUP1 PUSH4 0x8456CB59 EQ PUSH2 0x527 JUMPI DUP1 PUSH4 0x890DC766 EQ PUSH2 0x52F JUMPI DUP1 PUSH4 0x8C65C81F EQ PUSH2 0x542 JUMPI PUSH1 0x0 DUP1 REVERT JUMPDEST DUP1 PUSH4 0x7D1CD04F EQ PUSH2 0x4FE JUMPI DUP1 PUSH4 0x7DC0D1D0 EQ PUSH2 0x507 JUMPI PUSH1 0x0 DUP1 REVERT JUMPDEST DUP1 PUSH4 0x60554011 GT PUSH2 0x24A JUMPI DUP1 PUSH4 0x7285C58B GT PUSH2 0x1FE JUMPI DUP1 PUSH4 0x7ADBF973 GT PUSH2 0x1D8 JUMPI DUP1 PUSH4 0x7ADBF973 EQ PUSH2 0x4D0 JUMPI DUP1 PUSH4 0x7B3205F5 EQ PUSH2 0x4E3 JUMPI DUP1 PUSH4 0x7BF41254 EQ PUSH2 0x4EB JUMPI PUSH1 0x0 DUP1 REVERT JUMPDEST DUP1 PUSH4 0x7285C58B EQ PUSH2 0x466 JUMPI DUP1 PUSH4 0x76671808 EQ PUSH2 0x4B4 JUMPI DUP1 PUSH4 0x77E741C7 EQ PUSH2 0x4BD JUMPI PUSH1 0x0 DUP1 REVERT JUMPDEST DUP1 PUSH4 0x6C188593 GT PUSH2 0x22F JUMPI DUP1 PUSH4 0x6C188593 EQ PUSH2 0x438 JUMPI DUP1 PUSH4 0x704B6C02 EQ PUSH2 0x44B JUMPI DUP1 PUSH4 0x715018A6 EQ PUSH2 0x45E JUMPI PUSH1 0x0 DUP1 REVERT JUMPDEST DUP1 PUSH4 0x60554011 EQ PUSH2 0x41C JUMPI DUP1 PUSH4 0x6BA4C138 EQ PUSH2 0x425 JUMPI PUSH1 0x0 DUP1 REVERT JUMPDEST DUP1 PUSH4 0x368ACB09 GT PUSH2 0x2A1 JUMPI DUP1 PUSH4 0x3F4BA83A GT PUSH2 0x286 JUMPI DUP1 PUSH4 0x3F4BA83A EQ PUSH2 0x3E9 JUMPI DUP1 PUSH4 0x452FD75A EQ PUSH2 0x3F1 JUMPI DUP1 PUSH4 0x5C975ABB EQ PUSH2 0x3F9 JUMPI PUSH1 0x0 DUP1 REVERT JUMPDEST DUP1 PUSH4 0x368ACB09 EQ PUSH2 0x3CD JUMPI DUP1 PUSH4 0x3923E1B4 EQ PUSH2 0x3D6 JUMPI PUSH1 0x0 DUP1 REVERT JUMPDEST DUP1 PUSH4 0xF74174F GT PUSH2 0x2D2 JUMPI DUP1 PUSH4 0xF74174F EQ PUSH2 0x30A JUMPI DUP1 PUSH4 0x127EFFB2 EQ PUSH2 0x344 JUMPI DUP1 PUSH4 0x273867D4 EQ PUSH2 0x389 JUMPI PUSH1 0x0 DUP1 REVERT JUMPDEST DUP1 PUSH3 0x3BDC74 EQ PUSH2 0x2ED JUMPI DUP1 PUSH4 0xE89E5A4 EQ PUSH2 0x2F7 JUMPI JUMPDEST PUSH1 0x0 DUP1 REVERT JUMPDEST PUSH2 0x2F5 PUSH2 0x77E JUMP JUMPDEST STOP JUMPDEST PUSH2 0x2F5 PUSH2 0x305 CALLDATASIZE PUSH1 0x4 PUSH2 0x48AE JUMP JUMPDEST PUSH2 0x89B JUMP JUMPDEST PUSH1 0x2 SLOAD PUSH2 0x32F SWAP1 PUSH21 0x10000000000000000000000000000000000000000 SWAP1 DIV PUSH1 0xFF AND DUP2 JUMP JUMPDEST PUSH1 0x40 MLOAD SWAP1 ISZERO ISZERO DUP2 MSTORE PUSH1 0x20 ADD JUMPDEST PUSH1 0x40 MLOAD DUP1 SWAP2 SUB SWAP1 RETURN JUMPDEST PUSH1 0x4 SLOAD PUSH2 0x364 SWAP1 PUSH20 0xFFFFFFFFFFFFFFFFFFFFFFFFFFFFFFFFFFFFFFFF AND DUP2 JUMP JUMPDEST PUSH1 0x40 MLOAD PUSH20 0xFFFFFFFFFFFFFFFFFFFFFFFFFFFFFFFFFFFFFFFF SWAP1 SWAP2 AND DUP2 MSTORE PUSH1 0x20 ADD PUSH2 0x33B JUMP JUMPDEST PUSH2 0x3BF PUSH2 0x397 CALLDATASIZE PUSH1 0x4 PUSH2 0x475F JUMP JUMPDEST PUSH20 0xFFFFFFFFFFFFFFFFFFFFFFFFFFFFFFFFFFFFFFFF AND PUSH1 0x0 SWAP1 DUP2 MSTORE PUSH1 0xF PUSH1 0x20 MSTORE PUSH1 0x40 SWAP1 KECCAK256 SLOAD SWAP1 JUMP JUMPDEST PUSH1 0x40 MLOAD SWAP1 DUP2 MSTORE PUSH1 0x20 ADD PUSH2 0x33B JUMP JUMPDEST PUSH2 0x3BF PUSH1 0x9 SLOAD DUP2 JUMP JUMPDEST PUSH2 0x2F5 PUSH2 0x3E4 CALLDATASIZE PUSH1 0x4 PUSH2 0x48AE JUMP JUMPDEST PUSH2 0xC93 JUMP JUMPDEST PUSH2 0x2F5 PUSH2 0x1074 JUMP JUMPDEST PUSH2 0x2F5 PUSH2 0x117D JUMP JUMPDEST PUSH1 0x0 SLOAD PUSH21 0x10000000000000000000000000000000000000000 SWAP1 DIV PUSH1 0xFF AND PUSH2 0x32F JUMP JUMPDEST PUSH2 0x3BF PUSH1 0xC SLOAD DUP2 JUMP JUMPDEST PUSH2 0x2F5 PUSH2 0x433 CALLDATASIZE PUSH1 0x4 PUSH2 0x47DB JUMP JUMPDEST PUSH2 0x1310 JUMP JUMPDEST PUSH2 0x2F5 PUSH2 0x446 CALLDATASIZE PUSH1 0x4 PUSH2 0x486B JUMP JUMPDEST PUSH2 0x1B1C JUMP JUMPDEST PUSH2 0x2F5 PUSH2 0x459 CALLDATASIZE PUSH1 0x4 PUSH2 0x475F JUMP JUMPDEST PUSH2 0x1C4B JUMP JUMPDEST PUSH2 0x2F5 PUSH2 0x1D4A JUMP JUMPDEST PUSH2 0x4A5 PUSH2 0x474 CALLDATASIZE PUSH1 0x4 PUSH2 0x4883 JUMP JUMPDEST PUSH1 0xD PUSH1 0x20 SWAP1 DUP2 MSTORE PUSH1 0x0 SWAP3 DUP4 MSTORE PUSH1 0x40 DUP1 DUP5 KECCAK256 SWAP1 SWAP2 MSTORE SWAP1 DUP3 MSTORE SWAP1 KECCAK256 DUP1 SLOAD PUSH1 0x1 DUP3 ADD SLOAD PUSH1 0x2 SWAP1 SWAP3 ADD SLOAD PUSH1 0xFF SWAP2 DUP3 AND SWAP3 SWAP2 AND DUP4 JUMP JUMPDEST PUSH1 0x40 MLOAD PUSH2 0x33B SWAP4 SWAP3 SWAP2 SWAP1 PUSH2 0x4A17 JUMP JUMPDEST PUSH2 0x3BF PUSH1 0xA SLOAD DUP2 JUMP JUMPDEST PUSH2 0x2F5 PUSH2 0x4CB CALLDATASIZE PUSH1 0x4 PUSH2 0x486B JUMP JUMPDEST PUSH2 0x1D5C JUMP JUMPDEST PUSH2 0x2F5 PUSH2 0x4DE CALLDATASIZE PUSH1 0x4 PUSH2 0x475F JUMP JUMPDEST PUSH2 0x1E89 JUMP JUMPDEST PUSH2 0x2F5 PUSH2 0x20AB JUMP JUMPDEST PUSH2 0x32F PUSH2 0x4F9 CALLDATASIZE PUSH1 0x4 PUSH2 0x4883 JUMP JUMPDEST PUSH2 0x22BE JUMP JUMPDEST PUSH2 0x3BF PUSH1 0x6 SLOAD DUP2 JUMP JUMPDEST PUSH1 0x2 SLOAD PUSH2 0x364 SWAP1 PUSH20 0xFFFFFFFFFFFFFFFFFFFFFFFFFFFFFFFFFFFFFFFF AND DUP2 JUMP JUMPDEST PUSH2 0x2F5 PUSH2 0x2489 JUMP JUMPDEST PUSH2 0x2F5 PUSH2 0x53D CALLDATASIZE PUSH1 0x4 PUSH2 0x48AE JUMP JUMPDEST PUSH2 0x256A JUMP JUMPDEST PUSH2 0x5C0 PUSH2 0x550 CALLDATASIZE PUSH1 0x4 PUSH2 0x486B JUMP JUMPDEST PUSH1 0xE PUSH1 0x20 MSTORE PUSH1 0x0 SWAP1 DUP2 MSTORE PUSH1 0x40 SWAP1 KECCAK256 DUP1 SLOAD PUSH1 0x1 DUP3 ADD SLOAD PUSH1 0x2 DUP4 ADD SLOAD PUSH1 0x3 DUP5 ADD SLOAD PUSH1 0x4 DUP6 ADD SLOAD PUSH1 0x5 DUP7 ADD SLOAD PUSH1 0x6 DUP8 ADD SLOAD PUSH1 0x7 DUP9 ADD SLOAD PUSH1 0x8 DUP10 ADD SLOAD PUSH1 0x9 DUP11 ADD SLOAD PUSH1 0xA DUP12 ADD SLOAD PUSH1 0xB DUP13 ADD SLOAD PUSH1 0xC DUP14 ADD SLOAD PUSH1 0xD SWAP1 SWAP14 ADD SLOAD SWAP12 SWAP13 SWAP11 SWAP12 SWAP10 SWAP11 SWAP9 SWAP10 SWAP8 SWAP9 SWAP7 SWAP8 SWAP6 SWAP7 SWAP5 SWAP6 SWAP4 SWAP5 SWAP3 SWAP4 SWAP2 SWAP3 SWAP1 SWAP2 PUSH1 0xFF AND DUP15 JUMP JUMPDEST PUSH1 0x40 DUP1 MLOAD SWAP15 DUP16 MSTORE PUSH1 0x20 DUP16 ADD SWAP14 SWAP1 SWAP14 MSTORE SWAP12 DUP14 ADD SWAP11 SWAP1 SWAP11 MSTORE PUSH1 0x60 DUP13 ADD SWAP9 SWAP1 SWAP9 MSTORE PUSH1 0x80 DUP12 ADD SWAP7 SWAP1 SWAP7 MSTORE PUSH1 0xA0 DUP11 ADD SWAP5 SWAP1 SWAP5 MSTORE PUSH1 0xC0 DUP10 ADD SWAP3 SWAP1 SWAP3 MSTORE PUSH1 0xE0 DUP9 ADD MSTORE PUSH2 0x100 DUP8 ADD MSTORE PUSH2 0x120 DUP7 ADD MSTORE PUSH2 0x140 DUP6 ADD MSTORE PUSH2 0x160 DUP5 ADD MSTORE PUSH2 0x180 DUP4 ADD MSTORE ISZERO ISZERO PUSH2 0x1A0 DUP3 ADD MSTORE PUSH2 0x1C0 ADD PUSH2 0x33B JUMP JUMPDEST PUSH1 0x0 SLOAD PUSH20 0xFFFFFFFFFFFFFFFFFFFFFFFFFFFFFFFFFFFFFFFF AND PUSH2 0x364 JUMP JUMPDEST PUSH2 0x65B PUSH2 0x656 CALLDATASIZE PUSH1 0x4 PUSH2 0x47A9 JUMP JUMPDEST PUSH2 0x26C9 JUMP JUMPDEST PUSH1 0x40 MLOAD PUSH2 0x33B SWAP4 SWAP3 SWAP2 SWAP1 PUSH2 0x4975 JUMP JUMPDEST PUSH2 0x32F PUSH2 0x678 CALLDATASIZE PUSH1 0x4 PUSH2 0x4883 JUMP JUMPDEST PUSH2 0x2AAA JUMP JUMPDEST PUSH2 0x2F5 PUSH2 0x68B CALLDATASIZE PUSH1 0x4 PUSH2 0x4780 JUMP JUMPDEST PUSH2 0x2D1B JUMP JUMPDEST PUSH2 0x2F5 PUSH2 0x69E CALLDATASIZE PUSH1 0x4 PUSH2 0x475F JUMP JUMPDEST PUSH2 0x2E74 JUMP JUMPDEST PUSH2 0x3BF PUSH1 0x8 SLOAD DUP2 JUMP JUMPDEST PUSH2 0x2F5 PUSH2 0x6BA CALLDATASIZE PUSH1 0x4 PUSH2 0x486B JUMP JUMPDEST PUSH2 0x2FE5 JUMP JUMPDEST PUSH2 0x2F5 PUSH2 0x30A3 JUMP JUMPDEST PUSH2 0x3BF PUSH2 0x6D5 CALLDATASIZE PUSH1 0x4 PUSH2 0x4780 JUMP JUMPDEST PUSH2 0x331C JUMP JUMPDEST PUSH2 0x3BF PUSH1 0x5 SLOAD DUP2 JUMP JUMPDEST PUSH2 0x3BF PUSH1 0xB SLOAD DUP2 JUMP JUMPDEST PUSH2 0x3BF PUSH2 0x3E8 DUP2 JUMP JUMPDEST PUSH2 0x2F5 PUSH2 0x703 CALLDATASIZE PUSH1 0x4 PUSH2 0x475F JUMP JUMPDEST PUSH2 0x334D JUMP JUMPDEST PUSH1 0x2 SLOAD PUSH2 0x32F SWAP1 PUSH22 0x1000000000000000000000000000000000000000000 SWAP1 DIV PUSH1 0xFF AND DUP2 JUMP JUMPDEST PUSH2 0x3BF PUSH1 0x7 SLOAD DUP2 JUMP JUMPDEST PUSH2 0x364 PUSH32 0x0 DUP2 JUMP JUMPDEST PUSH1 0x3 SLOAD PUSH2 0x364 SWAP1 PUSH20 0xFFFFFFFFFFFFFFFFFFFFFFFFFFFFFFFFFFFFFFFF AND DUP2 JUMP JUMPDEST PUSH2 0x786 PUSH2 0x3404 JUMP JUMPDEST PUSH1 0x3 SLOAD PUSH20 0xFFFFFFFFFFFFFFFFFFFFFFFFFFFFFFFFFFFFFFFF AND CALLER EQ PUSH2 0x80C JUMPI PUSH1 0x40 MLOAD PUSH32 0x8C379A000000000000000000000000000000000000000000000000000000000 DUP2 MSTORE PUSH1 0x20 PUSH1 0x4 DUP3 ADD MSTORE PUSH1 0x9 PUSH1 0x24 DUP3 ADD MSTORE PUSH32 0x4E6F742061646D696E0000000000000000000000000000000000000000000000 PUSH1 0x44 DUP3 ADD MSTORE PUSH1 0x64 ADD JUMPDEST PUSH1 0x40 MLOAD DUP1 SWAP2 SUB SWAP1 REVERT JUMPDEST PUSH1 0x9 DUP1 SLOAD PUSH1 0x0 SWAP1 SWAP2 SSTORE PUSH1 0x3 SLOAD PUSH2 0x85C SWAP1 PUSH20 0xFFFFFFFFFFFFFFFFFFFFFFFFFFFFFFFFFFFFFFFF PUSH32 0x0 DUP2 AND SWAP2 AND DUP4 PUSH2 0x3478 JUMP JUMPDEST PUSH1 0x40 MLOAD DUP2 DUP2 MSTORE PUSH32 0xB9197C6B8E21274BD1E2D9C956A88AF5CFEE510F630FAB3F046300F88B422361 SWAP1 PUSH1 0x20 ADD PUSH1 0x40 MLOAD DUP1 SWAP2 SUB SWAP1 LOG1 POP PUSH2 0x899 PUSH1 0x1 DUP1 SSTORE JUMP JUMPDEST JUMP JUMPDEST PUSH2 0x8A3 PUSH2 0x3551 JUMP JUMPDEST PUSH2 0x8AB PUSH2 0x3404 JUMP JUMPDEST CALLER EXTCODESIZE ISZERO PUSH2 0x914 JUMPI PUSH1 0x40 MLOAD PUSH32 0x8C379A000000000000000000000000000000000000000000000000000000000 DUP2 MSTORE PUSH1 0x20 PUSH1 0x4 DUP3 ADD MSTORE PUSH1 0x14 PUSH1 0x24 DUP3 ADD MSTORE PUSH32 0x436F6E7472616374206E6F7420616C6C6F776564000000000000000000000000 PUSH1 0x44 DUP3 ADD MSTORE PUSH1 0x64 ADD PUSH2 0x803 JUMP JUMPDEST CALLER ORIGIN EQ PUSH2 0x97D JUMPI PUSH1 0x40 MLOAD PUSH32 0x8C379A000000000000000000000000000000000000000000000000000000000 DUP2 MSTORE PUSH1 0x20 PUSH1 0x4 DUP3 ADD MSTORE PUSH1 0x1A PUSH1 0x24 DUP3 ADD MSTORE PUSH32 0x50726F787920636F6E7472616374206E6F7420616C6C6F776564000000000000 PUSH1 0x44 DUP3 ADD MSTORE PUSH1 0x64 ADD PUSH2 0x803 JUMP JUMPDEST PUSH1 0xA SLOAD DUP3 EQ PUSH2 0x9E8 JUMPI PUSH1 0x40 MLOAD PUSH32 0x8C379A000000000000000000000000000000000000000000000000000000000 DUP2 MSTORE PUSH1 0x20 PUSH1 0x4 DUP3 ADD MSTORE PUSH1 0x15 PUSH1 0x24 DUP3 ADD MSTORE PUSH32 0x42657420697320746F6F206561726C792F6C6174650000000000000000000000 PUSH1 0x44 DUP3 ADD MSTORE PUSH1 0x64 ADD PUSH2 0x803 JUMP JUMPDEST PUSH2 0x9F1 DUP3 PUSH2 0x35D6 JUMP JUMPDEST PUSH2 0xA57 JUMPI PUSH1 0x40 MLOAD PUSH32 0x8C379A000000000000000000000000000000000000000000000000000000000 DUP2 MSTORE PUSH1 0x20 PUSH1 0x4 DUP3 ADD MSTORE PUSH1 0x12 PUSH1 0x24 DUP3 ADD MSTORE PUSH32 0x526F756E64206E6F74206265747461626C650000000000000000000000000000 PUSH1 0x44 DUP3 ADD MSTORE PUSH1 0x64 ADD PUSH2 0x803 JUMP JUMPDEST PUSH1 0x7 SLOAD DUP2 LT ISZERO PUSH2 0xAE9 JUMPI PUSH1 0x40 MLOAD PUSH32 0x8C379A000000000000000000000000000000000000000000000000000000000 DUP2 MSTORE PUSH1 0x20 PUSH1 0x4 DUP3 ADD MSTORE PUSH1 0x2C PUSH1 0x24 DUP3 ADD MSTORE PUSH32 0x42657420616D6F756E74206D7573742062652067726561746572207468616E20 PUSH1 0x44 DUP3 ADD MSTORE PUSH32 0x6D696E426574416D6F756E740000000000000000000000000000000000000000 PUSH1 0x64 DUP3 ADD MSTORE PUSH1 0x84 ADD PUSH2 0x803 JUMP JUMPDEST PUSH1 0x0 DUP3 DUP2 MSTORE PUSH1 0xD PUSH1 0x20 SWAP1 DUP2 MSTORE PUSH1 0x40 DUP1 DUP4 KECCAK256 CALLER DUP5 MSTORE SWAP1 SWAP2 MSTORE SWAP1 KECCAK256 PUSH1 0x1 ADD SLOAD ISZERO PUSH2 0xB6D JUMPI PUSH1 0x40 MLOAD PUSH32 0x8C379A000000000000000000000000000000000000000000000000000000000 DUP2 MSTORE PUSH1 0x20 PUSH1 0x4 DUP3 ADD MSTORE PUSH1 0x1B PUSH1 0x24 DUP3 ADD MSTORE PUSH32 0x43616E206F6E6C7920626574206F6E63652070657220726F756E640000000000 PUSH1 0x44 DUP3 ADD MSTORE PUSH1 0x64 ADD PUSH2 0x803 JUMP JUMPDEST PUSH2 0xBAF PUSH20 0xFFFFFFFFFFFFFFFFFFFFFFFFFFFFFFFFFFFFFFFF PUSH32 0x0 AND CALLER ADDRESS DUP5 PUSH2 0x3641 JUMP JUMPDEST PUSH1 0x0 DUP3 DUP2 MSTORE PUSH1 0xE PUSH1 0x20 MSTORE PUSH1 0x40 SWAP1 KECCAK256 PUSH1 0x8 DUP2 ADD SLOAD DUP3 SWAP2 SWAP1 PUSH2 0xBD0 SWAP1 DUP4 SWAP1 PUSH2 0x4A8C JUMP JUMPDEST PUSH1 0x8 DUP3 ADD SSTORE PUSH1 0xA DUP2 ADD SLOAD PUSH2 0xBE5 SWAP1 DUP4 SWAP1 PUSH2 0x4A8C JUMP JUMPDEST PUSH1 0xA DUP3 ADD SSTORE PUSH1 0x0 DUP5 DUP2 MSTORE PUSH1 0xD PUSH1 0x20 SWAP1 DUP2 MSTORE PUSH1 0x40 DUP1 DUP4 KECCAK256 CALLER DUP1 DUP6 MSTORE SWAP1 DUP4 MSTORE DUP2 DUP5 KECCAK256 DUP1 SLOAD PUSH32 0xFFFFFFFFFFFFFFFFFFFFFFFFFFFFFFFFFFFFFFFFFFFFFFFFFFFFFFFFFFFFFF00 AND PUSH1 0x1 SWAP1 DUP2 OR DUP3 SSTORE DUP1 DUP3 ADD DUP9 SWAP1 SSTORE PUSH1 0xF DUP6 MSTORE DUP4 DUP7 KECCAK256 DUP1 SLOAD SWAP2 DUP3 ADD DUP2 SSTORE DUP7 MSTORE SWAP5 DUP5 SWAP1 KECCAK256 SWAP1 SWAP5 ADD DUP9 SWAP1 SSTORE SWAP1 MLOAD DUP6 DUP2 MSTORE DUP8 SWAP3 PUSH32 0xD8C1FE3E67AB767116A81F122B83C2557A8C2564019CB7C4F83DE1AEB1F1F0D SWAP2 ADD JUMPDEST PUSH1 0x40 MLOAD DUP1 SWAP2 SUB SWAP1 LOG3 POP POP POP PUSH2 0xC8F PUSH1 0x1 DUP1 SSTORE JUMP JUMPDEST POP POP JUMP JUMPDEST PUSH2 0xC9B PUSH2 0x3551 JUMP JUMPDEST PUSH2 0xCA3 PUSH2 0x3404 JUMP JUMPDEST CALLER EXTCODESIZE ISZERO PUSH2 0xD0C JUMPI PUSH1 0x40 MLOAD PUSH32 0x8C379A000000000000000000000000000000000000000000000000000000000 DUP2 MSTORE PUSH1 0x20 PUSH1 0x4 DUP3 ADD MSTORE PUSH1 0x14 PUSH1 0x24 DUP3 ADD MSTORE PUSH32 0x436F6E7472616374206E6F7420616C6C6F776564000000000000000000000000 PUSH1 0x44 DUP3 ADD MSTORE PUSH1 0x64 ADD PUSH2 0x803 JUMP JUMPDEST CALLER ORIGIN EQ PUSH2 0xD75 JUMPI PUSH1 0x40 MLOAD PUSH32 0x8C379A000000000000000000000000000000000000000000000000000000000 DUP2 MSTORE PUSH1 0x20 PUSH1 0x4 DUP3 ADD MSTORE PUSH1 0x1A PUSH1 0x24 DUP3 ADD MSTORE PUSH32 0x50726F787920636F6E7472616374206E6F7420616C6C6F776564000000000000 PUSH1 0x44 DUP3 ADD MSTORE PUSH1 0x64 ADD PUSH2 0x803 JUMP JUMPDEST PUSH1 0xA SLOAD DUP3 EQ PUSH2 0xDE0 JUMPI PUSH1 0x40 MLOAD PUSH32 0x8C379A000000000000000000000000000000000000000000000000000000000 DUP2 MSTORE PUSH1 0x20 PUSH1 0x4 DUP3 ADD MSTORE PUSH1 0x15 PUSH1 0x24 DUP3 ADD MSTORE PUSH32 0x42657420697320746F6F206561726C792F6C6174650000000000000000000000 PUSH1 0x44 DUP3 ADD MSTORE PUSH1 0x64 ADD PUSH2 0x803 JUMP JUMPDEST PUSH2 0xDE9 DUP3 PUSH2 0x35D6 JUMP JUMPDEST PUSH2 0xE4F JUMPI PUSH1 0x40 MLOAD PUSH32 0x8C379A000000000000000000000000000000000000000000000000000000000 DUP2 MSTORE PUSH1 0x20 PUSH1 0x4 DUP3 ADD MSTORE PUSH1 0x12 PUSH1 0x24 DUP3 ADD MSTORE PUSH32 0x526F756E64206E6F74206265747461626C650000000000000000000000000000 PUSH1 0x44 DUP3 ADD MSTORE PUSH1 0x64 ADD PUSH2 0x803 JUMP JUMPDEST PUSH1 0x7 SLOAD DUP2 LT ISZERO PUSH2 0xEE1 JUMPI PUSH1 0x40 MLOAD PUSH32 0x8C379A000000000000000000000000000000000000000000000000000000000 DUP2 MSTORE PUSH1 0x20 PUSH1 0x4 DUP3 ADD MSTORE PUSH1 0x2C PUSH1 0x24 DUP3 ADD MSTORE PUSH32 0x42657420616D6F756E74206D7573742062652067726561746572207468616E20 PUSH1 0x44 DUP3 ADD MSTORE PUSH32 0x6D696E426574416D6F756E740000000000000000000000000000000000000000 PUSH1 0x64 DUP3 ADD MSTORE PUSH1 0x84 ADD PUSH2 0x803 JUMP JUMPDEST PUSH1 0x0 DUP3 DUP2 MSTORE PUSH1 0xD PUSH1 0x20 SWAP1 DUP2 MSTORE PUSH1 0x40 DUP1 DUP4 KECCAK256 CALLER DUP5 MSTORE SWAP1 SWAP2 MSTORE SWAP1 KECCAK256 PUSH1 0x1 ADD SLOAD ISZERO PUSH2 0xF65 JUMPI PUSH1 0x40 MLOAD PUSH32 0x8C379A000000000000000000000000000000000000000000000000000000000 DUP2 MSTORE PUSH1 0x20 PUSH1 0x4 DUP3 ADD MSTORE PUSH1 0x1B PUSH1 0x24 DUP3 ADD MSTORE PUSH32 0x43616E206F6E6C7920626574206F6E63652070657220726F756E640000000000 PUSH1 0x44 DUP3 ADD MSTORE PUSH1 0x64 ADD PUSH2 0x803 JUMP JUMPDEST PUSH2 0xFA7 PUSH20 0xFFFFFFFFFFFFFFFFFFFFFFFFFFFFFFFFFFFFFFFF PUSH32 0x0 AND CALLER ADDRESS DUP5 PUSH2 0x3641 JUMP JUMPDEST PUSH1 0x0 DUP3 DUP2 MSTORE PUSH1 0xE PUSH1 0x20 MSTORE PUSH1 0x40 SWAP1 KECCAK256 PUSH1 0x8 DUP2 ADD SLOAD DUP3 SWAP2 SWAP1 PUSH2 0xFC8 SWAP1 DUP4 SWAP1 PUSH2 0x4A8C JUMP JUMPDEST PUSH1 0x8 DUP3 ADD SSTORE PUSH1 0x9 DUP2 ADD SLOAD PUSH2 0xFDD SWAP1 DUP4 SWAP1 PUSH2 0x4A8C JUMP JUMPDEST PUSH1 0x9 DUP3 ADD SSTORE PUSH1 0x0 DUP5 DUP2 MSTORE PUSH1 0xD PUSH1 0x20 SWAP1 DUP2 MSTORE PUSH1 0x40 DUP1 DUP4 KECCAK256 CALLER DUP1 DUP6 MSTORE SWAP1 DUP4 MSTORE DUP2 DUP5 KECCAK256 DUP1 SLOAD PUSH32 0xFFFFFFFFFFFFFFFFFFFFFFFFFFFFFFFFFFFFFFFFFFFFFFFFFFFFFFFFFFFFFF00 AND DUP2 SSTORE PUSH1 0x1 DUP1 DUP3 ADD DUP9 SWAP1 SSTORE PUSH1 0xF DUP6 MSTORE DUP4 DUP7 KECCAK256 DUP1 SLOAD SWAP2 DUP3 ADD DUP2 SSTORE DUP7 MSTORE SWAP5 DUP5 SWAP1 KECCAK256 SWAP1 SWAP5 ADD DUP9 SWAP1 SSTORE SWAP1 MLOAD DUP6 DUP2 MSTORE DUP8 SWAP3 PUSH32 0x438122D8CFF518D18388099A5181F0D17A12B4F1B55FAEDF6E4A6ACEE0060C12 SWAP2 ADD PUSH2 0xC7B JUMP JUMPDEST PUSH2 0x107C PUSH2 0x36A5 JUMP JUMPDEST PUSH1 0x3 SLOAD PUSH20 0xFFFFFFFFFFFFFFFFFFFFFFFFFFFFFFFFFFFFFFFF AND CALLER EQ DUP1 PUSH2 0x10B9 JUMPI POP PUSH1 0x4 SLOAD PUSH20 0xFFFFFFFFFFFFFFFFFFFFFFFFFFFFFFFFFFFFFFFF AND CALLER EQ JUMPDEST PUSH2 0x111F JUMPI PUSH1 0x40 MLOAD PUSH32 0x8C379A000000000000000000000000000000000000000000000000000000000 DUP2 MSTORE PUSH1 0x20 PUSH1 0x4 DUP3 ADD MSTORE PUSH1 0x12 PUSH1 0x24 DUP3 ADD MSTORE PUSH32 0x4E6F74206F70657261746F722F61646D696E0000000000000000000000000000 PUSH1 0x44 DUP3 ADD MSTORE PUSH1 0x64 ADD PUSH2 0x803 JUMP JUMPDEST PUSH1 0x2 DUP1 SLOAD PUSH32 0xFFFFFFFFFFFFFFFFFFFF0000FFFFFFFFFFFFFFFFFFFFFFFFFFFFFFFFFFFFFFFF AND SWAP1 SSTORE PUSH2 0x114F PUSH2 0x3729 JUMP JUMPDEST PUSH1 0xA SLOAD PUSH1 0x40 MLOAD PUSH32 0xAAA520FDD7D2C83061D632FA017B0432407E798818AF63EA908589FCEDA39AB7 SWAP1 PUSH1 0x0 SWAP1 LOG2 JUMP JUMPDEST PUSH2 0x1185 PUSH2 0x3551 JUMP JUMPDEST PUSH1 0x4 SLOAD PUSH20 0xFFFFFFFFFFFFFFFFFFFFFFFFFFFFFFFFFFFFFFFF AND CALLER EQ PUSH2 0x1206 JUMPI PUSH1 0x40 MLOAD PUSH32 0x8C379A000000000000000000000000000000000000000000000000000000000 DUP2 MSTORE PUSH1 0x20 PUSH1 0x4 DUP3 ADD MSTORE PUSH1 0xC PUSH1 0x24 DUP3 ADD MSTORE PUSH32 0x4E6F74206F70657261746F720000000000000000000000000000000000000000 PUSH1 0x44 DUP3 ADD MSTORE PUSH1 0x64 ADD PUSH2 0x803 JUMP JUMPDEST PUSH1 0x2 SLOAD PUSH22 0x1000000000000000000000000000000000000000000 SWAP1 DIV PUSH1 0xFF AND ISZERO PUSH2 0x12B2 JUMPI PUSH1 0x40 MLOAD PUSH32 0x8C379A000000000000000000000000000000000000000000000000000000000 DUP2 MSTORE PUSH1 0x20 PUSH1 0x4 DUP3 ADD MSTORE PUSH1 0x23 PUSH1 0x24 DUP3 ADD MSTORE PUSH32 0x43616E206F6E6C792072756E2067656E657369735374617274526F756E64206F PUSH1 0x44 DUP3 ADD MSTORE PUSH32 0x6E63650000000000000000000000000000000000000000000000000000000000 PUSH1 0x64 DUP3 ADD MSTORE PUSH1 0x84 ADD PUSH2 0x803 JUMP JUMPDEST PUSH1 0xA SLOAD PUSH2 0x12C0 SWAP1 PUSH1 0x1 PUSH2 0x4A8C JUMP JUMPDEST PUSH1 0xA DUP2 SWAP1 SSTORE PUSH2 0x12CE SWAP1 PUSH2 0x37A6 JUMP JUMPDEST PUSH1 0x2 DUP1 SLOAD PUSH32 0xFFFFFFFFFFFFFFFFFFFF00FFFFFFFFFFFFFFFFFFFFFFFFFFFFFFFFFFFFFFFFFF AND PUSH22 0x1000000000000000000000000000000000000000000 OR SWAP1 SSTORE JUMP JUMPDEST PUSH2 0x1318 PUSH2 0x3404 JUMP JUMPDEST CALLER EXTCODESIZE ISZERO PUSH2 0x1381 JUMPI PUSH1 0x40 MLOAD PUSH32 0x8C379A000000000000000000000000000000000000000000000000000000000 DUP2 MSTORE PUSH1 0x20 PUSH1 0x4 DUP3 ADD MSTORE PUSH1 0x14 PUSH1 0x24 DUP3 ADD MSTORE PUSH32 0x436F6E7472616374206E6F7420616C6C6F776564000000000000000000000000 PUSH1 0x44 DUP3 ADD MSTORE PUSH1 0x64 ADD PUSH2 0x803 JUMP JUMPDEST CALLER ORIGIN EQ PUSH2 0x13EA JUMPI PUSH1 0x40 MLOAD PUSH32 0x8C379A000000000000000000000000000000000000000000000000000000000 DUP2 MSTORE PUSH1 0x20 PUSH1 0x4 DUP3 ADD MSTORE PUSH1 0x1A PUSH1 0x24 DUP3 ADD MSTORE PUSH32 0x50726F787920636F6E7472616374206E6F7420616C6C6F776564000000000000 PUSH1 0x44 DUP3 ADD MSTORE PUSH1 0x64 ADD PUSH2 0x803 JUMP JUMPDEST PUSH1 0x0 DUP1 JUMPDEST DUP3 DUP2 LT ISZERO PUSH2 0x1ACA JUMPI PUSH1 0xE PUSH1 0x0 DUP6 DUP6 DUP5 DUP2 DUP2 LT PUSH2 0x1433 JUMPI PUSH32 0x4E487B7100000000000000000000000000000000000000000000000000000000 PUSH1 0x0 MSTORE PUSH1 0x32 PUSH1 0x4 MSTORE PUSH1 0x24 PUSH1 0x0 REVERT JUMPDEST SWAP1 POP PUSH1 0x20 MUL ADD CALLDATALOAD DUP2 MSTORE PUSH1 0x20 ADD SWAP1 DUP2 MSTORE PUSH1 0x20 ADD PUSH1 0x0 KECCAK256 PUSH1 0x1 ADD SLOAD PUSH1 0x0 EQ ISZERO PUSH2 0x14B6 JUMPI PUSH1 0x40 MLOAD PUSH32 0x8C379A000000000000000000000000000000000000000000000000000000000 DUP2 MSTORE PUSH1 0x20 PUSH1 0x4 DUP3 ADD MSTORE PUSH1 0x15 PUSH1 0x24 DUP3 ADD MSTORE PUSH32 0x526F756E6420686173206E6F7420737461727465640000000000000000000000 PUSH1 0x44 DUP3 ADD MSTORE PUSH1 0x64 ADD PUSH2 0x803 JUMP JUMPDEST PUSH1 0xE PUSH1 0x0 DUP6 DUP6 DUP5 DUP2 DUP2 LT PUSH2 0x14F3 JUMPI PUSH32 0x4E487B7100000000000000000000000000000000000000000000000000000000 PUSH1 0x0 MSTORE PUSH1 0x32 PUSH1 0x4 MSTORE PUSH1 0x24 PUSH1 0x0 REVERT JUMPDEST SWAP1 POP PUSH1 0x20 MUL ADD CALLDATALOAD DUP2 MSTORE PUSH1 0x20 ADD SWAP1 DUP2 MSTORE PUSH1 0x20 ADD PUSH1 0x0 KECCAK256 PUSH1 0x3 ADD SLOAD TIMESTAMP GT PUSH2 0x1574 JUMPI PUSH1 0x40 MLOAD PUSH32 0x8C379A000000000000000000000000000000000000000000000000000000000 DUP2 MSTORE PUSH1 0x20 PUSH1 0x4 DUP3 ADD MSTORE PUSH1 0x13 PUSH1 0x24 DUP3 ADD MSTORE PUSH32 0x526F756E6420686173206E6F7420656E64656400000000000000000000000000 PUSH1 0x44 DUP3 ADD MSTORE PUSH1 0x64 ADD PUSH2 0x803 JUMP JUMPDEST PUSH1 0x0 PUSH1 0xE PUSH1 0x0 DUP7 DUP7 DUP6 DUP2 DUP2 LT PUSH2 0x15B3 JUMPI PUSH32 0x4E487B7100000000000000000000000000000000000000000000000000000000 PUSH1 0x0 MSTORE PUSH1 0x32 PUSH1 0x4 MSTORE PUSH1 0x24 PUSH1 0x0 REVERT JUMPDEST PUSH1 0x20 SWAP1 DUP2 MUL SWAP3 SWAP1 SWAP3 ADD CALLDATALOAD DUP4 MSTORE POP DUP2 ADD SWAP2 SWAP1 SWAP2 MSTORE PUSH1 0x40 ADD PUSH1 0x0 KECCAK256 PUSH1 0xD ADD SLOAD PUSH1 0xFF AND ISZERO PUSH2 0x1841 JUMPI PUSH2 0x1621 DUP6 DUP6 DUP5 DUP2 DUP2 LT PUSH2 0x1614 JUMPI PUSH32 0x4E487B7100000000000000000000000000000000000000000000000000000000 PUSH1 0x0 MSTORE PUSH1 0x32 PUSH1 0x4 MSTORE PUSH1 0x24 PUSH1 0x0 REVERT JUMPDEST SWAP1 POP PUSH1 0x20 MUL ADD CALLDATALOAD CALLER PUSH2 0x2AAA JUMP JUMPDEST PUSH2 0x1687 JUMPI PUSH1 0x40 MLOAD PUSH32 0x8C379A000000000000000000000000000000000000000000000000000000000 DUP2 MSTORE PUSH1 0x20 PUSH1 0x4 DUP3 ADD MSTORE PUSH1 0x16 PUSH1 0x24 DUP3 ADD MSTORE PUSH32 0x4E6F7420656C696769626C6520666F7220636C61696D00000000000000000000 PUSH1 0x44 DUP3 ADD MSTORE PUSH1 0x64 ADD PUSH2 0x803 JUMP JUMPDEST PUSH1 0x0 PUSH1 0xE PUSH1 0x0 DUP8 DUP8 DUP7 DUP2 DUP2 LT PUSH2 0x16C6 JUMPI PUSH32 0x4E487B7100000000000000000000000000000000000000000000000000000000 PUSH1 0x0 MSTORE PUSH1 0x32 PUSH1 0x4 MSTORE PUSH1 0x24 PUSH1 0x0 REVERT JUMPDEST SWAP1 POP PUSH1 0x20 MUL ADD CALLDATALOAD DUP2 MSTORE PUSH1 0x20 ADD SWAP1 DUP2 MSTORE PUSH1 0x20 ADD PUSH1 0x0 KECCAK256 PUSH1 0x40 MLOAD DUP1 PUSH2 0x1C0 ADD PUSH1 0x40 MSTORE SWAP1 DUP2 PUSH1 0x0 DUP3 ADD SLOAD DUP2 MSTORE PUSH1 0x20 ADD PUSH1 0x1 DUP3 ADD SLOAD DUP2 MSTORE PUSH1 0x20 ADD PUSH1 0x2 DUP3 ADD SLOAD DUP2 MSTORE PUSH1 0x20 ADD PUSH1 0x3 DUP3 ADD SLOAD DUP2 MSTORE PUSH1 0x20 ADD PUSH1 0x4 DUP3 ADD SLOAD DUP2 MSTORE PUSH1 0x20 ADD PUSH1 0x5 DUP3 ADD SLOAD DUP2 MSTORE PUSH1 0x20 ADD PUSH1 0x6 DUP3 ADD SLOAD DUP2 MSTORE PUSH1 0x20 ADD PUSH1 0x7 DUP3 ADD SLOAD DUP2 MSTORE PUSH1 0x20 ADD PUSH1 0x8 DUP3 ADD SLOAD DUP2 MSTORE PUSH1 0x20 ADD PUSH1 0x9 DUP3 ADD SLOAD DUP2 MSTORE PUSH1 0x20 ADD PUSH1 0xA DUP3 ADD SLOAD DUP2 MSTORE PUSH1 0x20 ADD PUSH1 0xB DUP3 ADD SLOAD DUP2 MSTORE PUSH1 0x20 ADD PUSH1 0xC DUP3 ADD SLOAD DUP2 MSTORE PUSH1 0x20 ADD PUSH1 0xD DUP3 ADD PUSH1 0x0 SWAP1 SLOAD SWAP1 PUSH2 0x100 EXP SWAP1 DIV PUSH1 0xFF AND ISZERO ISZERO ISZERO ISZERO DUP2 MSTORE POP POP SWAP1 POP DUP1 PUSH2 0x160 ADD MLOAD DUP2 PUSH2 0x180 ADD MLOAD PUSH1 0xD PUSH1 0x0 DUP10 DUP10 DUP9 DUP2 DUP2 LT PUSH2 0x17CF JUMPI PUSH32 0x4E487B7100000000000000000000000000000000000000000000000000000000 PUSH1 0x0 MSTORE PUSH1 0x32 PUSH1 0x4 MSTORE PUSH1 0x24 PUSH1 0x0 REVERT JUMPDEST SWAP1 POP PUSH1 0x20 MUL ADD CALLDATALOAD DUP2 MSTORE PUSH1 0x20 ADD SWAP1 DUP2 MSTORE PUSH1 0x20 ADD PUSH1 0x0 KECCAK256 PUSH1 0x0 CALLER PUSH20 0xFFFFFFFFFFFFFFFFFFFFFFFFFFFFFFFFFFFFFFFF AND PUSH20 0xFFFFFFFFFFFFFFFFFFFFFFFFFFFFFFFFFFFFFFFF AND DUP2 MSTORE PUSH1 0x20 ADD SWAP1 DUP2 MSTORE PUSH1 0x20 ADD PUSH1 0x0 KECCAK256 PUSH1 0x1 ADD SLOAD PUSH2 0x182F SWAP2 SWAP1 PUSH2 0x4ADD JUMP JUMPDEST PUSH2 0x1839 SWAP2 SWAP1 PUSH2 0x4AA4 JUMP JUMPDEST SWAP2 POP POP PUSH2 0x1986 JUMP JUMPDEST PUSH2 0x188A DUP6 DUP6 DUP5 DUP2 DUP2 LT PUSH2 0x187D JUMPI PUSH32 0x4E487B7100000000000000000000000000000000000000000000000000000000 PUSH1 0x0 MSTORE PUSH1 0x32 PUSH1 0x4 MSTORE PUSH1 0x24 PUSH1 0x0 REVERT JUMPDEST SWAP1 POP PUSH1 0x20 MUL ADD CALLDATALOAD CALLER PUSH2 0x22BE JUMP JUMPDEST PUSH2 0x18F0 JUMPI PUSH1 0x40 MLOAD PUSH32 0x8C379A000000000000000000000000000000000000000000000000000000000 DUP2 MSTORE PUSH1 0x20 PUSH1 0x4 DUP3 ADD MSTORE PUSH1 0x17 PUSH1 0x24 DUP3 ADD MSTORE PUSH32 0x4E6F7420656C696769626C6520666F7220726566756E64000000000000000000 PUSH1 0x44 DUP3 ADD MSTORE PUSH1 0x64 ADD PUSH2 0x803 JUMP JUMPDEST PUSH1 0xD PUSH1 0x0 DUP7 DUP7 DUP6 DUP2 DUP2 LT PUSH2 0x192D JUMPI PUSH32 0x4E487B7100000000000000000000000000000000000000000000000000000000 PUSH1 0x0 MSTORE PUSH1 0x32 PUSH1 0x4 MSTORE PUSH1 0x24 PUSH1 0x0 REVERT JUMPDEST SWAP1 POP PUSH1 0x20 MUL ADD CALLDATALOAD DUP2 MSTORE PUSH1 0x20 ADD SWAP1 DUP2 MSTORE PUSH1 0x20 ADD PUSH1 0x0 KECCAK256 PUSH1 0x0 CALLER PUSH20 0xFFFFFFFFFFFFFFFFFFFFFFFFFFFFFFFFFFFFFFFF AND PUSH20 0xFFFFFFFFFFFFFFFFFFFFFFFFFFFFFFFFFFFFFFFF AND DUP2 MSTORE PUSH1 0x20 ADD SWAP1 DUP2 MSTORE PUSH1 0x20 ADD PUSH1 0x0 KECCAK256 PUSH1 0x1 ADD SLOAD SWAP1 POP JUMPDEST PUSH1 0x1 PUSH1 0xD PUSH1 0x0 DUP8 DUP8 DUP7 DUP2 DUP2 LT PUSH2 0x19C5 JUMPI PUSH32 0x4E487B7100000000000000000000000000000000000000000000000000000000 PUSH1 0x0 MSTORE PUSH1 0x32 PUSH1 0x4 MSTORE PUSH1 0x24 PUSH1 0x0 REVERT JUMPDEST PUSH1 0x20 SWAP1 DUP2 MUL SWAP3 SWAP1 SWAP3 ADD CALLDATALOAD DUP4 MSTORE POP DUP2 DUP2 ADD SWAP3 SWAP1 SWAP3 MSTORE PUSH1 0x40 SWAP1 DUP2 ADD PUSH1 0x0 SWAP1 DUP2 KECCAK256 CALLER DUP3 MSTORE SWAP1 SWAP3 MSTORE SWAP1 KECCAK256 PUSH1 0x2 ADD DUP1 SLOAD PUSH32 0xFFFFFFFFFFFFFFFFFFFFFFFFFFFFFFFFFFFFFFFFFFFFFFFFFFFFFFFFFFFFFF00 AND SWAP2 ISZERO ISZERO SWAP2 SWAP1 SWAP2 OR SWAP1 SSTORE PUSH2 0x1A25 DUP2 DUP5 PUSH2 0x4A8C JUMP JUMPDEST SWAP3 POP DUP5 DUP5 DUP4 DUP2 DUP2 LT PUSH2 0x1A60 JUMPI PUSH32 0x4E487B7100000000000000000000000000000000000000000000000000000000 PUSH1 0x0 MSTORE PUSH1 0x32 PUSH1 0x4 MSTORE PUSH1 0x24 PUSH1 0x0 REVERT JUMPDEST SWAP1 POP PUSH1 0x20 MUL ADD CALLDATALOAD CALLER PUSH20 0xFFFFFFFFFFFFFFFFFFFFFFFFFFFFFFFFFFFFFFFF AND PUSH32 0x34FCBAC0073D7C3D388E51312FAF357774904998EEB8FCA628B9E6F65EE1CBF7 DUP4 PUSH1 0x40 MLOAD PUSH2 0x1AAF SWAP2 DUP2 MSTORE PUSH1 0x20 ADD SWAP1 JUMP JUMPDEST PUSH1 0x40 MLOAD DUP1 SWAP2 SUB SWAP1 LOG3 POP DUP1 PUSH2 0x1AC2 DUP2 PUSH2 0x4B5D JUMP JUMPDEST SWAP2 POP POP PUSH2 0x13EE JUMP JUMPDEST POP DUP1 ISZERO PUSH2 0x1B12 JUMPI PUSH2 0x1B12 PUSH20 0xFFFFFFFFFFFFFFFFFFFFFFFFFFFFFFFFFFFFFFFF PUSH32 0x0 AND CALLER DUP4 PUSH2 0x3478 JUMP JUMPDEST POP PUSH2 0xC8F PUSH1 0x1 DUP1 SSTORE JUMP JUMPDEST PUSH2 0x1B24 PUSH2 0x36A5 JUMP JUMPDEST PUSH1 0x3 SLOAD PUSH20 0xFFFFFFFFFFFFFFFFFFFFFFFFFFFFFFFFFFFFFFFF AND CALLER EQ PUSH2 0x1BA5 JUMPI PUSH1 0x40 MLOAD PUSH32 0x8C379A000000000000000000000000000000000000000000000000000000000 DUP2 MSTORE PUSH1 0x20 PUSH1 0x4 DUP3 ADD MSTORE PUSH1 0x9 PUSH1 0x24 DUP3 ADD MSTORE PUSH32 0x4E6F742061646D696E0000000000000000000000000000000000000000000000 PUSH1 0x44 DUP3 ADD MSTORE PUSH1 0x64 ADD PUSH2 0x803 JUMP JUMPDEST DUP1 PUSH2 0x1C0C JUMPI PUSH1 0x40 MLOAD PUSH32 0x8C379A000000000000000000000000000000000000000000000000000000000 DUP2 MSTORE PUSH1 0x20 PUSH1 0x4 DUP3 ADD MSTORE PUSH1 0x15 PUSH1 0x24 DUP3 ADD MSTORE PUSH32 0x4D757374206265207375706572696F7220746F20300000000000000000000000 PUSH1 0x44 DUP3 ADD MSTORE PUSH1 0x64 ADD PUSH2 0x803 JUMP JUMPDEST PUSH1 0x7 DUP2 SWAP1 SSTORE PUSH1 0xA SLOAD PUSH1 0x40 MLOAD DUP3 DUP2 MSTORE PUSH32 0x90EB87C560A0213754CEB3A7FA3012F01ACAB0A35602C1E1995ADF69DABC9D50 SWAP1 PUSH1 0x20 ADD JUMPDEST PUSH1 0x40 MLOAD DUP1 SWAP2 SUB SWAP1 LOG2 POP JUMP JUMPDEST PUSH2 0x1C53 PUSH2 0x3824 JUMP JUMPDEST PUSH20 0xFFFFFFFFFFFFFFFFFFFFFFFFFFFFFFFFFFFFFFFF DUP2 AND PUSH2 0x1CD0 JUMPI PUSH1 0x40 MLOAD PUSH32 0x8C379A000000000000000000000000000000000000000000000000000000000 DUP2 MSTORE PUSH1 0x20 PUSH1 0x4 DUP3 ADD MSTORE PUSH1 0x16 PUSH1 0x24 DUP3 ADD MSTORE PUSH32 0x43616E6E6F74206265207A65726F206164647265737300000000000000000000 PUSH1 0x44 DUP3 ADD MSTORE PUSH1 0x64 ADD PUSH2 0x803 JUMP JUMPDEST PUSH1 0x3 DUP1 SLOAD PUSH32 0xFFFFFFFFFFFFFFFFFFFFFFFF0000000000000000000000000000000000000000 AND PUSH20 0xFFFFFFFFFFFFFFFFFFFFFFFFFFFFFFFFFFFFFFFF DUP4 AND SWAP1 DUP2 OR SWAP1 SWAP2 SSTORE PUSH1 0x40 MLOAD SWAP1 DUP2 MSTORE PUSH32 0x137B621413925496477D46E5055AC0D56178BDD724BA8BF843AFCEEF18268BA3 SWAP1 PUSH1 0x20 ADD JUMPDEST PUSH1 0x40 MLOAD DUP1 SWAP2 SUB SWAP1 LOG1 POP JUMP JUMPDEST PUSH2 0x1D52 PUSH2 0x3824 JUMP JUMPDEST PUSH2 0x899 PUSH1 0x0 PUSH2 0x38A5 JUMP JUMPDEST PUSH2 0x1D64 PUSH2 0x36A5 JUMP JUMPDEST PUSH1 0x3 SLOAD PUSH20 0xFFFFFFFFFFFFFFFFFFFFFFFFFFFFFFFFFFFFFFFF AND CALLER EQ PUSH2 0x1DE5 JUMPI PUSH1 0x40 MLOAD PUSH32 0x8C379A000000000000000000000000000000000000000000000000000000000 DUP2 MSTORE PUSH1 0x20 PUSH1 0x4 DUP3 ADD MSTORE PUSH1 0x9 PUSH1 0x24 DUP3 ADD MSTORE PUSH32 0x4E6F742061646D696E0000000000000000000000000000000000000000000000 PUSH1 0x44 DUP3 ADD MSTORE PUSH1 0x64 ADD PUSH2 0x803 JUMP JUMPDEST PUSH2 0x3E8 DUP2 GT ISZERO PUSH2 0x1E51 JUMPI PUSH1 0x40 MLOAD PUSH32 0x8C379A000000000000000000000000000000000000000000000000000000000 DUP2 MSTORE PUSH1 0x20 PUSH1 0x4 DUP3 ADD MSTORE PUSH1 0x15 PUSH1 0x24 DUP3 ADD MSTORE PUSH32 0x54726561737572792066656520746F6F20686967680000000000000000000000 PUSH1 0x44 DUP3 ADD MSTORE PUSH1 0x64 ADD PUSH2 0x803 JUMP JUMPDEST PUSH1 0x8 DUP2 SWAP1 SSTORE PUSH1 0xA SLOAD PUSH1 0x40 MLOAD DUP3 DUP2 MSTORE PUSH32 0xB1C4EE38D35556741133DA7FF9B6F7AB0FA88D0406133126FF128F635490A857 SWAP1 PUSH1 0x20 ADD PUSH2 0x1C40 JUMP JUMPDEST PUSH2 0x1E91 PUSH2 0x36A5 JUMP JUMPDEST PUSH1 0x3 SLOAD PUSH20 0xFFFFFFFFFFFFFFFFFFFFFFFFFFFFFFFFFFFFFFFF AND CALLER EQ PUSH2 0x1F12 JUMPI PUSH1 0x40 MLOAD PUSH32 0x8C379A000000000000000000000000000000000000000000000000000000000 DUP2 MSTORE PUSH1 0x20 PUSH1 0x4 DUP3 ADD MSTORE PUSH1 0x9 PUSH1 0x24 DUP3 ADD MSTORE PUSH32 0x4E6F742061646D696E0000000000000000000000000000000000000000000000 PUSH1 0x44 DUP3 ADD MSTORE PUSH1 0x64 ADD PUSH2 0x803 JUMP JUMPDEST PUSH20 0xFFFFFFFFFFFFFFFFFFFFFFFFFFFFFFFFFFFFFFFF DUP2 AND PUSH2 0x1F8F JUMPI PUSH1 0x40 MLOAD PUSH32 0x8C379A000000000000000000000000000000000000000000000000000000000 DUP2 MSTORE PUSH1 0x20 PUSH1 0x4 DUP3 ADD MSTORE PUSH1 0x16 PUSH1 0x24 DUP3 ADD MSTORE PUSH32 0x43616E6E6F74206265207A65726F206164647265737300000000000000000000 PUSH1 0x44 DUP3 ADD MSTORE PUSH1 0x64 ADD PUSH2 0x803 JUMP JUMPDEST PUSH1 0x0 PUSH1 0xB SSTORE PUSH1 0x2 DUP1 SLOAD PUSH32 0xFFFFFFFFFFFFFFFFFFFFFFFF0000000000000000000000000000000000000000 AND PUSH20 0xFFFFFFFFFFFFFFFFFFFFFFFFFFFFFFFFFFFFFFFF DUP4 AND SWAP1 DUP2 OR SWAP1 SWAP2 SSTORE PUSH1 0x40 DUP1 MLOAD PUSH32 0xFEAF968C00000000000000000000000000000000000000000000000000000000 DUP2 MSTORE SWAP1 MLOAD PUSH4 0xFEAF968C SWAP2 PUSH1 0x4 DUP1 DUP3 ADD SWAP3 PUSH1 0xA0 SWAP3 SWAP1 SWAP2 SWAP1 DUP3 SWAP1 SUB ADD DUP2 DUP7 DUP1 EXTCODESIZE ISZERO DUP1 ISZERO PUSH2 0x2026 JUMPI PUSH1 0x0 DUP1 REVERT JUMPDEST POP GAS STATICCALL ISZERO DUP1 ISZERO PUSH2 0x203A JUMPI RETURNDATASIZE PUSH1 0x0 DUP1 RETURNDATACOPY RETURNDATASIZE PUSH1 0x0 REVERT JUMPDEST POP POP POP POP PUSH1 0x40 MLOAD RETURNDATASIZE PUSH1 0x1F NOT PUSH1 0x1F DUP3 ADD AND DUP3 ADD DUP1 PUSH1 0x40 MSTORE POP DUP2 ADD SWAP1 PUSH2 0x205E SWAP2 SWAP1 PUSH2 0x48CF JUMP JUMPDEST POP POP PUSH1 0x40 MLOAD PUSH20 0xFFFFFFFFFFFFFFFFFFFFFFFFFFFFFFFFFFFFFFFF DUP6 AND DUP2 MSTORE PUSH32 0xB3EACD0E351FAFDFEFDEC84E1CD19679B38DBCD63EA7C2C24DA17FD2BC3B3C0E SWAP4 POP PUSH1 0x20 ADD SWAP2 POP PUSH2 0x1D3F SWAP1 POP JUMP JUMPDEST PUSH2 0x20B3 PUSH2 0x3551 JUMP JUMPDEST PUSH1 0x4 SLOAD PUSH20 0xFFFFFFFFFFFFFFFFFFFFFFFFFFFFFFFFFFFFFFFF AND CALLER EQ PUSH2 0x2134 JUMPI PUSH1 0x40 MLOAD PUSH32 0x8C379A000000000000000000000000000000000000000000000000000000000 DUP2 MSTORE PUSH1 0x20 PUSH1 0x4 DUP3 ADD MSTORE PUSH1 0xC PUSH1 0x24 DUP3 ADD MSTORE PUSH32 0x4E6F74206F70657261746F720000000000000000000000000000000000000000 PUSH1 0x44 DUP3 ADD MSTORE PUSH1 0x64 ADD PUSH2 0x803 JUMP JUMPDEST PUSH1 0x2 SLOAD PUSH22 0x1000000000000000000000000000000000000000000 SWAP1 DIV PUSH1 0xFF AND DUP1 ISZERO PUSH2 0x2179 JUMPI POP PUSH1 0x2 SLOAD PUSH21 0x10000000000000000000000000000000000000000 SWAP1 DIV PUSH1 0xFF AND JUMPDEST PUSH2 0x222B JUMPI PUSH1 0x40 MLOAD PUSH32 0x8C379A000000000000000000000000000000000000000000000000000000000 DUP2 MSTORE PUSH1 0x20 PUSH1 0x4 DUP3 ADD MSTORE PUSH1 0x46 PUSH1 0x24 DUP3 ADD MSTORE PUSH32 0x43616E206F6E6C792072756E2061667465722067656E65736973537461727452 PUSH1 0x44 DUP3 ADD MSTORE PUSH32 0x6F756E6420616E642067656E657369734C6F636B526F756E6420697320747269 PUSH1 0x64 DUP3 ADD MSTORE PUSH32 0x6767657265640000000000000000000000000000000000000000000000000000 PUSH1 0x84 DUP3 ADD MSTORE PUSH1 0xA4 ADD PUSH2 0x803 JUMP JUMPDEST PUSH1 0x0 DUP1 PUSH2 0x2236 PUSH2 0x391A JUMP JUMPDEST SWAP2 POP SWAP2 POP DUP2 PUSH10 0xFFFFFFFFFFFFFFFFFFFF AND PUSH1 0xB DUP2 SWAP1 SSTORE POP PUSH2 0x2266 PUSH1 0xA SLOAD DUP4 PUSH10 0xFFFFFFFFFFFFFFFFFFFF AND DUP4 PUSH2 0x3B14 JUMP JUMPDEST PUSH2 0x228B PUSH1 0x1 PUSH1 0xA SLOAD PUSH2 0x2278 SWAP2 SWAP1 PUSH2 0x4B1A JUMP JUMPDEST DUP4 PUSH10 0xFFFFFFFFFFFFFFFFFFFF AND DUP4 PUSH2 0x3D6D JUMP JUMPDEST PUSH2 0x22A2 PUSH1 0x1 PUSH1 0xA SLOAD PUSH2 0x229D SWAP2 SWAP1 PUSH2 0x4B1A JUMP JUMPDEST PUSH2 0x3FDA JUMP JUMPDEST PUSH1 0xA SLOAD PUSH2 0x22B0 SWAP1 PUSH1 0x1 PUSH2 0x4A8C JUMP JUMPDEST PUSH1 0xA DUP2 SWAP1 SSTORE PUSH2 0xC8F SWAP1 PUSH2 0x417D JUMP JUMPDEST PUSH1 0x0 DUP3 DUP2 MSTORE PUSH1 0xD PUSH1 0x20 SWAP1 DUP2 MSTORE PUSH1 0x40 DUP1 DUP4 KECCAK256 PUSH20 0xFFFFFFFFFFFFFFFFFFFFFFFFFFFFFFFFFFFFFFFF DUP6 AND DUP5 MSTORE SWAP1 SWAP2 MSTORE DUP1 DUP3 KECCAK256 DUP2 MLOAD PUSH1 0x60 DUP2 ADD SWAP1 SWAP3 MSTORE DUP1 SLOAD DUP4 SWAP3 SWAP2 SWAP1 DUP3 SWAP1 PUSH1 0xFF AND PUSH1 0x1 DUP2 GT ISZERO PUSH2 0x233A JUMPI PUSH32 0x4E487B7100000000000000000000000000000000000000000000000000000000 PUSH1 0x0 MSTORE PUSH1 0x21 PUSH1 0x4 MSTORE PUSH1 0x24 PUSH1 0x0 REVERT JUMPDEST PUSH1 0x1 DUP2 GT ISZERO PUSH2 0x2372 JUMPI PUSH32 0x4E487B7100000000000000000000000000000000000000000000000000000000 PUSH1 0x0 MSTORE PUSH1 0x21 PUSH1 0x4 MSTORE PUSH1 0x24 PUSH1 0x0 REVERT JUMPDEST DUP2 MSTORE PUSH1 0x1 DUP3 DUP2 ADD SLOAD PUSH1 0x20 DUP1 DUP5 ADD SWAP2 SWAP1 SWAP2 MSTORE PUSH1 0x2 SWAP4 DUP5 ADD SLOAD PUSH1 0xFF SWAP1 DUP2 AND ISZERO ISZERO PUSH1 0x40 SWAP5 DUP6 ADD MSTORE PUSH1 0x0 DUP11 DUP2 MSTORE PUSH1 0xE DUP4 MSTORE DUP5 SWAP1 KECCAK256 DUP5 MLOAD PUSH2 0x1C0 DUP2 ADD DUP7 MSTORE DUP2 SLOAD DUP2 MSTORE SWAP4 DUP2 ADD SLOAD SWAP3 DUP5 ADD SWAP3 SWAP1 SWAP3 MSTORE SWAP4 DUP2 ADD SLOAD SWAP3 DUP3 ADD SWAP3 SWAP1 SWAP3 MSTORE PUSH1 0x3 DUP3 ADD SLOAD PUSH1 0x60 DUP3 ADD MSTORE PUSH1 0x4 DUP3 ADD SLOAD PUSH1 0x80 DUP3 ADD MSTORE PUSH1 0x5 DUP3 ADD SLOAD PUSH1 0xA0 DUP3 ADD MSTORE PUSH1 0x6 DUP3 ADD SLOAD PUSH1 0xC0 DUP3 ADD MSTORE PUSH1 0x7 DUP3 ADD SLOAD PUSH1 0xE0 DUP3 ADD MSTORE PUSH1 0x8 DUP3 ADD SLOAD PUSH2 0x100 DUP3 ADD MSTORE PUSH1 0x9 DUP3 ADD SLOAD PUSH2 0x120 DUP3 ADD MSTORE PUSH1 0xA DUP3 ADD SLOAD PUSH2 0x140 DUP3 ADD MSTORE PUSH1 0xB DUP3 ADD SLOAD PUSH2 0x160 DUP3 ADD MSTORE PUSH1 0xC DUP3 ADD SLOAD PUSH2 0x180 DUP3 ADD MSTORE PUSH1 0xD SWAP1 SWAP2 ADD SLOAD SWAP1 SWAP2 AND ISZERO DUP1 ISZERO PUSH2 0x1A0 DUP4 ADD DUP2 SWAP1 MSTORE SWAP3 SWAP4 POP SWAP1 SWAP2 PUSH2 0x2453 JUMPI POP DUP2 PUSH1 0x40 ADD MLOAD ISZERO JUMPDEST DUP1 ISZERO PUSH2 0x246F JUMPI POP PUSH1 0x5 SLOAD DUP2 PUSH1 0x60 ADD MLOAD PUSH2 0x246C SWAP2 SWAP1 PUSH2 0x4A8C JUMP JUMPDEST TIMESTAMP GT JUMPDEST DUP1 ISZERO PUSH2 0x247E JUMPI POP PUSH1 0x20 DUP3 ADD MLOAD ISZERO ISZERO JUMPDEST SWAP3 POP POP POP JUMPDEST SWAP3 SWAP2 POP POP JUMP JUMPDEST PUSH2 0x2491 PUSH2 0x3551 JUMP JUMPDEST PUSH1 0x3 SLOAD PUSH20 0xFFFFFFFFFFFFFFFFFFFFFFFFFFFFFFFFFFFFFFFF AND CALLER EQ DUP1 PUSH2 0x24CE JUMPI POP PUSH1 0x4 SLOAD PUSH20 0xFFFFFFFFFFFFFFFFFFFFFFFFFFFFFFFFFFFFFFFF AND CALLER EQ JUMPDEST PUSH2 0x2534 JUMPI PUSH1 0x40 MLOAD PUSH32 0x8C379A000000000000000000000000000000000000000000000000000000000 DUP2 MSTORE PUSH1 0x20 PUSH1 0x4 DUP3 ADD MSTORE PUSH1 0x12 PUSH1 0x24 DUP3 ADD MSTORE PUSH32 0x4E6F74206F70657261746F722F61646D696E0000000000000000000000000000 PUSH1 0x44 DUP3 ADD MSTORE PUSH1 0x64 ADD PUSH2 0x803 JUMP JUMPDEST PUSH2 0x253C PUSH2 0x4392 JUMP JUMPDEST PUSH1 0xA SLOAD PUSH1 0x40 MLOAD PUSH32 0x68B095021B1F40FE513109F513C66692F0B3219AEE674A69F4EFC57BADB8201D SWAP1 PUSH1 0x0 SWAP1 LOG2 JUMP JUMPDEST PUSH2 0x2572 PUSH2 0x36A5 JUMP JUMPDEST PUSH1 0x3 SLOAD PUSH20 0xFFFFFFFFFFFFFFFFFFFFFFFFFFFFFFFFFFFFFFFF AND CALLER EQ PUSH2 0x25F3 JUMPI PUSH1 0x40 MLOAD PUSH32 0x8C379A000000000000000000000000000000000000000000000000000000000 DUP2 MSTORE PUSH1 0x20 PUSH1 0x4 DUP3 ADD MSTORE PUSH1 0x9 PUSH1 0x24 DUP3 ADD MSTORE PUSH32 0x4E6F742061646D696E0000000000000000000000000000000000000000000000 PUSH1 0x44 DUP3 ADD MSTORE PUSH1 0x64 ADD PUSH2 0x803 JUMP JUMPDEST DUP1 DUP3 LT PUSH2 0x2682 JUMPI PUSH1 0x40 MLOAD PUSH32 0x8C379A000000000000000000000000000000000000000000000000000000000 DUP2 MSTORE PUSH1 0x20 PUSH1 0x4 DUP3 ADD MSTORE PUSH1 0x31 PUSH1 0x24 DUP3 ADD MSTORE PUSH32 0x6275666665725365636F6E6473206D75737420626520696E666572696F722074 PUSH1 0x44 DUP3 ADD MSTORE PUSH32 0x6F20696E74657276616C5365636F6E6473000000000000000000000000000000 PUSH1 0x64 DUP3 ADD MSTORE PUSH1 0x84 ADD PUSH2 0x803 JUMP JUMPDEST PUSH1 0x5 DUP3 SWAP1 SSTORE PUSH1 0x6 DUP2 SWAP1 SSTORE PUSH1 0x40 DUP1 MLOAD DUP4 DUP2 MSTORE PUSH1 0x20 DUP2 ADD DUP4 SWAP1 MSTORE PUSH32 0xE60149E0431FEC12DF63DFAB5FCE2A9CEFE9A4D3DF5F41CB626F579AE1F2B91A SWAP2 ADD PUSH1 0x40 MLOAD DUP1 SWAP2 SUB SWAP1 LOG1 POP POP JUMP JUMPDEST PUSH20 0xFFFFFFFFFFFFFFFFFFFFFFFFFFFFFFFFFFFFFFFF DUP4 AND PUSH1 0x0 SWAP1 DUP2 MSTORE PUSH1 0xF PUSH1 0x20 MSTORE PUSH1 0x40 DUP2 KECCAK256 SLOAD PUSH1 0x60 SWAP2 DUP3 SWAP2 DUP5 SWAP1 PUSH2 0x2701 SWAP1 DUP8 SWAP1 PUSH2 0x4B1A JUMP JUMPDEST DUP2 GT ISZERO PUSH2 0x273C JUMPI PUSH20 0xFFFFFFFFFFFFFFFFFFFFFFFFFFFFFFFFFFFFFFFF DUP8 AND PUSH1 0x0 SWAP1 DUP2 MSTORE PUSH1 0xF PUSH1 0x20 MSTORE PUSH1 0x40 SWAP1 KECCAK256 SLOAD PUSH2 0x2739 SWAP1 DUP8 SWAP1 PUSH2 0x4B1A JUMP JUMPDEST SWAP1 POP JUMPDEST PUSH1 0x0 DUP2 PUSH8 0xFFFFFFFFFFFFFFFF DUP2 GT ISZERO PUSH2 0x277E JUMPI PUSH32 0x4E487B7100000000000000000000000000000000000000000000000000000000 PUSH1 0x0 MSTORE PUSH1 0x41 PUSH1 0x4 MSTORE PUSH1 0x24 PUSH1 0x0 REVERT JUMPDEST PUSH1 0x40 MLOAD SWAP1 DUP1 DUP3 MSTORE DUP1 PUSH1 0x20 MUL PUSH1 0x20 ADD DUP3 ADD PUSH1 0x40 MSTORE DUP1 ISZERO PUSH2 0x27A7 JUMPI DUP2 PUSH1 0x20 ADD PUSH1 0x20 DUP3 MUL DUP1 CALLDATASIZE DUP4 CALLDATACOPY ADD SWAP1 POP JUMPDEST POP SWAP1 POP PUSH1 0x0 DUP3 PUSH8 0xFFFFFFFFFFFFFFFF DUP2 GT ISZERO PUSH2 0x27EC JUMPI PUSH32 0x4E487B7100000000000000000000000000000000000000000000000000000000 PUSH1 0x0 MSTORE PUSH1 0x41 PUSH1 0x4 MSTORE PUSH1 0x24 PUSH1 0x0 REVERT JUMPDEST PUSH1 0x40 MLOAD SWAP1 DUP1 DUP3 MSTORE DUP1 PUSH1 0x20 MUL PUSH1 0x20 ADD DUP3 ADD PUSH1 0x40 MSTORE DUP1 ISZERO PUSH2 0x2855 JUMPI DUP2 PUSH1 0x20 ADD JUMPDEST PUSH1 0x40 DUP1 MLOAD PUSH1 0x60 DUP2 ADD DUP3 MSTORE PUSH1 0x0 DUP1 DUP3 MSTORE PUSH1 0x20 DUP1 DUP4 ADD DUP3 SWAP1 MSTORE SWAP3 DUP3 ADD MSTORE DUP3 MSTORE PUSH32 0xFFFFFFFFFFFFFFFFFFFFFFFFFFFFFFFFFFFFFFFFFFFFFFFFFFFFFFFFFFFFFFFF SWAP1 SWAP3 ADD SWAP2 ADD DUP2 PUSH2 0x280A JUMPI SWAP1 POP JUMPDEST POP SWAP1 POP PUSH1 0x0 JUMPDEST DUP4 DUP2 LT ISZERO PUSH2 0x2A8B JUMPI PUSH20 0xFFFFFFFFFFFFFFFFFFFFFFFFFFFFFFFFFFFFFFFF DUP11 AND PUSH1 0x0 SWAP1 DUP2 MSTORE PUSH1 0xF PUSH1 0x20 MSTORE PUSH1 0x40 SWAP1 KECCAK256 PUSH2 0x2892 DUP3 DUP12 PUSH2 0x4A8C JUMP JUMPDEST DUP2 SLOAD DUP2 LT PUSH2 0x28C9 JUMPI PUSH32 0x4E487B7100000000000000000000000000000000000000000000000000000000 PUSH1 0x0 MSTORE PUSH1 0x32 PUSH1 0x4 MSTORE PUSH1 0x24 PUSH1 0x0 REVERT JUMPDEST SWAP1 PUSH1 0x0 MSTORE PUSH1 0x20 PUSH1 0x0 KECCAK256 ADD SLOAD DUP4 DUP3 DUP2 MLOAD DUP2 LT PUSH2 0x290D JUMPI PUSH32 0x4E487B7100000000000000000000000000000000000000000000000000000000 PUSH1 0x0 MSTORE PUSH1 0x32 PUSH1 0x4 MSTORE PUSH1 0x24 PUSH1 0x0 REVERT JUMPDEST PUSH1 0x20 MUL PUSH1 0x20 ADD ADD DUP2 DUP2 MSTORE POP POP PUSH1 0xD PUSH1 0x0 DUP5 DUP4 DUP2 MLOAD DUP2 LT PUSH2 0x2956 JUMPI PUSH32 0x4E487B7100000000000000000000000000000000000000000000000000000000 PUSH1 0x0 MSTORE PUSH1 0x32 PUSH1 0x4 MSTORE PUSH1 0x24 PUSH1 0x0 REVERT JUMPDEST PUSH1 0x20 SWAP1 DUP2 MUL SWAP2 SWAP1 SWAP2 ADD DUP2 ADD MLOAD DUP3 MSTORE DUP2 DUP2 ADD SWAP3 SWAP1 SWAP3 MSTORE PUSH1 0x40 SWAP1 DUP2 ADD PUSH1 0x0 SWAP1 DUP2 KECCAK256 PUSH20 0xFFFFFFFFFFFFFFFFFFFFFFFFFFFFFFFFFFFFFFFF DUP15 AND DUP3 MSTORE SWAP1 SWAP3 MSTORE SWAP1 DUP2 SWAP1 KECCAK256 DUP2 MLOAD PUSH1 0x60 DUP2 ADD SWAP1 SWAP3 MSTORE DUP1 SLOAD DUP3 SWAP1 PUSH1 0xFF AND PUSH1 0x1 DUP2 GT ISZERO PUSH2 0x29DD JUMPI PUSH32 0x4E487B7100000000000000000000000000000000000000000000000000000000 PUSH1 0x0 MSTORE PUSH1 0x21 PUSH1 0x4 MSTORE PUSH1 0x24 PUSH1 0x0 REVERT JUMPDEST PUSH1 0x1 DUP2 GT ISZERO PUSH2 0x2A15 JUMPI PUSH32 0x4E487B7100000000000000000000000000000000000000000000000000000000 PUSH1 0x0 MSTORE PUSH1 0x21 PUSH1 0x4 MSTORE PUSH1 0x24 PUSH1 0x0 REVERT JUMPDEST DUP2 MSTORE PUSH1 0x1 DUP3 ADD SLOAD PUSH1 0x20 DUP3 ADD MSTORE PUSH1 0x2 SWAP1 SWAP2 ADD SLOAD PUSH1 0xFF AND ISZERO ISZERO PUSH1 0x40 SWAP1 SWAP2 ADD MSTORE DUP3 MLOAD DUP4 SWAP1 DUP4 SWAP1 DUP2 LT PUSH2 0x2A6D JUMPI PUSH32 0x4E487B7100000000000000000000000000000000000000000000000000000000 PUSH1 0x0 MSTORE PUSH1 0x32 PUSH1 0x4 MSTORE PUSH1 0x24 PUSH1 0x0 REVERT JUMPDEST PUSH1 0x20 MUL PUSH1 0x20 ADD ADD DUP2 SWAP1 MSTORE POP DUP1 DUP1 PUSH2 0x2A83 SWAP1 PUSH2 0x4B5D JUMP JUMPDEST SWAP2 POP POP PUSH2 0x285B JUMP JUMPDEST POP DUP2 DUP2 PUSH2 0x2A98 DUP6 DUP12 PUSH2 0x4A8C JUMP JUMPDEST SWAP6 POP SWAP6 POP SWAP6 POP POP POP POP SWAP4 POP SWAP4 POP SWAP4 SWAP1 POP JUMP JUMPDEST PUSH1 0x0 DUP3 DUP2 MSTORE PUSH1 0xD PUSH1 0x20 SWAP1 DUP2 MSTORE PUSH1 0x40 DUP1 DUP4 KECCAK256 PUSH20 0xFFFFFFFFFFFFFFFFFFFFFFFFFFFFFFFFFFFFFFFF DUP6 AND DUP5 MSTORE SWAP1 SWAP2 MSTORE DUP1 DUP3 KECCAK256 DUP2 MLOAD PUSH1 0x60 DUP2 ADD SWAP1 SWAP3 MSTORE DUP1 SLOAD DUP4 SWAP3 SWAP2 SWAP1 DUP3 SWAP1 PUSH1 0xFF AND PUSH1 0x1 DUP2 GT ISZERO PUSH2 0x2B26 JUMPI PUSH32 0x4E487B7100000000000000000000000000000000000000000000000000000000 PUSH1 0x0 MSTORE PUSH1 0x21 PUSH1 0x4 MSTORE PUSH1 0x24 PUSH1 0x0 REVERT JUMPDEST PUSH1 0x1 DUP2 GT ISZERO PUSH2 0x2B5E JUMPI PUSH32 0x4E487B7100000000000000000000000000000000000000000000000000000000 PUSH1 0x0 MSTORE PUSH1 0x21 PUSH1 0x4 MSTORE PUSH1 0x24 PUSH1 0x0 REVERT JUMPDEST DUP2 MSTORE PUSH1 0x1 DUP3 DUP2 ADD SLOAD PUSH1 0x20 DUP1 DUP5 ADD SWAP2 SWAP1 SWAP2 MSTORE PUSH1 0x2 SWAP4 DUP5 ADD SLOAD PUSH1 0xFF SWAP1 DUP2 AND ISZERO ISZERO PUSH1 0x40 SWAP5 DUP6 ADD MSTORE PUSH1 0x0 DUP11 DUP2 MSTORE PUSH1 0xE DUP4 MSTORE DUP5 SWAP1 KECCAK256 DUP5 MLOAD PUSH2 0x1C0 DUP2 ADD DUP7 MSTORE DUP2 SLOAD DUP2 MSTORE SWAP4 DUP2 ADD SLOAD SWAP3 DUP5 ADD SWAP3 SWAP1 SWAP3 MSTORE SWAP4 DUP2 ADD SLOAD SWAP3 DUP3 ADD SWAP3 SWAP1 SWAP3 MSTORE PUSH1 0x3 DUP3 ADD SLOAD PUSH1 0x60 DUP3 ADD MSTORE PUSH1 0x4 DUP3 ADD SLOAD PUSH1 0x80 DUP3 ADD DUP2 SWAP1 MSTORE PUSH1 0x5 DUP4 ADD SLOAD PUSH1 0xA0 DUP4 ADD DUP2 SWAP1 MSTORE PUSH1 0x6 DUP5 ADD SLOAD PUSH1 0xC0 DUP5 ADD MSTORE PUSH1 0x7 DUP5 ADD SLOAD PUSH1 0xE0 DUP5 ADD MSTORE PUSH1 0x8 DUP5 ADD SLOAD PUSH2 0x100 DUP5 ADD MSTORE PUSH1 0x9 DUP5 ADD SLOAD PUSH2 0x120 DUP5 ADD MSTORE PUSH1 0xA DUP5 ADD SLOAD PUSH2 0x140 DUP5 ADD MSTORE PUSH1 0xB DUP5 ADD SLOAD PUSH2 0x160 DUP5 ADD MSTORE PUSH1 0xC DUP5 ADD SLOAD PUSH2 0x180 DUP5 ADD MSTORE PUSH1 0xD SWAP1 SWAP4 ADD SLOAD SWAP1 SWAP4 AND ISZERO ISZERO PUSH2 0x1A0 DUP3 ADD MSTORE SWAP3 SWAP4 POP EQ ISZERO PUSH2 0x2C43 JUMPI PUSH1 0x0 SWAP3 POP POP POP PUSH2 0x2483 JUMP JUMPDEST DUP1 PUSH2 0x1A0 ADD MLOAD DUP1 ISZERO PUSH2 0x2C58 JUMPI POP PUSH1 0x20 DUP3 ADD MLOAD ISZERO ISZERO JUMPDEST DUP1 ISZERO PUSH2 0x2C66 JUMPI POP DUP2 PUSH1 0x40 ADD MLOAD ISZERO JUMPDEST DUP1 ISZERO PUSH2 0x247E JUMPI POP DUP1 PUSH1 0x80 ADD MLOAD DUP2 PUSH1 0xA0 ADD MLOAD SGT DUP1 ISZERO PUSH2 0x2CBD JUMPI POP PUSH1 0x0 DUP3 MLOAD PUSH1 0x1 DUP2 GT ISZERO PUSH2 0x2CBB JUMPI PUSH32 0x4E487B7100000000000000000000000000000000000000000000000000000000 PUSH1 0x0 MSTORE PUSH1 0x21 PUSH1 0x4 MSTORE PUSH1 0x24 PUSH1 0x0 REVERT JUMPDEST EQ JUMPDEST DUP1 PUSH2 0x247E JUMPI POP DUP1 PUSH1 0x80 ADD MLOAD DUP2 PUSH1 0xA0 ADD MLOAD SLT DUP1 ISZERO PUSH2 0x247E JUMPI POP PUSH1 0x1 DUP3 MLOAD PUSH1 0x1 DUP2 GT ISZERO PUSH2 0x2D11 JUMPI PUSH32 0x4E487B7100000000000000000000000000000000000000000000000000000000 PUSH1 0x0 MSTORE PUSH1 0x21 PUSH1 0x4 MSTORE PUSH1 0x24 PUSH1 0x0 REVERT JUMPDEST EQ SWAP6 SWAP5 POP POP POP POP POP JUMP JUMPDEST PUSH2 0x2D23 PUSH2 0x3824 JUMP JUMPDEST PUSH32 0x0 PUSH20 0xFFFFFFFFFFFFFFFFFFFFFFFFFFFFFFFFFFFFFFFF AND DUP3 PUSH20 0xFFFFFFFFFFFFFFFFFFFFFFFFFFFFFFFFFFFFFFFF AND EQ ISZERO PUSH2 0x2DFF JUMPI PUSH1 0x40 MLOAD PUSH32 0x8C379A000000000000000000000000000000000000000000000000000000000 DUP2 MSTORE PUSH1 0x20 PUSH1 0x4 DUP3 ADD MSTORE PUSH1 0x22 PUSH1 0x24 DUP3 ADD MSTORE PUSH32 0x43616E6E6F742062652070726564696374696F6E20746F6B656E206164647265 PUSH1 0x44 DUP3 ADD MSTORE PUSH32 0x7373000000000000000000000000000000000000000000000000000000000000 PUSH1 0x64 DUP3 ADD MSTORE PUSH1 0x84 ADD PUSH2 0x803 JUMP JUMPDEST PUSH2 0x2E20 PUSH20 0xFFFFFFFFFFFFFFFFFFFFFFFFFFFFFFFFFFFFFFFF DUP4 AND CALLER DUP4 PUSH2 0x3478 JUMP JUMPDEST DUP2 PUSH20 0xFFFFFFFFFFFFFFFFFFFFFFFFFFFFFFFFFFFFFFFF AND PUSH32 0x14F11966A996E0629572E51064726D2057A80FBD34EFC066682C06A71DBB6E98 DUP3 PUSH1 0x40 MLOAD PUSH2 0x2E68 SWAP2 DUP2 MSTORE PUSH1 0x20 ADD SWAP1 JUMP JUMPDEST PUSH1 0x40 MLOAD DUP1 SWAP2 SUB SWAP1 LOG2 POP POP JUMP JUMPDEST PUSH1 0x3 SLOAD PUSH20 0xFFFFFFFFFFFFFFFFFFFFFFFFFFFFFFFFFFFFFFFF AND CALLER EQ PUSH2 0x2EF5 JUMPI PUSH1 0x40 MLOAD PUSH32 0x8C379A000000000000000000000000000000000000000000000000000000000 DUP2 MSTORE PUSH1 0x20 PUSH1 0x4 DUP3 ADD MSTORE PUSH1 0x9 PUSH1 0x24 DUP3 ADD MSTORE PUSH32 0x4E6F742061646D696E0000000000000000000000000000000000000000000000 PUSH1 0x44 DUP3 ADD MSTORE PUSH1 0x64 ADD PUSH2 0x803 JUMP JUMPDEST PUSH20 0xFFFFFFFFFFFFFFFFFFFFFFFFFFFFFFFFFFFFFFFF DUP2 AND PUSH2 0x2F72 JUMPI PUSH1 0x40 MLOAD PUSH32 0x8C379A000000000000000000000000000000000000000000000000000000000 DUP2 MSTORE PUSH1 0x20 PUSH1 0x4 DUP3 ADD MSTORE PUSH1 0x16 PUSH1 0x24 DUP3 ADD MSTORE PUSH32 0x43616E6E6F74206265207A65726F206164647265737300000000000000000000 PUSH1 0x44 DUP3 ADD MSTORE PUSH1 0x64 ADD PUSH2 0x803 JUMP JUMPDEST PUSH1 0x4 DUP1 SLOAD PUSH32 0xFFFFFFFFFFFFFFFFFFFFFFFF0000000000000000000000000000000000000000 AND PUSH20 0xFFFFFFFFFFFFFFFFFFFFFFFFFFFFFFFFFFFFFFFF DUP4 AND SWAP1 DUP2 OR SWAP1 SWAP2 SSTORE PUSH1 0x40 MLOAD SWAP1 DUP2 MSTORE PUSH32 0xC47D127C07BDD56C5CCBA00463CE3BD3C1BCA71B4670EEA6E5D0C02E4AA156E2 SWAP1 PUSH1 0x20 ADD PUSH2 0x1D3F JUMP JUMPDEST PUSH2 0x2FED PUSH2 0x36A5 JUMP JUMPDEST PUSH1 0x3 SLOAD PUSH20 0xFFFFFFFFFFFFFFFFFFFFFFFFFFFFFFFFFFFFFFFF AND CALLER EQ PUSH2 0x306E JUMPI PUSH1 0x40 MLOAD PUSH32 0x8C379A000000000000000000000000000000000000000000000000000000000 DUP2 MSTORE PUSH1 0x20 PUSH1 0x4 DUP3 ADD MSTORE PUSH1 0x9 PUSH1 0x24 DUP3 ADD MSTORE PUSH32 0x4E6F742061646D696E0000000000000000000000000000000000000000000000 PUSH1 0x44 DUP3 ADD MSTORE PUSH1 0x64 ADD PUSH2 0x803 JUMP JUMPDEST PUSH1 0xC DUP2 SWAP1 SSTORE PUSH1 0x40 MLOAD DUP2 DUP2 MSTORE PUSH32 0x93CCACEAC092FFB842C46B8718667A13A80E9058DCD0BD403D0B47215B30DA07 SWAP1 PUSH1 0x20 ADD PUSH2 0x1D3F JUMP JUMPDEST PUSH2 0x30AB PUSH2 0x3551 JUMP JUMPDEST PUSH1 0x4 SLOAD PUSH20 0xFFFFFFFFFFFFFFFFFFFFFFFFFFFFFFFFFFFFFFFF AND CALLER EQ PUSH2 0x312C JUMPI PUSH1 0x40 MLOAD PUSH32 0x8C379A000000000000000000000000000000000000000000000000000000000 DUP2 MSTORE PUSH1 0x20 PUSH1 0x4 DUP3 ADD MSTORE PUSH1 0xC PUSH1 0x24 DUP3 ADD MSTORE PUSH32 0x4E6F74206F70657261746F720000000000000000000000000000000000000000 PUSH1 0x44 DUP3 ADD MSTORE PUSH1 0x64 ADD PUSH2 0x803 JUMP JUMPDEST PUSH1 0x2 SLOAD PUSH22 0x1000000000000000000000000000000000000000000 SWAP1 DIV PUSH1 0xFF AND PUSH2 0x31D7 JUMPI PUSH1 0x40 MLOAD PUSH32 0x8C379A000000000000000000000000000000000000000000000000000000000 DUP2 MSTORE PUSH1 0x20 PUSH1 0x4 DUP3 ADD MSTORE PUSH1 0x31 PUSH1 0x24 DUP3 ADD MSTORE PUSH32 0x43616E206F6E6C792072756E2061667465722067656E65736973537461727452 PUSH1 0x44 DUP3 ADD MSTORE PUSH32 0x6F756E6420697320747269676765726564000000000000000000000000000000 PUSH1 0x64 DUP3 ADD MSTORE PUSH1 0x84 ADD PUSH2 0x803 JUMP JUMPDEST PUSH1 0x2 SLOAD PUSH21 0x10000000000000000000000000000000000000000 SWAP1 DIV PUSH1 0xFF AND ISZERO PUSH2 0x3282 JUMPI PUSH1 0x40 MLOAD PUSH32 0x8C379A000000000000000000000000000000000000000000000000000000000 DUP2 MSTORE PUSH1 0x20 PUSH1 0x4 DUP3 ADD MSTORE PUSH1 0x22 PUSH1 0x24 DUP3 ADD MSTORE PUSH32 0x43616E206F6E6C792072756E2067656E657369734C6F636B526F756E64206F6E PUSH1 0x44 DUP3 ADD MSTORE PUSH32 0x6365000000000000000000000000000000000000000000000000000000000000 PUSH1 0x64 DUP3 ADD MSTORE PUSH1 0x84 ADD PUSH2 0x803 JUMP JUMPDEST PUSH1 0x0 DUP1 PUSH2 0x328D PUSH2 0x391A JUMP JUMPDEST SWAP2 POP SWAP2 POP DUP2 PUSH10 0xFFFFFFFFFFFFFFFFFFFF AND PUSH1 0xB DUP2 SWAP1 SSTORE POP PUSH2 0x32BD PUSH1 0xA SLOAD DUP4 PUSH10 0xFFFFFFFFFFFFFFFFFFFF AND DUP4 PUSH2 0x3B14 JUMP JUMPDEST PUSH1 0xA SLOAD PUSH2 0x32CB SWAP1 PUSH1 0x1 PUSH2 0x4A8C JUMP JUMPDEST PUSH1 0xA DUP2 SWAP1 SSTORE PUSH2 0x32D9 SWAP1 PUSH2 0x37A6 JUMP JUMPDEST POP POP PUSH1 0x2 DUP1 SLOAD PUSH32 0xFFFFFFFFFFFFFFFFFFFFFF00FFFFFFFFFFFFFFFFFFFFFFFFFFFFFFFFFFFFFFFF AND PUSH21 0x10000000000000000000000000000000000000000 OR SWAP1 SSTORE JUMP JUMPDEST PUSH1 0xF PUSH1 0x20 MSTORE DUP2 PUSH1 0x0 MSTORE PUSH1 0x40 PUSH1 0x0 KECCAK256 DUP2 DUP2 SLOAD DUP2 LT PUSH2 0x3338 JUMPI PUSH1 0x0 DUP1 REVERT JUMPDEST SWAP1 PUSH1 0x0 MSTORE PUSH1 0x20 PUSH1 0x0 KECCAK256 ADD PUSH1 0x0 SWAP2 POP SWAP2 POP POP SLOAD DUP2 JUMP JUMPDEST PUSH2 0x3355 PUSH2 0x3824 JUMP JUMPDEST PUSH20 0xFFFFFFFFFFFFFFFFFFFFFFFFFFFFFFFFFFFFFFFF DUP2 AND PUSH2 0x33F8 JUMPI PUSH1 0x40 MLOAD PUSH32 0x8C379A000000000000000000000000000000000000000000000000000000000 DUP2 MSTORE PUSH1 0x20 PUSH1 0x4 DUP3 ADD MSTORE PUSH1 0x26 PUSH1 0x24 DUP3 ADD MSTORE PUSH32 0x4F776E61626C653A206E6577206F776E657220697320746865207A65726F2061 PUSH1 0x44 DUP3 ADD MSTORE PUSH32 0x6464726573730000000000000000000000000000000000000000000000000000 PUSH1 0x64 DUP3 ADD MSTORE PUSH1 0x84 ADD PUSH2 0x803 JUMP JUMPDEST PUSH2 0x3401 DUP2 PUSH2 0x38A5 JUMP JUMPDEST POP JUMP JUMPDEST PUSH1 0x2 PUSH1 0x1 SLOAD EQ ISZERO PUSH2 0x3471 JUMPI PUSH1 0x40 MLOAD PUSH32 0x8C379A000000000000000000000000000000000000000000000000000000000 DUP2 MSTORE PUSH1 0x20 PUSH1 0x4 DUP3 ADD MSTORE PUSH1 0x1F PUSH1 0x24 DUP3 ADD MSTORE PUSH32 0x5265656E7472616E637947756172643A207265656E7472616E742063616C6C00 PUSH1 0x44 DUP3 ADD MSTORE PUSH1 0x64 ADD PUSH2 0x803 JUMP JUMPDEST PUSH1 0x2 PUSH1 0x1 SSTORE JUMP JUMPDEST PUSH1 0x40 MLOAD PUSH20 0xFFFFFFFFFFFFFFFFFFFFFFFFFFFFFFFFFFFFFFFF DUP4 AND PUSH1 0x24 DUP3 ADD MSTORE PUSH1 0x44 DUP2 ADD DUP3 SWAP1 MSTORE PUSH2 0x354C SWAP1 DUP5 SWAP1 PUSH32 0xA9059CBB00000000000000000000000000000000000000000000000000000000 SWAP1 PUSH1 0x64 ADD JUMPDEST PUSH1 0x40 DUP1 MLOAD PUSH32 0xFFFFFFFFFFFFFFFFFFFFFFFFFFFFFFFFFFFFFFFFFFFFFFFFFFFFFFFFFFFFFFE0 DUP2 DUP5 SUB ADD DUP2 MSTORE SWAP2 SWAP1 MSTORE PUSH1 0x20 DUP2 ADD DUP1 MLOAD PUSH28 0xFFFFFFFFFFFFFFFFFFFFFFFFFFFFFFFFFFFFFFFFFFFFFFFFFFFFFFFF AND PUSH32 0xFFFFFFFF00000000000000000000000000000000000000000000000000000000 SWAP1 SWAP4 AND SWAP3 SWAP1 SWAP3 OR SWAP1 SWAP2 MSTORE PUSH2 0x4401 JUMP JUMPDEST POP POP POP JUMP JUMPDEST PUSH1 0x0 SLOAD PUSH21 0x10000000000000000000000000000000000000000 SWAP1 DIV PUSH1 0xFF AND ISZERO PUSH2 0x899 JUMPI PUSH1 0x40 MLOAD PUSH32 0x8C379A000000000000000000000000000000000000000000000000000000000 DUP2 MSTORE PUSH1 0x20 PUSH1 0x4 DUP3 ADD MSTORE PUSH1 0x10 PUSH1 0x24 DUP3 ADD MSTORE PUSH32 0x5061757361626C653A2070617573656400000000000000000000000000000000 PUSH1 0x44 DUP3 ADD MSTORE PUSH1 0x64 ADD PUSH2 0x803 JUMP JUMPDEST PUSH1 0x0 DUP2 DUP2 MSTORE PUSH1 0xE PUSH1 0x20 MSTORE PUSH1 0x40 DUP2 KECCAK256 PUSH1 0x1 ADD SLOAD ISZERO DUP1 ISZERO SWAP1 PUSH2 0x3606 JUMPI POP PUSH1 0x0 DUP3 DUP2 MSTORE PUSH1 0xE PUSH1 0x20 MSTORE PUSH1 0x40 SWAP1 KECCAK256 PUSH1 0x2 ADD SLOAD ISZERO ISZERO JUMPDEST DUP1 ISZERO PUSH2 0x3622 JUMPI POP PUSH1 0x0 DUP3 DUP2 MSTORE PUSH1 0xE PUSH1 0x20 MSTORE PUSH1 0x40 SWAP1 KECCAK256 PUSH1 0x1 ADD SLOAD TIMESTAMP GT JUMPDEST DUP1 ISZERO PUSH2 0x2483 JUMPI POP POP PUSH1 0x0 SWAP1 DUP2 MSTORE PUSH1 0xE PUSH1 0x20 MSTORE PUSH1 0x40 SWAP1 KECCAK256 PUSH1 0x2 ADD SLOAD TIMESTAMP LT SWAP1 JUMP JUMPDEST PUSH1 0x40 MLOAD PUSH20 0xFFFFFFFFFFFFFFFFFFFFFFFFFFFFFFFFFFFFFFFF DUP1 DUP6 AND PUSH1 0x24 DUP4 ADD MSTORE DUP4 AND PUSH1 0x44 DUP3 ADD MSTORE PUSH1 0x64 DUP2 ADD DUP3 SWAP1 MSTORE PUSH2 0x369F SWAP1 DUP6 SWAP1 PUSH32 0x23B872DD00000000000000000000000000000000000000000000000000000000 SWAP1 PUSH1 0x84 ADD PUSH2 0x34CA JUMP JUMPDEST POP POP POP POP JUMP JUMPDEST PUSH1 0x0 SLOAD PUSH21 0x10000000000000000000000000000000000000000 SWAP1 DIV PUSH1 0xFF AND PUSH2 0x899 JUMPI PUSH1 0x40 MLOAD PUSH32 0x8C379A000000000000000000000000000000000000000000000000000000000 DUP2 MSTORE PUSH1 0x20 PUSH1 0x4 DUP3 ADD MSTORE PUSH1 0x14 PUSH1 0x24 DUP3 ADD MSTORE PUSH32 0x5061757361626C653A206E6F7420706175736564000000000000000000000000 PUSH1 0x44 DUP3 ADD MSTORE PUSH1 0x64 ADD PUSH2 0x803 JUMP JUMPDEST PUSH2 0x3731 PUSH2 0x36A5 JUMP JUMPDEST PUSH1 0x0 DUP1 SLOAD PUSH32 0xFFFFFFFFFFFFFFFFFFFFFF00FFFFFFFFFFFFFFFFFFFFFFFFFFFFFFFFFFFFFFFF AND SWAP1 SSTORE PUSH32 0x5DB9EE0A495BF2E6FF9C91A7834C1BA4FDD244A5E8AA4E537BD38AEAE4B073AA CALLER JUMPDEST PUSH1 0x40 MLOAD PUSH20 0xFFFFFFFFFFFFFFFFFFFFFFFFFFFFFFFFFFFFFFFF SWAP1 SWAP2 AND DUP2 MSTORE PUSH1 0x20 ADD PUSH1 0x40 MLOAD DUP1 SWAP2 SUB SWAP1 LOG1 JUMP JUMPDEST PUSH1 0x0 DUP2 DUP2 MSTORE PUSH1 0xE PUSH1 0x20 MSTORE PUSH1 0x40 SWAP1 KECCAK256 TIMESTAMP PUSH1 0x1 DUP3 ADD DUP2 SWAP1 SSTORE PUSH1 0x6 SLOAD PUSH2 0x37C8 SWAP2 PUSH2 0x4A8C JUMP JUMPDEST PUSH1 0x2 DUP1 DUP4 ADD SWAP2 SWAP1 SWAP2 SSTORE PUSH1 0x6 SLOAD PUSH2 0x37DD SWAP2 PUSH2 0x4ADD JUMP JUMPDEST PUSH2 0x37E7 SWAP1 TIMESTAMP PUSH2 0x4A8C JUMP JUMPDEST PUSH1 0x3 DUP3 ADD SSTORE DUP2 DUP2 SSTORE PUSH1 0x0 PUSH1 0x8 DUP3 ADD DUP2 SWAP1 SSTORE PUSH1 0x40 MLOAD DUP4 SWAP2 PUSH32 0x939F42374AA9BF1D8D8CD56D8A9110CB040CD8DFEAE44080C6FCF2645E51B452 SWAP2 LOG2 POP POP JUMP JUMPDEST PUSH1 0x0 SLOAD PUSH20 0xFFFFFFFFFFFFFFFFFFFFFFFFFFFFFFFFFFFFFFFF AND CALLER EQ PUSH2 0x899 JUMPI PUSH1 0x40 MLOAD PUSH32 0x8C379A000000000000000000000000000000000000000000000000000000000 DUP2 MSTORE PUSH1 0x20 PUSH1 0x4 DUP3 ADD DUP2 SWAP1 MSTORE PUSH1 0x24 DUP3 ADD MSTORE PUSH32 0x4F776E61626C653A2063616C6C6572206973206E6F7420746865206F776E6572 PUSH1 0x44 DUP3 ADD MSTORE PUSH1 0x64 ADD PUSH2 0x803 JUMP JUMPDEST PUSH1 0x0 DUP1 SLOAD PUSH20 0xFFFFFFFFFFFFFFFFFFFFFFFFFFFFFFFFFFFFFFFF DUP4 DUP2 AND PUSH32 0xFFFFFFFFFFFFFFFFFFFFFFFF0000000000000000000000000000000000000000 DUP4 AND DUP2 OR DUP5 SSTORE PUSH1 0x40 MLOAD SWAP2 SWAP1 SWAP3 AND SWAP3 DUP4 SWAP2 PUSH32 0x8BE0079C531659141344CD1FD0A4F28419497F9722A3DAAFE3B4186F6B6457E0 SWAP2 SWAP1 LOG3 POP POP JUMP JUMPDEST PUSH1 0x0 DUP1 PUSH1 0x0 PUSH1 0xC SLOAD TIMESTAMP PUSH2 0x392D SWAP2 SWAP1 PUSH2 0x4A8C JUMP JUMPDEST SWAP1 POP PUSH1 0x0 DUP1 PUSH1 0x0 PUSH1 0x2 PUSH1 0x0 SWAP1 SLOAD SWAP1 PUSH2 0x100 EXP SWAP1 DIV PUSH20 0xFFFFFFFFFFFFFFFFFFFFFFFFFFFFFFFFFFFFFFFF AND PUSH20 0xFFFFFFFFFFFFFFFFFFFFFFFFFFFFFFFFFFFFFFFF AND PUSH4 0xFEAF968C PUSH1 0x40 MLOAD DUP2 PUSH4 0xFFFFFFFF AND PUSH1 0xE0 SHL DUP2 MSTORE PUSH1 0x4 ADD PUSH1 0xA0 PUSH1 0x40 MLOAD DUP1 DUP4 SUB DUP2 DUP7 DUP1 EXTCODESIZE ISZERO DUP1 ISZERO PUSH2 0x399C JUMPI PUSH1 0x0 DUP1 REVERT JUMPDEST POP GAS STATICCALL ISZERO DUP1 ISZERO PUSH2 0x39B0 JUMPI RETURNDATASIZE PUSH1 0x0 DUP1 RETURNDATACOPY RETURNDATASIZE PUSH1 0x0 REVERT JUMPDEST POP POP POP POP PUSH1 0x40 MLOAD RETURNDATASIZE PUSH1 0x1F NOT PUSH1 0x1F DUP3 ADD AND DUP3 ADD DUP1 PUSH1 0x40 MSTORE POP DUP2 ADD SWAP1 PUSH2 0x39D4 SWAP2 SWAP1 PUSH2 0x48CF JUMP JUMPDEST POP SWAP4 POP POP SWAP3 POP SWAP3 POP DUP4 DUP2 GT ISZERO PUSH2 0x3A6C JUMPI PUSH1 0x40 MLOAD PUSH32 0x8C379A000000000000000000000000000000000000000000000000000000000 DUP2 MSTORE PUSH1 0x20 PUSH1 0x4 DUP3 ADD MSTORE PUSH1 0x2E PUSH1 0x24 DUP3 ADD MSTORE PUSH32 0x4F7261636C6520757064617465206578636565646564206D61782074696D6573 PUSH1 0x44 DUP3 ADD MSTORE PUSH32 0x74616D7020616C6C6F77616E6365000000000000000000000000000000000000 PUSH1 0x64 DUP3 ADD MSTORE PUSH1 0x84 ADD PUSH2 0x803 JUMP JUMPDEST PUSH1 0xB SLOAD DUP4 PUSH10 0xFFFFFFFFFFFFFFFFFFFF AND GT PUSH2 0x3B09 JUMPI PUSH1 0x40 MLOAD PUSH32 0x8C379A000000000000000000000000000000000000000000000000000000000 DUP2 MSTORE PUSH1 0x20 PUSH1 0x4 DUP3 ADD MSTORE PUSH1 0x3D PUSH1 0x24 DUP3 ADD MSTORE PUSH32 0x4F7261636C652075706461746520726F756E644964206D757374206265206C61 PUSH1 0x44 DUP3 ADD MSTORE PUSH32 0x72676572207468616E206F7261636C654C6174657374526F756E644964000000 PUSH1 0x64 DUP3 ADD MSTORE PUSH1 0x84 ADD PUSH2 0x803 JUMP JUMPDEST POP SWAP1 SWAP5 SWAP1 SWAP4 POP SWAP2 POP POP JUMP JUMPDEST PUSH1 0x0 DUP4 DUP2 MSTORE PUSH1 0xE PUSH1 0x20 MSTORE PUSH1 0x40 SWAP1 KECCAK256 PUSH1 0x1 ADD SLOAD PUSH2 0x3BB2 JUMPI PUSH1 0x40 MLOAD PUSH32 0x8C379A000000000000000000000000000000000000000000000000000000000 DUP2 MSTORE PUSH1 0x20 PUSH1 0x4 DUP3 ADD MSTORE PUSH1 0x2B PUSH1 0x24 DUP3 ADD MSTORE PUSH32 0x43616E206F6E6C79206C6F636B20726F756E6420616674657220726F756E6420 PUSH1 0x44 DUP3 ADD MSTORE PUSH32 0x6861732073746172746564000000000000000000000000000000000000000000 PUSH1 0x64 DUP3 ADD MSTORE PUSH1 0x84 ADD PUSH2 0x803 JUMP JUMPDEST PUSH1 0x0 DUP4 DUP2 MSTORE PUSH1 0xE PUSH1 0x20 MSTORE PUSH1 0x40 SWAP1 KECCAK256 PUSH1 0x2 ADD SLOAD TIMESTAMP LT ISZERO PUSH2 0x3C53 JUMPI PUSH1 0x40 MLOAD PUSH32 0x8C379A000000000000000000000000000000000000000000000000000000000 DUP2 MSTORE PUSH1 0x20 PUSH1 0x4 DUP3 ADD MSTORE PUSH1 0x27 PUSH1 0x24 DUP3 ADD MSTORE PUSH32 0x43616E206F6E6C79206C6F636B20726F756E64206166746572206C6F636B5469 PUSH1 0x44 DUP3 ADD MSTORE PUSH32 0x6D657374616D7000000000000000000000000000000000000000000000000000 PUSH1 0x64 DUP3 ADD MSTORE PUSH1 0x84 ADD PUSH2 0x803 JUMP JUMPDEST PUSH1 0x5 SLOAD PUSH1 0x0 DUP5 DUP2 MSTORE PUSH1 0xE PUSH1 0x20 MSTORE PUSH1 0x40 SWAP1 KECCAK256 PUSH1 0x2 ADD SLOAD PUSH2 0x3C72 SWAP2 SWAP1 PUSH2 0x4A8C JUMP JUMPDEST TIMESTAMP GT ISZERO PUSH2 0x3D01 JUMPI PUSH1 0x40 MLOAD PUSH32 0x8C379A000000000000000000000000000000000000000000000000000000000 DUP2 MSTORE PUSH1 0x20 PUSH1 0x4 DUP3 ADD MSTORE PUSH1 0x28 PUSH1 0x24 DUP3 ADD MSTORE PUSH32 0x43616E206F6E6C79206C6F636B20726F756E642077697468696E206275666665 PUSH1 0x44 DUP3 ADD MSTORE PUSH32 0x725365636F6E6473000000000000000000000000000000000000000000000000 PUSH1 0x64 DUP3 ADD MSTORE PUSH1 0x84 ADD PUSH2 0x803 JUMP JUMPDEST PUSH1 0x0 DUP4 DUP2 MSTORE PUSH1 0xE PUSH1 0x20 MSTORE PUSH1 0x40 SWAP1 KECCAK256 PUSH1 0x6 SLOAD PUSH2 0x3D1C SWAP1 TIMESTAMP PUSH2 0x4A8C JUMP JUMPDEST PUSH1 0x3 DUP3 ADD SSTORE PUSH1 0x4 DUP2 ADD DUP3 SWAP1 SSTORE PUSH1 0x6 DUP2 ADD DUP4 SWAP1 SSTORE PUSH1 0x40 MLOAD DUP3 DUP2 MSTORE DUP4 SWAP1 DUP6 SWAP1 PUSH32 0x482E76A65B448A42DEEF26E99E58FB20C85E26F075DEFFF8DF6AA80459B39006 SWAP1 PUSH1 0x20 ADD JUMPDEST PUSH1 0x40 MLOAD DUP1 SWAP2 SUB SWAP1 LOG3 POP POP POP POP JUMP JUMPDEST PUSH1 0x0 DUP4 DUP2 MSTORE PUSH1 0xE PUSH1 0x20 MSTORE PUSH1 0x40 SWAP1 KECCAK256 PUSH1 0x2 ADD SLOAD PUSH2 0x3E0B JUMPI PUSH1 0x40 MLOAD PUSH32 0x8C379A000000000000000000000000000000000000000000000000000000000 DUP2 MSTORE PUSH1 0x20 PUSH1 0x4 DUP3 ADD MSTORE PUSH1 0x29 PUSH1 0x24 DUP3 ADD MSTORE PUSH32 0x43616E206F6E6C7920656E6420726F756E6420616674657220726F756E642068 PUSH1 0x44 DUP3 ADD MSTORE PUSH32 0x6173206C6F636B65640000000000000000000000000000000000000000000000 PUSH1 0x64 DUP3 ADD MSTORE PUSH1 0x84 ADD PUSH2 0x803 JUMP JUMPDEST PUSH1 0x0 DUP4 DUP2 MSTORE PUSH1 0xE PUSH1 0x20 MSTORE PUSH1 0x40 SWAP1 KECCAK256 PUSH1 0x3 ADD SLOAD TIMESTAMP LT ISZERO PUSH2 0x3EAC JUMPI PUSH1 0x40 MLOAD PUSH32 0x8C379A000000000000000000000000000000000000000000000000000000000 DUP2 MSTORE PUSH1 0x20 PUSH1 0x4 DUP3 ADD MSTORE PUSH1 0x27 PUSH1 0x24 DUP3 ADD MSTORE PUSH32 0x43616E206F6E6C7920656E6420726F756E6420616674657220636C6F73655469 PUSH1 0x44 DUP3 ADD MSTORE PUSH32 0x6D657374616D7000000000000000000000000000000000000000000000000000 PUSH1 0x64 DUP3 ADD MSTORE PUSH1 0x84 ADD PUSH2 0x803 JUMP JUMPDEST PUSH1 0x5 SLOAD PUSH1 0x0 DUP5 DUP2 MSTORE PUSH1 0xE PUSH1 0x20 MSTORE PUSH1 0x40 SWAP1 KECCAK256 PUSH1 0x3 ADD SLOAD PUSH2 0x3ECB SWAP2 SWAP1 PUSH2 0x4A8C JUMP JUMPDEST TIMESTAMP GT ISZERO PUSH2 0x3F5A JUMPI PUSH1 0x40 MLOAD PUSH32 0x8C379A000000000000000000000000000000000000000000000000000000000 DUP2 MSTORE PUSH1 0x20 PUSH1 0x4 DUP3 ADD MSTORE PUSH1 0x27 PUSH1 0x24 DUP3 ADD MSTORE PUSH32 0x43616E206F6E6C7920656E6420726F756E642077697468696E20627566666572 PUSH1 0x44 DUP3 ADD MSTORE PUSH32 0x5365636F6E647300000000000000000000000000000000000000000000000000 PUSH1 0x64 DUP3 ADD MSTORE PUSH1 0x84 ADD PUSH2 0x803 JUMP JUMPDEST PUSH1 0x0 DUP4 DUP2 MSTORE PUSH1 0xE PUSH1 0x20 MSTORE PUSH1 0x40 SWAP1 DUP2 SWAP1 KECCAK256 PUSH1 0x5 DUP2 ADD DUP4 SWAP1 SSTORE PUSH1 0x7 DUP2 ADD DUP5 SWAP1 SSTORE PUSH1 0xD DUP2 ADD DUP1 SLOAD PUSH32 0xFFFFFFFFFFFFFFFFFFFFFFFFFFFFFFFFFFFFFFFFFFFFFFFFFFFFFFFFFFFFFF00 AND PUSH1 0x1 OR SWAP1 SSTORE SWAP1 MLOAD DUP4 SWAP1 DUP6 SWAP1 PUSH32 0xB6FF1FE915DB84788CBBBC017F0D2BEF9485FAD9FD0BD8CE9340FDE0D8410DD8 SWAP1 PUSH2 0x3D5F SWAP1 DUP7 DUP2 MSTORE PUSH1 0x20 ADD SWAP1 JUMP JUMPDEST PUSH1 0x0 DUP2 DUP2 MSTORE PUSH1 0xE PUSH1 0x20 MSTORE PUSH1 0x40 SWAP1 KECCAK256 PUSH1 0xB ADD SLOAD ISZERO DUP1 ISZERO PUSH2 0x4008 JUMPI POP PUSH1 0x0 DUP2 DUP2 MSTORE PUSH1 0xE PUSH1 0x20 MSTORE PUSH1 0x40 SWAP1 KECCAK256 PUSH1 0xC ADD SLOAD ISZERO JUMPDEST PUSH2 0x406E JUMPI PUSH1 0x40 MLOAD PUSH32 0x8C379A000000000000000000000000000000000000000000000000000000000 DUP2 MSTORE PUSH1 0x20 PUSH1 0x4 DUP3 ADD MSTORE PUSH1 0x12 PUSH1 0x24 DUP3 ADD MSTORE PUSH32 0x526577617264732063616C63756C617465640000000000000000000000000000 PUSH1 0x44 DUP3 ADD MSTORE PUSH1 0x64 ADD PUSH2 0x803 JUMP JUMPDEST PUSH1 0x0 DUP2 DUP2 MSTORE PUSH1 0xE PUSH1 0x20 MSTORE PUSH1 0x40 DUP2 KECCAK256 PUSH1 0x4 DUP2 ADD SLOAD PUSH1 0x5 DUP3 ADD SLOAD SWAP2 SWAP3 SWAP2 DUP3 SWAP2 DUP3 SWAP2 SGT ISZERO PUSH2 0x40D2 JUMPI DUP4 PUSH1 0x9 ADD SLOAD SWAP3 POP PUSH2 0x2710 PUSH1 0x8 SLOAD DUP6 PUSH1 0x8 ADD SLOAD PUSH2 0x40AF SWAP2 SWAP1 PUSH2 0x4ADD JUMP JUMPDEST PUSH2 0x40B9 SWAP2 SWAP1 PUSH2 0x4AA4 JUMP JUMPDEST SWAP2 POP DUP2 DUP5 PUSH1 0x8 ADD SLOAD PUSH2 0x40CB SWAP2 SWAP1 PUSH2 0x4B1A JUMP JUMPDEST SWAP1 POP PUSH2 0x410B JUMP JUMPDEST DUP4 PUSH1 0x4 ADD SLOAD DUP5 PUSH1 0x5 ADD SLOAD SLT ISZERO PUSH2 0x40FE JUMPI DUP4 PUSH1 0xA ADD SLOAD SWAP3 POP PUSH2 0x2710 PUSH1 0x8 SLOAD DUP6 PUSH1 0x8 ADD SLOAD PUSH2 0x40AF SWAP2 SWAP1 PUSH2 0x4ADD JUMP JUMPDEST POP POP POP PUSH1 0x8 DUP2 ADD SLOAD PUSH1 0x0 SWAP1 DUP2 JUMPDEST PUSH1 0xB DUP5 ADD DUP4 SWAP1 SSTORE PUSH1 0xC DUP5 ADD DUP2 SWAP1 SSTORE PUSH1 0x9 DUP1 SLOAD DUP4 SWAP2 SWAP1 PUSH1 0x0 SWAP1 PUSH2 0x412E SWAP1 DUP5 SWAP1 PUSH2 0x4A8C JUMP JUMPDEST SWAP1 SWAP2 SSTORE POP POP PUSH1 0x40 DUP1 MLOAD DUP5 DUP2 MSTORE PUSH1 0x20 DUP2 ADD DUP4 SWAP1 MSTORE SWAP1 DUP2 ADD DUP4 SWAP1 MSTORE DUP6 SWAP1 PUSH32 0x6DFDFCB09C8804D0058826CD2539F1ACFBE3CB887C9BE03D928035BCE0F1A58D SWAP1 PUSH1 0x60 ADD PUSH1 0x40 MLOAD DUP1 SWAP2 SUB SWAP1 LOG2 POP POP POP POP POP JUMP JUMPDEST PUSH1 0x2 SLOAD PUSH22 0x1000000000000000000000000000000000000000000 SWAP1 DIV PUSH1 0xFF AND PUSH2 0x4228 JUMPI PUSH1 0x40 MLOAD PUSH32 0x8C379A000000000000000000000000000000000000000000000000000000000 DUP2 MSTORE PUSH1 0x20 PUSH1 0x4 DUP3 ADD MSTORE PUSH1 0x31 PUSH1 0x24 DUP3 ADD MSTORE PUSH32 0x43616E206F6E6C792072756E2061667465722067656E65736973537461727452 PUSH1 0x44 DUP3 ADD MSTORE PUSH32 0x6F756E6420697320747269676765726564000000000000000000000000000000 PUSH1 0x64 DUP3 ADD MSTORE PUSH1 0x84 ADD PUSH2 0x803 JUMP JUMPDEST PUSH1 0xE PUSH1 0x0 PUSH2 0x4237 PUSH1 0x2 DUP5 PUSH2 0x4B1A JUMP JUMPDEST DUP2 MSTORE PUSH1 0x20 ADD SWAP1 DUP2 MSTORE PUSH1 0x20 ADD PUSH1 0x0 KECCAK256 PUSH1 0x3 ADD SLOAD PUSH1 0x0 EQ ISZERO PUSH2 0x42D9 JUMPI PUSH1 0x40 MLOAD PUSH32 0x8C379A000000000000000000000000000000000000000000000000000000000 DUP2 MSTORE PUSH1 0x20 PUSH1 0x4 DUP3 ADD MSTORE PUSH1 0x2E PUSH1 0x24 DUP3 ADD MSTORE PUSH32 0x43616E206F6E6C7920737461727420726F756E6420616674657220726F756E64 PUSH1 0x44 DUP3 ADD MSTORE PUSH32 0x206E2D322068617320656E646564000000000000000000000000000000000000 PUSH1 0x64 DUP3 ADD MSTORE PUSH1 0x84 ADD PUSH2 0x803 JUMP JUMPDEST PUSH1 0xE PUSH1 0x0 PUSH2 0x42E8 PUSH1 0x2 DUP5 PUSH2 0x4B1A JUMP JUMPDEST DUP2 MSTORE PUSH1 0x20 ADD SWAP1 DUP2 MSTORE PUSH1 0x20 ADD PUSH1 0x0 KECCAK256 PUSH1 0x3 ADD SLOAD TIMESTAMP LT ISZERO PUSH2 0x4389 JUMPI PUSH1 0x40 MLOAD PUSH32 0x8C379A000000000000000000000000000000000000000000000000000000000 DUP2 MSTORE PUSH1 0x20 PUSH1 0x4 DUP3 ADD MSTORE PUSH1 0x37 PUSH1 0x24 DUP3 ADD MSTORE PUSH32 0x43616E206F6E6C79207374617274206E657720726F756E642061667465722072 PUSH1 0x44 DUP3 ADD MSTORE PUSH32 0x6F756E64206E2D3220636C6F736554696D657374616D70000000000000000000 PUSH1 0x64 DUP3 ADD MSTORE PUSH1 0x84 ADD PUSH2 0x803 JUMP JUMPDEST PUSH2 0x3401 DUP2 PUSH2 0x37A6 JUMP JUMPDEST PUSH2 0x439A PUSH2 0x3551 JUMP JUMPDEST PUSH1 0x0 DUP1 SLOAD PUSH32 0xFFFFFFFFFFFFFFFFFFFFFF00FFFFFFFFFFFFFFFFFFFFFFFFFFFFFFFFFFFFFFFF AND PUSH21 0x10000000000000000000000000000000000000000 OR SWAP1 SSTORE PUSH32 0x62E78CEA01BEE320CD4E420270B5EA74000D11B0C9F74754EBDBFC544B05A258 PUSH2 0x377C CALLER SWAP1 JUMP JUMPDEST PUSH1 0x0 PUSH2 0x4463 DUP3 PUSH1 0x40 MLOAD DUP1 PUSH1 0x40 ADD PUSH1 0x40 MSTORE DUP1 PUSH1 0x20 DUP2 MSTORE PUSH1 0x20 ADD PUSH32 0x5361666545524332303A206C6F772D6C6576656C2063616C6C206661696C6564 DUP2 MSTORE POP DUP6 PUSH20 0xFFFFFFFFFFFFFFFFFFFFFFFFFFFFFFFFFFFFFFFF AND PUSH2 0x4510 SWAP1 SWAP3 SWAP2 SWAP1 PUSH4 0xFFFFFFFF AND JUMP JUMPDEST SWAP1 POP DUP1 MLOAD PUSH1 0x0 EQ DUP1 PUSH2 0x4484 JUMPI POP DUP1 DUP1 PUSH1 0x20 ADD SWAP1 MLOAD DUP2 ADD SWAP1 PUSH2 0x4484 SWAP2 SWAP1 PUSH2 0x484B JUMP JUMPDEST PUSH2 0x354C JUMPI PUSH1 0x40 MLOAD PUSH32 0x8C379A000000000000000000000000000000000000000000000000000000000 DUP2 MSTORE PUSH1 0x20 PUSH1 0x4 DUP3 ADD MSTORE PUSH1 0x2A PUSH1 0x24 DUP3 ADD MSTORE PUSH32 0x5361666545524332303A204552433230206F7065726174696F6E20646964206E PUSH1 0x44 DUP3 ADD MSTORE PUSH32 0x6F74207375636365656400000000000000000000000000000000000000000000 PUSH1 0x64 DUP3 ADD MSTORE PUSH1 0x84 ADD PUSH2 0x803 JUMP JUMPDEST PUSH1 0x60 PUSH2 0x451F DUP5 DUP5 PUSH1 0x0 DUP6 PUSH2 0x4527 JUMP JUMPDEST SWAP5 SWAP4 POP POP POP POP JUMP JUMPDEST PUSH1 0x60 DUP3 SELFBALANCE LT ISZERO PUSH2 0x45B9 JUMPI PUSH1 0x40 MLOAD PUSH32 0x8C379A000000000000000000000000000000000000000000000000000000000 DUP2 MSTORE PUSH1 0x20 PUSH1 0x4 DUP3 ADD MSTORE PUSH1 0x26 PUSH1 0x24 DUP3 ADD MSTORE PUSH32 0x416464726573733A20696E73756666696369656E742062616C616E636520666F PUSH1 0x44 DUP3 ADD MSTORE PUSH32 0x722063616C6C0000000000000000000000000000000000000000000000000000 PUSH1 0x64 DUP3 ADD MSTORE PUSH1 0x84 ADD PUSH2 0x803 JUMP JUMPDEST PUSH1 0x0 DUP1 DUP7 PUSH20 0xFFFFFFFFFFFFFFFFFFFFFFFFFFFFFFFFFFFFFFFF AND DUP6 DUP8 PUSH1 0x40 MLOAD PUSH2 0x45E2 SWAP2 SWAP1 PUSH2 0x4959 JUMP JUMPDEST PUSH1 0x0 PUSH1 0x40 MLOAD DUP1 DUP4 SUB DUP2 DUP6 DUP8 GAS CALL SWAP3 POP POP POP RETURNDATASIZE DUP1 PUSH1 0x0 DUP2 EQ PUSH2 0x461F JUMPI PUSH1 0x40 MLOAD SWAP2 POP PUSH1 0x1F NOT PUSH1 0x3F RETURNDATASIZE ADD AND DUP3 ADD PUSH1 0x40 MSTORE RETURNDATASIZE DUP3 MSTORE RETURNDATASIZE PUSH1 0x0 PUSH1 0x20 DUP5 ADD RETURNDATACOPY PUSH2 0x4624 JUMP JUMPDEST PUSH1 0x60 SWAP2 POP JUMPDEST POP SWAP2 POP SWAP2 POP PUSH2 0x4635 DUP8 DUP4 DUP4 DUP8 PUSH2 0x4640 JUMP JUMPDEST SWAP8 SWAP7 POP POP POP POP POP POP POP JUMP JUMPDEST PUSH1 0x60 DUP4 ISZERO PUSH2 0x46D3 JUMPI DUP3 MLOAD PUSH2 0x46CC JUMPI PUSH20 0xFFFFFFFFFFFFFFFFFFFFFFFFFFFFFFFFFFFFFFFF DUP6 AND EXTCODESIZE PUSH2 0x46CC JUMPI PUSH1 0x40 MLOAD PUSH32 0x8C379A000000000000000000000000000000000000000000000000000000000 DUP2 MSTORE PUSH1 0x20 PUSH1 0x4 DUP3 ADD MSTORE PUSH1 0x1D PUSH1 0x24 DUP3 ADD MSTORE PUSH32 0x416464726573733A2063616C6C20746F206E6F6E2D636F6E7472616374000000 PUSH1 0x44 DUP3 ADD MSTORE PUSH1 0x64 ADD PUSH2 0x803 JUMP JUMPDEST POP DUP2 PUSH2 0x451F JUMP JUMPDEST PUSH2 0x451F DUP4 DUP4 DUP2 MLOAD ISZERO PUSH2 0x46E8 JUMPI DUP2 MLOAD DUP1 DUP4 PUSH1 0x20 ADD REVERT JUMPDEST DUP1 PUSH1 0x40 MLOAD PUSH32 0x8C379A000000000000000000000000000000000000000000000000000000000 DUP2 MSTORE PUSH1 0x4 ADD PUSH2 0x803 SWAP2 SWAP1 PUSH2 0x4A3B JUMP JUMPDEST DUP1 CALLDATALOAD PUSH20 0xFFFFFFFFFFFFFFFFFFFFFFFFFFFFFFFFFFFFFFFF DUP2 AND DUP2 EQ PUSH2 0x4740 JUMPI PUSH1 0x0 DUP1 REVERT JUMPDEST SWAP2 SWAP1 POP JUMP JUMPDEST DUP1 MLOAD PUSH10 0xFFFFFFFFFFFFFFFFFFFF DUP2 AND DUP2 EQ PUSH2 0x4740 JUMPI PUSH1 0x0 DUP1 REVERT JUMPDEST PUSH1 0x0 PUSH1 0x20 DUP3 DUP5 SUB SLT ISZERO PUSH2 0x4770 JUMPI DUP1 DUP2 REVERT JUMPDEST PUSH2 0x4779 DUP3 PUSH2 0x471C JUMP JUMPDEST SWAP4 SWAP3 POP POP POP JUMP JUMPDEST PUSH1 0x0 DUP1 PUSH1 0x40 DUP4 DUP6 SUB SLT ISZERO PUSH2 0x4792 JUMPI DUP1 DUP2 REVERT JUMPDEST PUSH2 0x479B DUP4 PUSH2 0x471C JUMP JUMPDEST SWAP5 PUSH1 0x20 SWAP4 SWAP1 SWAP4 ADD CALLDATALOAD SWAP4 POP POP POP JUMP JUMPDEST PUSH1 0x0 DUP1 PUSH1 0x0 PUSH1 0x60 DUP5 DUP7 SUB SLT ISZERO PUSH2 0x47BD JUMPI DUP1 DUP2 REVERT JUMPDEST PUSH2 0x47C6 DUP5 PUSH2 0x471C JUMP JUMPDEST SWAP6 PUSH1 0x20 DUP6 ADD CALLDATALOAD SWAP6 POP PUSH1 0x40 SWAP1 SWAP5 ADD CALLDATALOAD SWAP4 SWAP3 POP POP POP JUMP JUMPDEST PUSH1 0x0 DUP1 PUSH1 0x20 DUP4 DUP6 SUB SLT ISZERO PUSH2 0x47ED JUMPI DUP2 DUP3 REVERT JUMPDEST DUP3 CALLDATALOAD PUSH8 0xFFFFFFFFFFFFFFFF DUP1 DUP3 GT ISZERO PUSH2 0x4804 JUMPI DUP4 DUP5 REVERT JUMPDEST DUP2 DUP6 ADD SWAP2 POP DUP6 PUSH1 0x1F DUP4 ADD SLT PUSH2 0x4817 JUMPI DUP4 DUP5 REVERT JUMPDEST DUP2 CALLDATALOAD DUP2 DUP2 GT ISZERO PUSH2 0x4825 JUMPI DUP5 DUP6 REVERT JUMPDEST DUP7 PUSH1 0x20 DUP3 PUSH1 0x5 SHL DUP6 ADD ADD GT ISZERO PUSH2 0x4839 JUMPI DUP5 DUP6 REVERT JUMPDEST PUSH1 0x20 SWAP3 SWAP1 SWAP3 ADD SWAP7 SWAP2 SWAP6 POP SWAP1 SWAP4 POP POP POP POP JUMP JUMPDEST PUSH1 0x0 PUSH1 0x20 DUP3 DUP5 SUB SLT ISZERO PUSH2 0x485C JUMPI DUP1 DUP2 REVERT JUMPDEST DUP2 MLOAD DUP1 ISZERO ISZERO DUP2 EQ PUSH2 0x4779 JUMPI DUP2 DUP3 REVERT JUMPDEST PUSH1 0x0 PUSH1 0x20 DUP3 DUP5 SUB SLT ISZERO PUSH2 0x487C JUMPI DUP1 DUP2 REVERT JUMPDEST POP CALLDATALOAD SWAP2 SWAP1 POP JUMP JUMPDEST PUSH1 0x0 DUP1 PUSH1 0x40 DUP4 DUP6 SUB SLT ISZERO PUSH2 0x4895 JUMPI DUP2 DUP3 REVERT JUMPDEST DUP3 CALLDATALOAD SWAP2 POP PUSH2 0x48A5 PUSH1 0x20 DUP5 ADD PUSH2 0x471C JUMP JUMPDEST SWAP1 POP SWAP3 POP SWAP3 SWAP1 POP JUMP JUMPDEST PUSH1 0x0 DUP1 PUSH1 0x40 DUP4 DUP6 SUB SLT ISZERO PUSH2 0x48C0 JUMPI DUP2 DUP3 REVERT JUMPDEST POP POP DUP1 CALLDATALOAD SWAP3 PUSH1 0x20 SWAP1 SWAP2 ADD CALLDATALOAD SWAP2 POP JUMP JUMPDEST PUSH1 0x0 DUP1 PUSH1 0x0 DUP1 PUSH1 0x0 PUSH1 0xA0 DUP7 DUP9 SUB SLT ISZERO PUSH2 0x48E6 JUMPI DUP1 DUP2 REVERT JUMPDEST PUSH2 0x48EF DUP7 PUSH2 0x4745 JUMP JUMPDEST SWAP5 POP PUSH1 0x20 DUP7 ADD MLOAD SWAP4 POP PUSH1 0x40 DUP7 ADD MLOAD SWAP3 POP PUSH1 0x60 DUP7 ADD MLOAD SWAP2 POP PUSH2 0x4912 PUSH1 0x80 DUP8 ADD PUSH2 0x4745 JUMP JUMPDEST SWAP1 POP SWAP3 SWAP6 POP SWAP3 SWAP6 SWAP1 SWAP4 POP JUMP JUMPDEST PUSH1 0x2 DUP2 LT PUSH2 0x4955 JUMPI PUSH32 0x4E487B7100000000000000000000000000000000000000000000000000000000 PUSH1 0x0 MSTORE PUSH1 0x21 PUSH1 0x4 MSTORE PUSH1 0x24 PUSH1 0x0 REVERT JUMPDEST SWAP1 MSTORE JUMP JUMPDEST PUSH1 0x0 DUP3 MLOAD PUSH2 0x496B DUP2 DUP5 PUSH1 0x20 DUP8 ADD PUSH2 0x4B31 JUMP JUMPDEST SWAP2 SWAP1 SWAP2 ADD SWAP3 SWAP2 POP POP JUMP JUMPDEST PUSH1 0x60 DUP1 DUP3 MSTORE DUP5 MLOAD DUP3 DUP3 ADD DUP2 SWAP1 MSTORE PUSH1 0x0 SWAP2 SWAP1 PUSH1 0x20 SWAP1 PUSH1 0x80 DUP6 ADD SWAP1 DUP3 DUP10 ADD DUP6 JUMPDEST DUP3 DUP2 LT ISZERO PUSH2 0x49AF JUMPI DUP2 MLOAD DUP5 MSTORE SWAP3 DUP5 ADD SWAP3 SWAP1 DUP5 ADD SWAP1 PUSH1 0x1 ADD PUSH2 0x4993 JUMP JUMPDEST POP POP POP DUP5 DUP2 SUB DUP3 DUP7 ADD MSTORE DUP7 MLOAD DUP1 DUP3 MSTORE DUP8 DUP4 ADD SWAP2 DUP4 ADD SWAP1 DUP6 JUMPDEST DUP2 DUP2 LT ISZERO PUSH2 0x4A00 JUMPI DUP4 MLOAD PUSH2 0x49DC DUP5 DUP3 MLOAD PUSH2 0x491E JUMP JUMPDEST DUP1 DUP7 ADD MLOAD DUP5 DUP8 ADD MSTORE PUSH1 0x40 SWAP1 DUP2 ADD MLOAD ISZERO ISZERO SWAP1 DUP5 ADD MSTORE SWAP3 DUP5 ADD SWAP3 SWAP2 DUP6 ADD SWAP2 PUSH1 0x1 ADD PUSH2 0x49C7 JUMP JUMPDEST POP POP DUP1 SWAP5 POP POP POP POP POP DUP3 PUSH1 0x40 DUP4 ADD MSTORE SWAP5 SWAP4 POP POP POP POP JUMP JUMPDEST PUSH1 0x60 DUP2 ADD PUSH2 0x4A25 DUP3 DUP7 PUSH2 0x491E JUMP JUMPDEST DUP4 PUSH1 0x20 DUP4 ADD MSTORE DUP3 ISZERO ISZERO PUSH1 0x40 DUP4 ADD MSTORE SWAP5 SWAP4 POP POP POP POP JUMP JUMPDEST PUSH1 0x20 DUP2 MSTORE PUSH1 0x0 DUP3 MLOAD DUP1 PUSH1 0x20 DUP5 ADD MSTORE PUSH2 0x4A5A DUP2 PUSH1 0x40 DUP6 ADD PUSH1 0x20 DUP8 ADD PUSH2 0x4B31 JUMP JUMPDEST PUSH1 0x1F ADD PUSH32 0xFFFFFFFFFFFFFFFFFFFFFFFFFFFFFFFFFFFFFFFFFFFFFFFFFFFFFFFFFFFFFFE0 AND SWAP2 SWAP1 SWAP2 ADD PUSH1 0x40 ADD SWAP3 SWAP2 POP POP JUMP JUMPDEST PUSH1 0x0 DUP3 NOT DUP3 GT ISZERO PUSH2 0x4A9F JUMPI PUSH2 0x4A9F PUSH2 0x4B96 JUMP JUMPDEST POP ADD SWAP1 JUMP JUMPDEST PUSH1 0x0 DUP3 PUSH2 0x4AD8 JUMPI PUSH32 0x4E487B7100000000000000000000000000000000000000000000000000000000 DUP2 MSTORE PUSH1 0x12 PUSH1 0x4 MSTORE PUSH1 0x24 DUP2 REVERT JUMPDEST POP DIV SWAP1 JUMP JUMPDEST PUSH1 0x0 DUP2 PUSH32 0xFFFFFFFFFFFFFFFFFFFFFFFFFFFFFFFFFFFFFFFFFFFFFFFFFFFFFFFFFFFFFFFF DIV DUP4 GT DUP3 ISZERO ISZERO AND ISZERO PUSH2 0x4B15 JUMPI PUSH2 0x4B15 PUSH2 0x4B96 JUMP JUMPDEST POP MUL SWAP1 JUMP JUMPDEST PUSH1 0x0 DUP3 DUP3 LT ISZERO PUSH2 0x4B2C JUMPI PUSH2 0x4B2C PUSH2 0x4B96 JUMP JUMPDEST POP SUB SWAP1 JUMP JUMPDEST PUSH1 0x0 JUMPDEST DUP4 DUP2 LT ISZERO PUSH2 0x4B4C JUMPI DUP2 DUP2 ADD MLOAD DUP4 DUP3 ADD MSTORE PUSH1 0x20 ADD PUSH2 0x4B34 JUMP JUMPDEST DUP4 DUP2 GT ISZERO PUSH2 0x369F JUMPI POP POP PUSH1 0x0 SWAP2 ADD MSTORE JUMP JUMPDEST PUSH1 0x0 PUSH32 0xFFFFFFFFFFFFFFFFFFFFFFFFFFFFFFFFFFFFFFFFFFFFFFFFFFFFFFFFFFFFFFFF DUP3 EQ ISZERO PUSH2 0x4B8F JUMPI PUSH2 0x4B8F PUSH2 0x4B96 JUMP JUMPDEST POP PUSH1 0x1 ADD SWAP1 JUMP JUMPDEST PUSH32 0x4E487B7100000000000000000000000000000000000000000000000000000000 PUSH1 0x0 MSTORE PUSH1 0x11 PUSH1 0x4 MSTORE PUSH1 0x24 PUSH1 0x0 REVERT INVALID LOG2 PUSH5 0x6970667358 0x22 SLT KECCAK256 0x5E SLOAD 0xEF 0xD SWAP13 DUP10 EXTCODECOPY 0xD6 0x27 PUSH2 0x9A8 MSTORE 0xB8 EXTCODECOPY SSTORE TIMESTAMP EQ SIGNEXTEND 0xC0 MSIZE 0xC9 SWAP2 0xC9 PUSH15 0x90F408158F665364736F6C63430008 DIV STOP CALLER "
        },
        "methodIdentifiers": {
          "MAX_TREASURY_FEE()": "f2b3c809",
          "adminAddress()": "fc6f9468",
          "betBear(uint256,uint256)": "0e89e5a4",
          "betBull(uint256,uint256)": "3923e1b4",
          "bufferSeconds()": "eaba2361",
          "claim(uint256[])": "6ba4c138",
          "claimTreasury()": "003bdc74",
          "claimable(uint256,address)": "a0c7f71c",
          "currentEpoch()": "76671808",
          "executeRound()": "7b3205f5",
          "genesisLockOnce()": "0f74174f",
          "genesisLockRound()": "d9d55eac",
          "genesisStartOnce()": "f7fdec28",
          "genesisStartRound()": "452fd75a",
          "getUserRounds(address,uint256,uint256)": "951fd600",
          "getUserRoundsLength(address)": "273867d4",
          "intervalSeconds()": "7d1cd04f",
          "ledger(uint256,address)": "7285c58b",
          "minBetAmount()": "fa968eea",
          "operatorAddress()": "127effb2",
          "oracle()": "7dc0d1d0",
          "oracleLatestRoundId()": "ec324703",
          "oracleUpdateAllowance()": "60554011",
          "owner()": "8da5cb5b",
          "pause()": "8456cb59",
          "paused()": "5c975abb",
          "recoverToken(address,uint256)": "b29a8140",
          "refundable(uint256,address)": "7bf41254",
          "renounceOwnership()": "715018a6",
          "rounds(uint256)": "8c65c81f",
          "setAdmin(address)": "704b6c02",
          "setBufferAndIntervalSeconds(uint256,uint256)": "890dc766",
          "setMinBetAmount(uint256)": "6c188593",
          "setOperator(address)": "b3ab15fb",
          "setOracle(address)": "7adbf973",
          "setOracleUpdateAllowance(uint256)": "cf2f5039",
          "setTreasuryFee(uint256)": "77e741c7",
          "token()": "fc0c546a",
          "transferOwnership(address)": "f2fde38b",
          "treasuryAmount()": "368acb09",
          "treasuryFee()": "cc32d176",
          "unpause()": "3f4ba83a",
          "userRounds(address,uint256)": "dd1f7596"
        }
      }
    }
  }
}